:1000000072C000009AC0000098C0000096C00000B6
:1000100094C0000092C0000090C000008EC000009C
:100020008CC000008AC0000088C0000086C00000AC
:1000300084C0000082C0000080C000007EC00000BC
:100040007CC000007AC0000078C0000076C00000CC
:1000500074C0000072C0000070C00000FFC000004B
:100060006CC00000FFC100004DC3000066C000006E
:1000700064C0000062C0000060C000005EC00000FC
:100080005CC000005AC0000058C0000056C000000C
:1000900029C2000076C3000050C000004EC000001E
:1000A0004CC000004AC0000048C0000046C000002C
:1000B00044C0000042C0000040C000003EC000003C
:1000C0003CC000003AC0000038C000004BC2000035
:1000D00097C3000032C0000085C20000D0C30000FA
:1000E0002CC00000AF0511241FBECFEFD1E2DEBF50
:1000F000CDBF00E00CBF12E0A0E0B2E0E4E7FFE01B
:1001000000E00BBF02C007900D92AA38B107D9F7E3
:100110001BBE15E0AAE8B2E001C01D92AB33B107E7
:10012000E1F710E0C6EED0E003C02297FE011CD735
:10013000C43ED107D1F74AD61BC762CFEF92FF92D8
:100140000F931F93DF93CF93CDB7DEB72F970FB6E3
:10015000F894DEBF0FBECDBF83EB94E060E072E0A9
:10016000A7D685ED94E050D4892B21F085ED94E05D
:100170007DD4F7CFDE011896E1E7F2E088E0019048
:100180000D928150E1F78E01085F1F4F98E0E92E34
:10019000F12CE00EF11E85ED94E0F80161918F01E4
:1001A0009ED40E151F05B9F768EE73E080E090E06D
:1001B0009DD085ED94E028D4079731F58E010F5F2F
:1001C0001F4F88E0E82EF12CEC0EFD1E85ED94E02B
:1001D0004DD4F80181938F01EE15FF05B9F78981A0
:1001E000843091F48A818E3079F48B81843061F48B
:1001F0008C81813049F48D81873231F48E818C3F3E
:1002000019F48F818823B9F083EB94E060E272E007
:100210004FD668EE73E080E090E068D02F960FB67E
:10022000F894DEBF0FBECDBFCF91DF911F910F912C
:10023000FF90EF90089583EB94E068E472E0E8CFDC
:1002400083EB94E040E855E260E070E057D385ED41
:1002500094E040E052EC61E070E050C31F920F92D6
:100260000FB60F9211242F933F938F939F93AF93C9
:10027000BF9380918E0290918F02A0919002B091D5
:100280009102309192020196A11DB11D232F2D5F85
:100290002D3720F02D570196A11DB11D20939202FC
:1002A00080938E0290938F02A0939002B09391025C
:1002B00080918A0290918B02A0918C02B0918D0264
:1002C0000196A11DB11D80938A0290938B02A09389
:1002D0008C02B0938D02BF91AF919F918F913F910E
:1002E0002F910F900FBE0F901F9018959B01AC019E
:1002F0007FB7F89480918A0290918B02A0918C0232
:10030000B0918D0266B5A89B05C06F3F19F00196AC
:10031000A11DB11D7FBFBA2FA92F982F8827860F47
:10032000911DA11DB11D62E0880F991FAA1FBB1F5F
:100330006A95D1F7BC012DC0FFB7F89480918A026D
:1003400090918B02A0918C02B0918D02E6B5A89B92
:1003500005C0EF3F19F00196A11DB11DFFBFBA2FD7
:10036000A92F982F88278E0F911DA11DB11DE2E0A6
:10037000880F991FAA1FBB1FEA95D1F7861B970B01
:10038000885E9340C8F22150304040405040685150
:100390007C4F211531054105510571F6089578947A
:1003A00084B5826084BD84B5816084BD85B582607A
:1003B00085BD85B5816085BDEEE6F0E08081816018
:1003C0008083E1E8F0E01082808182608083808118
:1003D00081608083E0E8F0E0808181608083E1EBF0
:1003E000F0E0808184608083E0EBF0E080818160D8
:1003F0008083E1E9F0E08081826080838081816098
:100400008083E0E9F0E0808181608083E1EAF0E0D0
:10041000808182608083808181608083E0EAF0E077
:10042000808181608083E1E2F1E08081826080836D
:10043000808181608083E0E2F1E08081816080835F
:10044000EAE7F0E08081846080838081826080833D
:100450008081816080838081806880831092C10068
:10046000089508951F920F920FB60F920BB60F9238
:1004700011242F933F934F938F939F93EF93FF9369
:100480008091C00082FD1DC04091C6002091D30222
:100490003091D4022F5F3F4F2F7330708091D5027F
:1004A0009091D6022817390771F0E091D302F091AC
:1004B000D402ED56FD4F40833093D4022093D302F3
:1004C00002C08091C600FF91EF919F918F914F9153
:1004D0003F912F910F900BBE0F900FBE0F901F906A
:1004E000189508951F920F920FB60F920BB60F92A8
:1004F00011242F933F934F938F939F93EF93FF93E9
:100500008091C80082FD1DC04091CE0020915B0308
:1005100030915C032F5F3F4F2F73307080915D03EC
:1005200090915E032817390771F0E0915B03F09119
:100530005C03E55EFC4F408330935C0320935B03D8
:1005400002C08091CE00FF91EF919F918F914F91CA
:100550003F912F910F900BBE0F900FBE0F901F90E9
:10056000189508951F920F920FB60F920BB60F9227
:1005700011242F933F934F938F939F93EF93FF9368
:100580008091D00082FD1DC04091D6002091E303F0
:100590003091E4032F5F3F4F2F7330708091E5035C
:1005A0009091E6032817390771F0E091E303F09189
:1005B000E403ED55FC4F40833093E4032093E303C1
:1005C00002C08091D600FF91EF919F918F914F9142
:1005D0003F912F910F900BBE0F900FBE0F901F9069
:1005E000189508951F920F920FB60F920BB60F92A7
:1005F00011242F933F934F938F939F93EF93FF93E8
:100600008091300182FD1DC04091360120916B0424
:1006100030916C042F5F3F4F2F73307080916D04C9
:1006200090916E042817390771F0E0916B04F091F6
:100630006C04E55DFB4F408330936C0420936B04A6
:1006400002C080913601FF91EF919F918F914F9160
:100650003F912F910F900BBE0F900FBE0F901F90E8
:100660001895E091BF04F091C004E05CFF4F8191C8
:10067000919120813181805C9F4F821B930B60E4BC
:1006800070E027D4892B09F0ECDEE091E104F091D1
:10069000E204E05CFF4F8191919120813181805C87
:1006A0009F4F821B930B60E470E013D4892B09F0F9
:1006B00018DFE0910305F0910405E05CFF4F8191A4
:1006C000919120813181805C9F4F821B930B60E46C
:1006D00070E0FFD3892B09F044DFE0912505F0910C
:1006E0002605E05CFF4F8191919120813181805CF2
:1006F0009F4F821B930B60E470E0EBD3892B09F0D2
:1007000070CF08951F920F920FB60F920BB60F92F3
:1007100011242F933F938F939F93EF93FF932091F7
:100720001703309118038091190390911A03281729
:10073000390731F48091C1008F7D8093C10014C0CE
:10074000E0911903F0911A03E952FD4F2081809145
:10075000190390911A0301968F73907090931A0366
:10076000809319032093C600FF91EF919F918F9181
:100770003F912F910F900BBE0F900FBE0F901F90C7
:1007800018951F920F920FB60F920BB60F9211246D
:100790002F933F938F939F93EF93FF9320919F030A
:1007A0003091A0038091A1039091A20328173907EB
:1007B00031F48091C9008F7D8093C90014C0E0910D
:1007C000A103F091A203E15AFC4F20818091A10383
:1007D0009091A20301968F7390709093A2038093DF
:1007E000A1032093CE00FF91EF919F918F913F91B4
:1007F0002F910F900BBE0F900FBE0F901F9018956A
:100800001F920F920FB60F920BB60F9211242F93D7
:100810003F938F939F93EF93FF9320912704309101
:1008200028048091290490912A042817390731F46B
:100830008091D1008F7D8093D10014C0E091290474
:10084000F0912A04E951FC4F208180912904909174
:100850002A0401968F73907090932A048093290440
:100860002093D600FF91EF919F918F913F912F910F
:100870000F900BBE0F900FBE0F901F9018951F92F8
:100880000F920FB60F920BB60F9211242F933F9336
:100890008F939F93EF93FF932091AF043091B00417
:1008A0008091B1049091B2042817390731F48091F6
:1008B00031018F7D8093310114C0E091B104F0913A
:1008C000B204E159FB4F20818091B1049091B204B0
:1008D00001968F7390709093B2048093B10420932B
:1008E0003601FF91EF919F918F913F912F910F9042
:1008F0000BBE0F900FBE0F901F901895AF92BF9236
:10090000DF92EF92FF920F931F93CF93DF93EC014F
:100910007A018B01DD24403081EE580780E06807C2
:1009200080E0780711F0DD24D39491E0A92EB12C5A
:10093000EC89FD89DD2069F0C50108A002C0880F9F
:10094000991F0A94E2F7808360E079E08DE390E0FC
:1009500005C0108260E874E88EE190E0A80197017C
:10096000CBD2215030404040504056954795379566
:10097000279580E12030380720F0DD2011F0DD24BC
:10098000D7CFE889F9893083EA89FB89208319A2C6
:10099000EE89FF89408121E030E0C9010C8C02C062
:1009A000880F991F0A94E2F7482B4083EE89FF894C
:1009B0004081C9010D8C02C0880F991F0A94E2F78B
:1009C000482B4083EE89FF894081C9010E8C02C00B
:1009D000880F991F0A94E2F7482B4083EE89FF891C
:1009E00080810F8C02C0220F331F0A94E2F72095FA
:1009F00028232083DF91CF911F910F91FF90EF90DB
:100A0000DF90BF90AF900895DC011C96ED91FC91B2
:100A10001D97E05CFF4F8191919120813181805C35
:100A20009F4F821B930B60E470E053C2DC011C9665
:100A3000ED91FC911D97E05CFF4F20813181E054E6
:100A4000F040DF01AE5BBF4F8D919C91119728174D
:100A5000390719F42FEF3FEF07C08D919C91E80FF4
:100A6000F91F8081282F30E0C9010895DC011C9610
:100A7000ED91FC911D97E05CFF4F20813181E054A6
:100A8000F040DF01AE5BBF4F8D919C91119728170D
:100A9000390719F42FEF3FEF10C08D919C911197FA
:100AA000E80FF91F20818D919C91119701968F730A
:100AB000907011969C938E9330E0C9010895DC01EB
:100AC00091968C919197882339F05496ED91FC91F1
:100AD0005597808186FFF9CF91961C920895CF9308
:100AE000DF93EC01EE85FF85E05CFF4F20813181D3
:100AF000E054F0402F5F3F4F2F733070DF01AE5B4B
:100B0000BF4F8D919C91119728173907D1F3E05C65
:100B1000FF4F80819181E054F040E80FF91F60831E
:100B2000EE85FF85E05CFF4F31832083EE89FF89EE
:100B3000208181E090E00F8C02C0880F991F0A94F9
:100B4000E2F7282B208381E089A3EC89FD8980814D
:100B50008064808381E090E0DF91CF9108951F93BE
:100B60001092B6041092B50428EE33E040E050E055
:100B70002093B7043093B8044093B9045093BA0457
:100B80006DE772E07093B4046093B30483E992E07C
:100B90009093C0048093BF0487ED92E09093C204C9
:100BA0008093C10485EC90E09093C4048093C304C7
:100BB00084EC90E09093C6048093C50480EC90E0B0
:100BC0009093C8048093C70481EC90E09093CA048A
:100BD0008093C90482EC90E09093CC048093CB0482
:100BE00086EC90E09093CE048093CD0414E01093B3
:100BF000CF04B3E0B093D004A7E0A093D104F5E014
:100C0000F093D204E1E0E093D3041092D804109260
:100C1000D7042093D9043093DA044093DB04509333
:100C2000DC047093D6046093D5048BE193E0909339
:100C3000E2048093E1048FE593E09093E4048093D1
:100C4000E3048DEC90E09093E6048093E5048CEC53
:100C500090E09093E8048093E70488EC90E0909310
:100C6000EA048093E90489EC90E09093EC0480938B
:100C7000EB048AEC90E09093EE048093ED048EEC0C
:100C800090E09093F0048093EF041093F104B093FC
:100C9000F204A093F304F093F404E093F5041092AB
:100CA000FA041092F9042093FB043093FC0440935F
:100CB000FD045093FE047093F8046093F70483EAF4
:100CC00093E0909304058093030587EE93E090935F
:100CD00006058093050585ED90E0909308058093C7
:100CE000070584ED90E090930A058093090580ED57
:100CF00090E090930C0580930B0581ED90E090932C
:100D00000E0580930D0582ED90E090931005809381
:100D10000F0586ED90E090931205809311051093D6
:100D20001305B0931405A0931505F0931605E093F1
:100D3000170510921C0510921B0520931D0530937A
:100D40001E0540931F055093200570931A0560936C
:100D500019058BE294E090932605809325058FE694
:100D600094E0909328058093270585E391E0909384
:100D70002A058093290584E391E090932C058093C4
:100D80002B0580E391E090932E0580932D0581E360
:100D900091E09093300580932F0582E391E090934A
:100DA00032058093310586E391E09093340580937A
:100DB000330510933505B0933605A0933705F093AE
:100DC0003805E09339051F9108950895CF93DF9377
:100DD000E6DAFBDF35DAC1E3D3E0B0D92097E9F3F7
:100DE00040DCFBCFCF92DF92EF92FF920F931F93E5
:100DF000CF93DF937C016B018A01C0E0D0E00FC08C
:100E0000D6016D916D01D701ED91FC910190F081BA
:100E1000E02DC7011995C80FD91F015010400115C9
:100E2000110571F7CE01DF91CF911F910F91FF90C6
:100E3000EF90DF90CF900895EF92FF920F931F9362
:100E40008C01DC01ED91FC910190F081E02D6DE0D1
:100E500019957C01D801ED91FC910190F081E02D74
:100E6000C8016AE019959C012E0D3F1DC9011F9113
:100E70000F91FF90EF900895CF93DF93EC016115F0
:100E8000710519F420E030E00FC0DB010D90002067
:100E9000E9F71197A61BB70BE881F9810280F3816E
:100EA000E02DAD0119959C01C901DF91CF91089505
:100EB000EF92FF920F931F937C01DEDF8C01C7013D
:100EC000BBDF080F191FC8011F910F91FF90EF9012
:100ED000089597FB092E07260AD077FD04D02ED05F
:100EE00006D000201AF4709561957F4F0895F6F7AB
:100EF000909581959F4F0895A1E21A2EAA1BBB1BC6
:100F0000FD010DC0AA1FBB1FEE1FFF1FA217B307D5
:100F1000E407F50720F0A21BB30BE40BF50B661FEB
:100F2000771F881F991F1A9469F7609570958095AF
:100F300090959B01AC01BD01CF010895AA1BBB1B7D
:100F400051E107C0AA1FBB1FA617B70710F0A61BC9
:100F5000B70B881F991F5A95A9F780959095BC01EA
:100F6000CD010895EE0FFF1F0590F491E02D199427
:040F7000F894FFCF23
:100F7400436F6E6669677572696E6720426C75654A
:100F8400746F6F7468206D6F64756C652E2E2E00FF
:100F94004661696C656420746F20636F6E6669676F
:100FA40075726520426C7565746F6F7468206D6F1F
:100FB40064756C65212121005375636365737366E1
:100FC400756C6C7920636F6E666967757265204213
:100FD4006C7565746F6F7468206D6F64756C6521D2
:100FE400000127FC0400210109000000006F05F244
:0A0FF400060405360516055F05002A
:00000001FF
