:1000000047C1000072C1000070C100006EC1000055
:100010006CC100006AC1000068C1000066C1000038
:1000200064C1000062C1000060C100005EC1000048
:100030005CC100005AC1000058C100000C94348615
:1000400054C100000C94F29250C100004EC1000057
:100050004CC100004AC1000048C100000C9432931A
:100060000C9471080C9454950C94A8963EC1000011
:100070003CC100003AC1000038C1000036C1000098
:100080000C94C59232C1000030C100002EC10000A6
:100090000C9494950C94E79628C1000026C10000AA
:1000A00024C1000022C100000C9498921EC10000DF
:1000B0001CC100001AC1000018C100000C946B9212
:1000C00014C1000012C1000010C100000C94D495AE
:1000D0000C9426970AC100000C9414960C94659712
:1000E00004C10000036EDB363D9A9999993DABAA95
:1000F000AA2A3E000000803F084AD73B3BCE016E53
:1001000084BCBFFDC12F3D6C74319ABD56833DDA6E
:100110003D00C77F11BED9E4BB4C3E916BAAAABE7D
:10012000000000803F072C7AA5BA6CC590DA3B939B
:1001300065FC8BBC53F810FD3C5692834DBD879DEA
:100140003AB63DCBC9BF5BBE73DA0FC93F05A84CB9
:10015000CDB2D44EB93836A9020C50B99186880870
:100160003CA6AAAA2ABE000000803F00002100246D
:100170000027002A002D0030003300010100000498
:100180000107010A0100002200250028002B002E93
:10019000003100340002010000050108010B0100DC
:1001A0000020002300260029002C002F0032000030
:1001B0000100000301060109010505050507050801
:1001C000080808020202020A0A08080404040401DA
:1001D00001010101010101030303030303030304FC
:1001E0000707070C0C0C0C0C0C0C0C02020202068C
:1001F000060606060606060B0B0B0B0B0B0B0B017C
:100200000210202008081020401020408002010227
:1002100001080402010102040810204080804020EF
:10022000100804020180040201804020100804022A
:1002300001080402010102040810204080010204A8
:1002400008102040800000090A02080B0C0D070668
:100250000304010000000000000000000000000096
:10026000000000000000000000000000000000008E
:100270000011100F0000000000000000000000004E
:100280000000000000000000000000009001D7986E
:1002900011241FBECFEFD1E2DEBFCDBF00E00CBF07
:1002A00019E0A0E0B2E0E6EFF0E401E00BBF02C02D
:1002B00007900D92A030B107D9F71BBE11E1A0E065
:1002C000B9E001C01D92AE3FB107E1F712E0C0E90D
:1002D000D2E004C02297FE010E9475A0CC38D1075D
:1002E000C9F70E940E9A0C9479A08ACEFB01519115
:1002F0005523A9F0BF01DC014D9145174111E1F7EC
:1003000059F4CD010190002049F04D914015411163
:10031000C9F3FB014111EFCF81E090E0019708950F
:1003200080E099E00E941F1080E09DE00E94E98A31
:100330008AE09DE00C9461864F925F926F927F926B
:100340008F929F92AF92BF92CF92DF92EF92FF92E5
:100350000F931F93DF93CF93CDB7DEB728970FB6D8
:10036000F894DEBF0FBECDBF8091180D9091190D8E
:10037000009759F480910A0D90910B0D019791F41B
:100380008AE09DE00E94D38895C6019759F4809138
:10039000000D9091010D019729F480E09DE00E94ED
:1003A000788D88C68AE19DE00E94CE0E80916C0D0A
:1003B00090916D0D019731F482E090E090936D0D76
:1003C00080936C0D8091C609813009F073C68091CD
:1003D000C709882309F06EC667C6109203091092F8
:1003E000020910920509109204091092070910924F
:1003F00006091092010980E099E00E94561280914E
:100400009A0990919B09A0919C09B0919D098093B4
:10041000440D9093450DA093460DB093470D8091E8
:100420009E0990919F09A091A009B091A109809384
:10043000480D9093490DA0934A0DB0934B0D8091B8
:10044000A2099091A309A091A409B091A509809354
:100450004C0D90934D0DA0934E0DB0934F0D809188
:10046000A6099091A709A091A809B091A909809324
:10047000500D9093510DA093520DB093530D809158
:10048000AE099091AF09A091B009B091B1098093E4
:10049000540D9093550DA093560DB093570D809128
:1004A000B2099091B309A091B409B091B5098093B4
:1004B000580D9093590DA0935A0DB0935B0D8091F8
:1004C000B6099091B709A091B809B091B909809384
:1004D0005C0D90935D0DA0935E0DB0935F0D8091C8
:1004E000BA099091BB09A091BC09B091BD09809354
:1004F000600D9093610DA093620DB093630D809198
:10050000BE099091BF09A091C009B091C109809323
:10051000680D9093690DA0936A0DB0936B0D809157
:100520000009882359F08091420D9091430D892B49
:1005300029F08AE19DE024D71092000960911A0DFC
:1005400070911B0D80911C0D90911D0D0E94B59D09
:100550006630710509F416C267307105C4F4633062
:10056000710509F494C06430710544F4613071057B
:1005700039F16230710509F05CC561C06430710504
:1005800009F4F6C06530710509F053C564C16930DE
:10059000710509F4DBC26A3071054CF467307105EE
:1005A00009F469C26830710509F043C58CC26A302C
:1005B000710509F4C6C46F30710509F03AC513C559
:1005C0008091660E9091670E019721F01092990A22
:1005D0001092980A00D00F924091220D5091230D55
:1005E0006091240D7091250D0091260D1091270D1D
:1005F0002091280D3091290DC0902A0DD0902B0DFF
:10060000E0902C0DF0902D0D80902E0D90902F0DE0
:10061000A090300DB090310D8091320D9091330D3E
:10062000A091340DB091350DEDB7FEB78183928363
:10063000A383B48380E099E00E947D8282C26091AE
:10064000360D7091370D8091380D9091390D20E065
:1006500030E048EC52E40E944D9D609396097093FF
:100660009709809398099093990960911E0D709154
:100670001F0D8091200D9091210D0E94B59D9B0131
:10068000AC0180E099E0B9010E94A385D2C48DB786
:100690009EB70E970FB6F8949EBF0FBE8DBF0DB7D5
:1006A0001EB70F5F1F4F4090220D5090230D60909A
:1006B000240D7090250D8091260D9091270DA0910D
:1006C000280DB091290D89839A83AB83BC83C09098
:1006D0002A0DD0902B0DE0902C0DF0902D0D8090D8
:1006E0002E0D90902F0DA090300DB090310D809177
:1006F000320D9091330DA091340DB091350DEDB7C1
:10070000FEB781839283A383B48380913A0D909145
:100710003B0DA0913C0DB0913D0DF8018483958374
:10072000A683B78380913E0D90913F0DA091400D1F
:10073000B091410D80879187A287B3876091360D74
:100740007091370D8091380D9091390D0E94B59DB3
:10075000D8011D967C936E931C9780E099E0B301BD
:10076000A20109811A812B813C810E9450817AC1AA
:100770008DB79EB744970FB6F8949EBF0FBE8DBF3E
:10078000EDB7FEB731964091360D5091370D60911F
:10079000380D7091390D00913A0D10913B0D20915B
:1007A0003C0D30913D0DC0903E0DD0903F0DE0903E
:1007B000400DF090410D8090220D9090230DA0905F
:1007C000240DB090250D4090260D5090270D60907F
:1007D000280D7090290DADB7BEB711964D925D9260
:1007E0006D927C92149780912A0D90912B0DA0917F
:1007F0002C0DB0912D0D84839583A683B7838091B2
:100800002E0D90912F0DA091300DB091310D80875C
:100810009187A287B3878091320D9091330DA0917B
:10082000340DB091350D84879587A687B787809161
:100830001E0D90911F0DA091200DB091210D808B68
:10084000918BA28BB38B80E099E00E94734AEDB745
:10085000FEB774960AC18091700D9091710D84302D
:10086000910509F443C08530910554F48230910517
:10087000E1F083309105ACF5019709F0DAC310C0BF
:100880008630910509F44FC0863091050CF446C0BE
:100890008730910509F461C0089709F0CAC366C0A2
:1008A00060916E0D70916F0D07C060916E0D70912B
:1008B0006F0D709561957F4F882777FD8095982FF4
:1008C0000E94E89DAB01BC0180E099E000E010E0EF
:1008D00020E030E068017901460157010E94E552AD
:1008E000A8C360916E0D70916F0D07C060916E0D81
:1008F00070916F0D709561957F4F882777FD80957A
:10090000982F0E94E89D8B019C0180E099E040E0D7
:1009100050E060E070E06A017B01DECF60916E0D17
:1009200070916F0D07C060916E0D70916F0D709595
:1009300061957F4F882777FD8095982F0E94E89DCD
:100940006B017C0180E099E040E050E060E070E005
:100950008A019B014A015B01C1CF86EC99E040E02E
:1009600050E064E372E40E949A9008C086EC99E03B
:1009700040E050E060E070E00E946F9081E0809382
:10098000000957C38DB79EB70E970FB6F8949EBF58
:100990000FBE8DBF0DB71EB70F5F1F4F4090220DCA
:1009A0005090230D6090240D7090250D8091260DA0
:1009B0009091270DA091280DB091290D8D839E83D4
:1009C000AF83B887C0902A0DD0902B0DE0902C0DEE
:1009D000F0902D0D80902E0D90902F0DA090300D49
:1009E000B090310D8091320D9091330DA091340D66
:1009F000B091350DEDB7FEB781839283A383B483A5
:100A000080913A0D90913B0DA0913C0DB0913D0D20
:100A1000F80184839583A683B78380913E0D9091DE
:100A20003F0DA091400DB091410D80879187A28725
:100A3000B3876091360D7091370D8091380D90918C
:100A4000390D0E94B59DD8011D967C936E931C971D
:100A500080E099E0B301A2010D811E812F813885CC
:100A60000E94E681EDB7FEB73E960FB6F894FEBF42
:100A70000FBEEDBFDEC26091360D7091370D8091D3
:100A8000380D9091390D20E030E048EC52E40E949E
:100A90004D9D609396097093970980939809909360
:100AA000990960911E0D70911F0D8091200D9091FC
:100AB000210D0E94B59D9B01AC0180E099E0B90138
:100AC0000E945D85B6C28091660E9091670E089770
:100AD00021F01092990A1092980A00D00F9240913A
:100AE000220D5091230D6091240D7091250D0091E0
:100AF000260D1091270D2091280D3091290DC090C1
:100B00002A0DD0902B0DE0902C0DF0902D0D8090A3
:100B10002E0D90902F0DA090300DB090310D809142
:100B2000320D9091330DA091340DB091350DEDB78C
:100B3000FEB781839283A383B48380E099E00E940F
:100B40002B7E0F900F900F900F9073C260911E0D2F
:100B500070911F0D8091200D9091210D0E94B59DE7
:100B60006230710509F453C1633071053CF4672BA1
:100B700071F06130710509F026C2AAC063307105B9
:100B800009F456C16430710509F01DC284C1809119
:100B9000220D9091230DA091240DB091250D8093ED
:100BA000560990935709A0935809B0935909809317
:100BB0005A0990935B09A0935C09B0935D098093F7
:100BC0005E0990935F09A0936009B09361098091D9
:100BD000260D9091270DA091280DB091290D80939D
:100BE000660990936709A0936809B0936909809397
:100BF0006A0990936B09A0936C09B0936D09809377
:100C00006E0990936F09A0937009B0937109809158
:100C10002A0D90912B0DA0912C0DB0912D0D80934C
:100C2000620990936309A0936409B0936509809168
:100C30002E0D90912F0DA091300DB091310D80931C
:100C4000720990937309A0937409B0937509809108
:100C5000320D9091330DA091340DB091350D8093EC
:100C6000760990937709A0937809B09379098093D6
:100C70007A0990937B09A0937C09B0937D098093B6
:100C80007E0990937F09A0938009B0938109809198
:100C9000360D9091370DA091380DB091390D80939C
:100CA000860990938709A0938809B0938909809356
:100CB0008A0990938B09A0938C09B0938D09809336
:100CC0008E0990938F09A0939009B09391097BC1ED
:100CD0008091220D9091230DA091240DB091250DAE
:100CE0008093260990932709A0932809B093290996
:100CF00080932A0990932B09A0932C09B0932D0976
:100D000080932E0990932F09A0933009B093310955
:100D10008091260D9091270DA091280DB091290D5D
:100D20008093360990933709A0933809B093390915
:100D300080933A0990933B09A0933C09B0933D09F5
:100D400080933E0990933F09A0934009B0934109D5
:100D500080912A0D90912B0DA0912C0DB0912D0D0D
:100D60008093320990933309A0933409B0933509E5
:100D700080912E0D90912F0DA091300DB091310DDD
:100D80008093420990934309A0934409B093450985
:100D90008091320D9091330DA091340DB091350DAD
:100DA00080931E0990931F09A0932009B0932109F5
:100DB0008091360D9091370DA091380DB091390D7D
:100DC0008093220990932309A0932409B0932509C5
:100DD00060913A0D70913B0D80913C0D90913D0DCD
:100DE0000E94B59D7093690E6093680E80913E0DD0
:100DF00090913F0DA091400DB091410D809352090B
:100E000090935309A0935409B0935509DCC0809185
:100E1000220D9091230DA091240DB091250D80936A
:100E2000C2099093C309A093C409B093C509CBC06C
:100E300060E070E084EB92E42091220D3091230D6C
:100E40004091240D5091250D0E94689C60930E09DD
:100E500070930F0980931009909311098091260DCA
:100E60009091270DA091280DB091290D8093120922
:100E700090931309A0931409B093150980E090E0B2
:100E8000A0E0B0E080930A0990930B09A0930C09AD
:100E9000B0930D0998C0E090220DF090230D0091C1
:100EA000240D1091250DC801B70120E030E040E08D
:100EB00050E00E94469D882329F48EEA97E4ACE531
:100EC000B2E42AC0C801B70120E030E040E85FE3A7
:100ED0000E94469D882389F48EEA97E4ACE5B2E44B
:100EE00080930C0A90930D0AA0930E0AB0930F0AF8
:100EF00080E090E0A0EAB1E41BC0C801B70120E0A7
:100F000030E040E050E40E94469D882309F05BC039
:100F10008EEA97E4A6E4B2E480930C0A90930D0A5B
:100F2000A0930E0AB0930F0A80E090E0A0EFB1EC1E
:100F30008093100A9093110AA093120AB093130A97
:100F400042C06091220D7091230D8091240D9091EB
:100F5000250D20E030E048EC52E40E944D9D609366
:100F60004609709347098093480990934909609115
:100F7000260D7091270D8091280D9091290D20E06C
:100F800030E048EC52E40E944D9D60934A09709312
:100F90004B0980934C0990934D0960912A0D7091F3
:100FA0002B0D80912C0D90912D0D20E030E048EC20
:100FB00052E40E944D9D6093960970939709809327
:100FC00098099093990981E08093000980E090E06E
:100FD000A0E0B0E080931A0D90931B0DA0931C0D20
:100FE000B0931D0D26C04091220D5091230D6091AC
:100FF000240D7091250D0091260D1091270D209143
:10100000280D3091290DC0902A0DD0902B0DE09025
:101010002C0DF0902D0D80E099E00F2EF0E08F2E3A
:10102000F0E09F2EF0E0AF2EF0E0BF2EF02D0E94FA
:10103000C33B40910A0950910B0960910C097091D2
:101040000D0900910E0910910F092091100930919E
:101050001109C0901209D0901309E0901409F09082
:1010600015098090160990901709A0901809B09062
:10107000190980E099E00E9487638AE19DE0D0D75A
:1010800081E08093C7091092C60960911A0D709192
:101090001B0D80911C0D90911D0D0E94B59D7093AC
:1010A000670E6093660E06C080910009882309F0E0
:1010B00094C9A1C928960FB6F894DEBF0FBECDBF64
:1010C000CF91DF911F910F91FF90EF90DF90CF9024
:1010D000BF90AF909F908F907F906F905F904F9058
:1010E00008951F920F920FB60F920BB60F92112414
:1010F0000F931F932F933F934F935F936F937F9320
:101100008F939F93AF93BF93EF93FF936EB54091EF
:1011100002095091030920910409309105090091B9
:1011200006091091070986EC99E00E94EC90FF9166
:10113000EF91BF91AF919F918F917F916F915F914F
:101140004F913F912F911F910F910F900BBE0F90D8
:101150000FBE0F901F901895CF93DF9386E791E114
:1011600040E855E260E070E00E94A49788E991E1D0
:1011700040E855E260E070E00E94A49781E080932F
:10118000000980E090E0A4E3B2E480930E0990931C
:101190000F09A0931009B09311098093120990933D
:1011A0001309A0931409B093150980E090E0A8EC0E
:1011B000B2E48093C2099093C309A093C409B09389
:1011C000C50985E090E09093690E8093680E88E2EF
:1011D00061E00E943F9488E260E00E94F29481E323
:1011E00061E00E943F9481E361E00E94F2948AE012
:1011F0009DE00E94EB89892B29F41092190D109221
:10120000180D0AC080E09DE00E94508E81E090E0C1
:101210009093190D8093180D8091180D9091190DD0
:10122000892B09F045C0C0E0D0E08AE09DE00E9433
:10123000C08760930E0970930F09809310099093F3
:1012400011098AE09DE00E94AC87609312097093B7
:101250001309809314099093150964E170E080E00C
:1012600090E00E947A932196C530D105F1F68091E5
:101270000A0D90910B0D892B09F07FC08AE09DE04B
:101280000E94C0879B01AC0160E070E084EB92E4B7
:101290000E94689C60930E0970930F098093100957
:1012A000909311098AE09DE00E94AC87905842C05B
:1012B000C0E0D0E080E09DE00E94248C60930E09A5
:1012C00070930F09809310099093110980E09DE0BD
:1012D0000E941D8C60931209709313098093140966
:1012E0009093150964E170E080E090E00E947A93A9
:1012F0002196C530D105F1F68091000D9091010D38
:10130000892BD9F580E09DE00E94248C9B01AC01E3
:1013100060E070E084EB92E40E94689C60930E09A8
:1013200070930F09809310099093110980E09DE05C
:101330000E941D8C60931209709313098093140905
:101340009093150980E090E0A0E0B0E080930A0956
:1013500090930B09A0930C09B0930D0981E360E011
:101360000E94F29486EC99E00E941C9186EC99E030
:101370000E944E918AE19DE020D5DF91CF910895A2
:10138000EF92FF920F931F93CF93DF93EC0188A509
:1013900099A5892B09F415C188A599A5079708F087
:1013A00010C102C1C55ADF4F288139814A815B8152
:1013B000CB55D040288339834A835B83C15ADF4FA2
:1013C000E880F9800A811B81CF55D040EC82FD82F4
:1013D0000E831F83C55BDE4F8881CB54D1408130A3
:1013E00009F046C0CA01B90120E030E040E050E415
:1013F0000E94469D8823E1F5C801B7010E94B59D72
:1014000063307105F1F0643071053CF461307105B1
:1014100071F06230710561F50FC065307105D9F06A
:10142000653071059CF06630710511F519C080E0DA
:1014300090E0A0E4B0E418C080E090E0A0E8B0E460
:1014400013C080E090E0A0E8BFE30EC080E090E031
:10145000A0E0B0E409C080E090E0A0ECB0E404C0FB
:1014600080E090E0A0EAB0E48C839D83AE83BF83EC
:10147000CD59DF4F88819981AA81BB81C356D04065
:1014800088879987AA87BB87C959DF4F8881998147
:10149000AA81BB81C756D0408C879D87AE87BF8706
:1014A000C559DF4F88819981AA81BB81CB56D04035
:1014B000888B998BAA8BBB8BC159DF4F888199810F
:1014C000AA81BB81CF56D0408C8B9D8BAE8BBF8BBE
:1014D000CD58DF4F88819981AA81BB81C357D04005
:1014E000888F998FAA8FBB8FC958DF4F88819981C8
:1014F000AA81BB81C757D0408C8F9D8FAE8FBF8F85
:10150000C558DF4F88819981AA81BB81CB57D040D4
:1015100088A399A3AAA3BBA3C158DF4F888199814F
:10152000AA81BB81CF57D0408CA39DA3AEA3BFA3FC
:1015300088A599A5029790F188A599A5079770F5B8
:1015400040E050E008E210E014C088EDE82E8FEF94
:10155000F82EE20EF31EF90181919191A191B191C2
:101560009F01F70180839183A283B3836F5F6A3009
:1015700061F788A599A501974817590778F44F5F37
:101580005F4F409F9001419F300D509F300D1124BF
:10159000255A3F4F2C0F3D1F60E0D7CF88A599A556
:1015A000019799A788A70DC0C85ADF4F8881C855F1
:1015B000D040882309F4F6CE20E030E040EA50E441
:1015C000F9CEDF91CF911F910F91FF90EF90089589
:1015D0002F923F924F925F926F927F928F929F9243
:1015E000AF92BF92CF92DF92EF92FF920F931F9331
:1015F000DF93CF93CDB7DEB7A9970FB6F894DEBFD0
:101600000FBECDBF8C0188E991E10E942B98892BF8
:1016100009F431C289E5E82EF12CE00EF11ED70164
:101620008C918823A9F01BC088E991E10E945E9803
:10163000853A31F4075A1F4F81E0F80180831BC2BD
:10164000853B31F4075A1F4F82E0D8018C9313C2B7
:1016500088E991E10E942B98892B31F70CC28130E7
:1016600009F0D3C0085A1F4FF801108208551040E6
:1016700088E991E10E942B98899708F4FCC1D70171
:101680001C92FE01319689E2DF011D928A95E9F7ED
:101690006F017F01BAE2AB2EB12CAC0EBD1E88E902
:1016A00091E10E945E98F70181937F01EA15FB05A5
:1016B000B1F789A58A3509F0D8C18981882351F409
:1016C0008B81813199F48D81823281F48F818333D2
:1016D00069F4DEC0843451F48B81853539F48D8111
:1016E000863621F48F81873709F4C5C1D8019896D1
:1016F0008D919C91999798968D919C919997069729
:1017000008F0B9C120E030E0F80180A591A5FC0106
:10171000A3E0EE0FFF1FAA95E1F7880F991FE80FCE
:10172000F91FE20FF31FEE0FFF1FEE0FFF1FE55A29
:10173000FF4FE00FF11FD6018C918083F80180A547
:1017400091A5FC0153E0EE0FFF1F5A95E1F7880FBA
:10175000991FE80FF91FE20FF31FEE0FFF1FEE0FA7
:10176000FF1FE55AFF4FE00FF11F11968C91818307
:10177000D80198968D919C919997FC01A3E0EE0F6A
:10178000FF1FAA95E1F7880F991FE80FF91FE20FD5
:10179000F31FEE0FFF1FEE0FFF1FE55AFF4FE00F85
:1017A000F11FD60112968C9112978283F80180A5C1
:1017B00091A5FC0153E0EE0FFF1F5A95E1F7880F4A
:1017C000991FE80FF91FE20FF31FEE0FFF1FEE0F37
:1017D000FF1FE55AFF4FE00FF11F13968C91838393
:1017E0002F5F3F4F84E090E0C80ED91E2A303105AC
:1017F00009F08ACFD80198968D919C91999701967E
:1018000099969C938E93989736C1823009F033C194
:1018100080E090E0A0EAB0E4F80180839183A283A5
:10182000B383085A1F4F81E0D8018C9308551040AC
:1018300088E991E10E942B98899708F41CC1F7016F
:101840001082FE01319689E2DF011D928A95E9F747
:101850007F01EAE2CE2ED12CCC0EDD1E88E991E18B
:101860000E945E98F70181937F01EC15FD05B1F7A9
:1018700089A58B3509F0F9C089818823B1F48B8162
:101880008131F9F48D818232E1F48F818333C9F49F
:10189000F801EE5AFF4F80819181892B09F0EBC04E
:1018A00081E090E091838083E6C0843451F48B81A1
:1018B000853539F48D81863621F48F81873709F497
:1018C000DAC00A5A1F4FD8011D921C92F8011292D9
:1018D00012928F010455104077EFC72E76E0D72E75
:1018E000EE24FF245E010894A11CB11CD6016D9169
:1018F0007C91C5010E947601E8E0F0E0CE0EDF1E8B
:10190000009799F1F70163E0EE0FFF1F6A95E1F789
:10191000E750F94F6081718186E791E10E94659BF4
:10192000D801AC5ABF4F53E0EE0CFF1C5A95E1F7BB
:10193000F701E550F94F808191812D913C911197EC
:10194000820F931F8D939C930A5A1F4F87EF96E047
:10195000E80EF91ED70116968D919C911797F80104
:10196000918380830655104008C00894E11CF11C47
:10197000F0E1EF16F10409F0B9CF86E791E160E2FA
:101980000E94469A37E7A32E37E0B32E2FE7822E28
:1019900027E0922E94E5292E312C200E311E38C0DE
:1019A000D4014D905C90F501E080F180CC24DD24E1
:1019B00026C03701D7016D917C91CE0101960E941E
:1019C0007601E8E0F0E0EE0EFF1E0097A9F0D301EB
:1019D00012966D917C91139786E791E10E94659B29
:1019E000F30184819581D1012D913C911197820F52
:1019F000931F8D939C9306C00894C11CD11CC414E2
:101A0000D504BCF2E2E0F0E0AE0EBF1E8E0E9F1ECB
:101A1000FFE7AF16F7E0BF0619F60A5A1F4FD801C5
:101A20002D913C9106551040C9010797029758F037
:101A3000232B79F00C5A1F4FD8018D919C9104559E
:101A40001040892B31F0F80180A591A5019691A74E
:101A500080A70C5A1F4FD8016D917C9186E791E1C8
:101A60004AE050E00E94369B06C086E791E160E0C4
:101A700072E00E94499CA9960FB6F894DEBF0FBE93
:101A8000CDBFCF91DF911F910F91FF90EF90DF902D
:101A9000CF90BF90AF909F908F907F906F905F900E
:101AA0004F903F902F900895AF92BF92CF92DF92C8
:101AB000EF92FF920F931F93DF93CF93CDB7DEB7D3
:101AC000A9970FB6F894DEBF0FBECDBF7C0186E7A5
:101AD00091E10E942B98892B09F44FC18701075A85
:101AE0001F4FD8018C91882381F016C086E791E1C1
:101AF0000E945E98853A910541F4E9E5F0E0EE0E2A
:101B0000FF1E81E0D7018C9338C186E791E10E94E6
:101B10002B98892B59F731C186E791E10E942B98C8
:101B2000899709F0E9C080916A0E90916B0E019639
:101B300090936B0E80936A0EF8011082FE0131962D
:101B400089E2DF011D928A95E9F76F018F01EAE2D0
:101B5000AE2EB12CAC0EBD1E86E791E10E945E98C0
:101B6000F80181938F01EA15FB05B1F789A58A3544
:101B700009F0B4C089818823B1F48B818131F9F4F3
:101B80008D818232E1F48F818333C9F4F701EE5AFB
:101B9000FF4F80819181892B09F0A9C081E090E0FD
:101BA00091838083A4C0843451F48B81853539F4CA
:101BB0008D81863621F48F81873709F498C0D7014B
:101BC00098968D919C91999798968D919C919997C3
:101BD000069708F08CC020E030E0F70180A591A5C1
:101BE000FC0173E0EE0FFF1F7A95E1F7880F991F54
:101BF000E80FF91FE20FF31FEE0FFF1FEE0FFF1F9D
:101C0000E55AFF4FEE0DFF1DD6018C918083F70141
:101C100080A591A5FC0143E0EE0FFF1F4A95E1F777
:101C2000880F991FE80FF91FE20FF31FEE0FFF1F38
:101C3000EE0FFF1FE55AFF4FEE0DFF1D11968C9121
:101C40008183D70198968D919C919997FC01A3E08F
:101C5000EE0FFF1FAA95E1F7880F991FE80FF91FF4
:101C6000E20FF31FEE0FFF1FEE0FFF1FE55AFF4FAE
:101C7000EE0DFF1DD60112968C9112978283F7010B
:101C800080A591A5FC0153E0EE0FFF1F5A95E1F7E7
:101C9000880F991FE80FF91FE20FF31FEE0FFF1FC8
:101CA000EE0FFF1FE55AFF4FEE0DFF1D13968C91AF
:101CB00083832F5F3F4F84E090E0C80ED91E2A3007
:101CC000310509F08ACFD70198968D919C9199970B
:101CD000019699969C938E93989709C080916C0E6B
:101CE00090916D0E019690936D0E80936C0E6091A5
:101CF0006A0E70916B0E1BC086E791E10E942B98D3
:101D00008A97DCF1F801108260916A0E70916B0E77
:101D10006F5F7F4F70936B0E60936A0E80916E0EB3
:101D200090916F0E019690936F0E80936E0E88E9DE
:101D300091E14AE050E00E94369B88E991E160E140
:101D400072E00E94659B60916C0E70916D0E88E947
:101D500091E14AE050E00E94369B88E991E160E120
:101D600072E00E94659B60916E0E70916F0E88E923
:101D700091E14AE050E00E94489BA9960FB6F89482
:101D8000DEBF0FBECDBFCF91DF911F910F91FF90AE
:101D9000EF90DF90CF90BF90AF900895FC01E55B8E
:101DA000FE4F8081EB54F140882311F4CF017CCEAB
:101DB000813011F4CF010CCC08950F931F938C0147
:101DC0000E5A1F4FF80111821082095F1F4FF80150
:101DD000108209551040F80111A610A6065A1F4F8F
:101DE000F80110820A55104080E090E0A0E0B0E0D9
:101DF000F80180839183A283B38384839583A68330
:101E0000B78380879187A287B38784879587A687C2
:101E1000B787808B918BA28BB38B848B958BA68B92
:101E2000B78B808F918FA28FB38F848F958FA68F62
:101E3000B78F80A391A3A2A3B3A384A395A3A6A3C2
:101E4000B7A380E360E00E943F9480E30E94249562
:101E5000F801E55BFE4F1082892B11F081E0808351
:101E60001F910F910895EF92FF920F931F93CF93BD
:101E7000DF93EC01FC01E65AFF4F80818F5F808386
:101E8000813019F0853009F04FC06AA57BA58CA57B
:101E90009DA520E030E04AE754E40E94699C6AA7CF
:101EA0007BA78CA79DA789E20E942495C65BDF4F84
:101EB000AA2797FDA095BA2FBC01CD010E94E89DED
:101EC000688379838A839B83CA54D04088E991E1EF
:101ED00065EA0E9497988E01065D1F4FF4E2EF2E8F
:101EE000F12CE00EF11EF80161918F01772767FD5B
:101EF000709588E991E10E9497980E151F0599F752
:101F000088E991E16AE50E9497986AA57BA58CA56E
:101F10009DA520E030E04AE754E40E94689C6AA74F
:101F20007BA78CA79DA734C0833079F588A599A598
:101F3000069770F589E20E942495C65BDF4FAA27B9
:101F400097FDA095BA2FBC01CD010E94E89D688342
:101F500079838A839B8388E991E165EA0E94979857
:101F6000A0978E010C5D1F4F6991772767FD7095D3
:101F700088E991E10E949798C017D107A9F788E9ED
:101F800091E16AE50E94979803C0883009F41082B5
:101F9000DF91CF911F910F91FF90EF9008950F93D4
:101FA0001F93CF93DF93EC0188A599A5049798F52B
:101FB000FE01E65AFF4F80818F5F808384305CF1A1
:101FC000108289E20E942495C65BDF4FAA2797FD05
:101FD000A095BA2FBC01CD010E94E89D688379834A
:101FE0008A839B8386E791E165EA0E949798A09790
:101FF0008E01085D1F4F6991772767FD709586E711
:1020000091E10E949798C017D107A9F786E791E15F
:102010006AE50E949798DF91CF911F910F910895E3
:10202000FC01E55BFE4F8081EB54F140882311F405
:10203000CF01B5CF813011F4CF0115CF08956F9244
:102040007F928F929F92AF92BF92CF92DF92EF9248
:10205000FF920F931F93FC01E555FD4F20E030E008
:1020600040E050E021933193419351932193319378
:102070004193519321933193419351932193319300
:10208000419351932083318342835383EB5BF2402E
:102090000F2EF0E0AF2EF0E0BF2EF8E4CF2EF3E4E9
:1020A000DF2EF02DA6A2B7A2C0A6D1A6A2A6B3A6E7
:1020B000C4A6D5A6A6A6B7A6C0AAD1AAA2AAB3AA04
:1020C000C4AAD5AA0F2EF0E06F2EF0E07F2EF8EC18
:1020D0008F2EF2E49F2EF02D668E778E80A291A235
:1020E000A2A2B3A2C4A2D5A2A6AAB7AAC0AED1AEDC
:1020F000A2AEB3AEC4AED5AEFE96A192B192C192DD
:10210000D192A082B182C282D382E057FE4F0F2EBD
:10211000F0E0EF2EF0E0FF2EF0E80F2FFFEB1F2F87
:10212000F02DE192F1920193119380E090E0A0E80C
:10213000BFE381939193A193B193E082F1820283F3
:102140001383EC5EFE4F11821082E052F1408AE070
:1021500097EDA3EABCE380839183A283B383EE5C13
:10216000F14010821182EE54FE4F86E696E6A6EE0E
:10217000BFE381939193A193B19380E090E0A0E8B5
:10218000B1E481939193A193B19381939193A1939E
:10219000B19381939193A193B1930F2EF0E0EF2E21
:1021A000F0E0FF2EF0E20F2FF1E41F2FF02DE1926F
:1021B000F19201931193E192F19201931193E082D4
:1021C000F18202831383E350FF4F208331834283E4
:1021D00053833897219331934193519320833183D3
:1021E0004283538338962083318342835383E55C53
:1021F000F040219331934193519321933193419333
:10220000519321933193419351932083318342839E
:102210005383E251F2401382128215821482178294
:10222000168211861086E250FE4F11921192119281
:10223000119211921192118210827697219331930B
:10224000419351932193319341935193219331932E
:10225000419351932083318342835383EC55F04063
:1022600080E090E0A7E0B3E481939193A193B193D0
:1022700080E090E0A0E2B3E480839183A283B38303
:10228000389620833183428353835293429332930F
:10229000229338962083318342835383E25AF0405D
:1022A0008EEA97E4ACE5B2E480839183A283B383A2
:1022B000EC50F140228733874487558780E090E0D7
:1022C000A3E8B2E486879787A08BB18B80E090E08B
:1022D000AEE7B2E4828B938BA48BB58B268B378BC6
:1022E000408F518FE252FE4F21933193419351938E
:1022F000219331934193519321933193419351937E
:102300002083318342835383EE5BFE4F21933193CD
:102310004193519380E090E0A0EAB1E481939193DE
:10232000A193B19380839183A283B383EE5DF24046
:1023300080E090E0A0E7B1E481939193A193B19301
:1023400081939193A193B19381939193A193B1932D
:1023500080E090E0A0EFB1E481939193A193B193D9
:1023600020E030E048E452E42193319341935193CB
:1023700021933193419351932193319341935193FD
:10238000219331934193519380E090E0A0E7B2E430
:1023900081939193A193B19381939193A193B193DD
:1023A00081939193A193B19381939193A193B193CD
:1023B00081939193A193B19381939193A193B193BD
:1023C00081939193A193B19380839183A283B383EB
:1023D000E857FE4F208331834283538379962083CD
:1023E000318342835383799620833183428353839D
:1023F00079962083318342835383FB97A082B182F5
:10240000C282D3827996A082B182C282D382799627
:10241000A082B182C282D3827996A082B182C28226
:10242000D382E35BF1406082718282829382E057C3
:10243000F040E082F18202831383EF56FD4F119248
:10244000119211921082329611821082EA59F24052
:10245000A082B182C282D382389780E090E0A0E06F
:10246000BFE381939193A193B19380839183A283DE
:10247000B383E45BFF4F80839183A283B383E658E9
:10248000FF4F80E090E0A0EFB1EC80839183A283C6
:10249000B3831F910F91FF90EF90DF90CF90BF908B
:1024A000AF909F908F907F906F900895CF93DF9320
:1024B000FC019C0126563F4FE252FE4F80819181E4
:1024C000A281B381EE5DF140E90188839983AA83FB
:1024D000BB839F0122563F4FEE51FE4F8081918179
:1024E000A281B381E25EF140E90188839983AA83E6
:1024F000BB839F012E553F4FEA51FE4F8081918152
:10250000A281B381E65EF140E90188839983AA83C1
:10251000BB839F012A553F4FE651FE4F8081918139
:10252000A281B381EA5EF140E90188839983AA839D
:10253000BB8382859385A485B585E255FF4F808353
:102540009183A283B383EE5AF04086859785A08954
:10255000B189EE54FF4F80839183A283B383E25B02
:10256000F04082899389A489B589EA54FF4F80831A
:102570009183A283B383E65BF04086899789A08D1F
:10258000B18DE654FF4F80839183A283B383EA5BCE
:10259000F040828D938DA48DB58DE254FF4F8083E2
:1025A0009183A283B383DF91CF9108950F931F93FB
:1025B000CF93DF93EB0108891989101611060CF5EA
:1025C0006AA17BA18CA19DA12AE037ED43EA5CE3DF
:1025D0000E94369F6E8F7F8F88A399A36AA17BA1EB
:1025E0008CA19DA12E893F89488D598D0E94699C9F
:1025F0006AA37BA38CA39DA301501040198B088B69
:1026000039C00A891B89101611069CF46AA17BA1A6
:102610008CA19DA12AE037ED43EA5CE30E94369F3E
:102620006E8F7F8F88A399A3015010401B8B0A8B5C
:1026300021C00C891D8910161106E4F46AA17BA142
:102640008CA19DA12E893F89488D598D0E94689C3F
:102650006AA37BA38CA39DA32AE037ED43EA5CE346
:102660000E94369F6E8F7F8F88A399A301501040E0
:102670001D8B0C8B40E050E08A899B892889398921
:10268000820F931F2C893D89820F931F892B11F490
:1026900041E050E0CA01DF91CF911F910F91089561
:1026A0008F929F92AF92BF92CF92DF92EF92FF9262
:1026B0000F931F93CF93DF93EC018B01685B7F4FE8
:1026C00075DF4C01E6E6CE2ED12CC00ED11EF601F0
:1026D0006081718182819381F801208531854285F5
:1026E00053850E94369FF80120A531A542A553A528
:1026F0000E944D9D9B01AC01F80164AF75AF86AFA0
:1027000097AF76E7A72EB12CA00EB11EF501608120
:102710007181828193810E94699CF501608371833C
:1027200082839383F6016081718182819381F801B4
:1027300024853585468557850E94369FF80120A55A
:1027400031A542A553A50E944D9D9B01AC01005CA3
:102750001F4FF8016083718382839383005410407C
:102760006AE7E62EF12CE00EF11EF701608171811F
:10277000828193810E94699CF701608371838283C7
:102780009383F6016081718182819381F8012089B0
:102790003189428953890E94369FF80120A531A5CD
:1027A00042A553A50E944D9D9B01AC010C5B1F4FA0
:1027B000F8016083718382839383065C1F4FF80165
:1027C00060817181828193810E94699CF80160839C
:1027D000718382839383C450DD4F688179818A81BC
:1027E0009B81F50120813181428153810E94689C47
:1027F000C25BDF4F688379838A839B83CA54D3404B
:10280000C050DD4F688179818A819B81F7012081E9
:102810003181428153810E94699CC25BDF4F688392
:1028200079838A839B83CE54D340CC5FDC4F68810D
:1028300079818A819B81F801208131814281538194
:102840000E94699CC25BDF4F688379838A839B8384
:10285000C255D3408114910489F081E088831982A4
:10286000CC51DC4F88819981AA81BB818093A60ECF
:102870009093A70EA093A80EB093A90EC401DF9168
:10288000CF911F910F91FF90EF90DF90CF90BF906D
:10289000AF909F908F9008952F923F924F925F92AA
:1028A0006F927F928F929F92AF92BF92CF92DF9260
:1028B000EF92FF920F931F93DF93CF93CDB7DEB7C5
:1028C0006E970FB6F894DEBF0FBECDBF9B012259A5
:1028D0003F4FD901ED90FD900D911C911397AE568D
:1028E000B040BE8FAD8F82E8C82ED12CCA0EDB1E41
:1028F000F6016081718182819381A80197010E9414
:102900002B9F181634F4D601ED92FD920D931C9373
:102910001397ED8DFE8DE259FF4FE080F18002812B
:102920001381EE56F040FE8FED8FAAE8CA2ED12C0F
:10293000CE0EDF1ED6016D917D918D919C91A801E7
:1029400097010E942B9F18162CF4F601E082F18269
:10295000028313832D8D3E8D22593F4F3E8F2D8F45
:10296000D9012D903D904D905C90C201B101A20122
:1029700091010E94369F6093780E7093790E809338
:102980007A0E90937B0EED8DFE8D7496FE8FED8FFB
:102990006080718082809380C401B301A40193019F
:1029A0000E94369F60937C0E70937D0E80937E0E06
:1029B00090937F0E2D8D3E8D285F3F4FD9018D91D5
:1029C0009D910D90BC91A02D8D839E83AF83B88780
:1029D0002A5830403E8F2D8FBC01CD019B01AC01A8
:1029E0000E94369F6093800E7093810E8093820EBA
:1029F0009093830EED8DFE8D60A571A582A593A5A4
:102A000027E137EB41ED58E30E942B9F18160CF09D
:102A100035C7E090780EF090790E00917A0E109103
:102A20007B0E60917C0E70917D0E80917E0E909158
:102A30007F0EA090800EB090810EC090820ED0903C
:102A4000830E20E030E040E05FEB0E94369F9B0168
:102A5000AC01C801B7010E94699C7B018C01C601D1
:102A6000B50120E030E040E05FEB0E94369F9B0123
:102A7000AC01C801B7010E94699CAD8DBE8D9C96CA
:102A80002D913D914D915C919F970E944D9D60933A
:102A9000700E7093710E8093720E9093730E60910E
:102AA000700E7091710E8091720E9091730EED8D7B
:102AB000FE8D20A531A542A553A50E94469D18165E
:102AC0000CF482C02D8D3E8D2A573F4FD9012D9297
:102AD0003D924D925C921397A658B040BE8FAD8F39
:102AE0002091700E3091710E4091720E5091730EC4
:102AF00098966D917D918D919C919B970E94689C79
:102B00007B018C01C201B1012AE037ED43EA5CE3AD
:102B10000E94369F9B01AC01C801B7010E944D9DE8
:102B200020E030E040E05FE30E94699C0E94B59D98
:102B3000ED8DFE8DE65AFF4F71836083EA55F040BC
:102B4000FE8FED8FC201B101A40193010E94689C28
:102B50000D8D1E8D025A1F4FD8012D913D914D9123
:102B60005C910E944D9D20E030E040E05FE30E94D8
:102B7000699C0E94B59DED8DFE8DE85AFF4F7183D3
:102B800060833496FE8FED8FC201B1012D813E81AD
:102B90004F8158850E94689CD8012D913D914D919F
:102BA0005C910E944D9D20E030E040E05FE30E9498
:102BB000699C0E94B59DED8DFE8D71836083EC55FF
:102BC000F040FE8FED8F55C26091800E7091810EA6
:102BD0008091820E9091830E20917C0E30917D0E1B
:102BE00040917E0E50917F0E0E94689C20E030E064
:102BF00040E05FE30E94369FAD8DBE8D9C962D9187
:102C00003D914D915C919F970E944D9D6093740EF4
:102C10007093750E8093760E9093770EED8DFE8DEA
:102C200020A431A442A453A4E090740EF090750E39
:102C30000091760E1091770EC801B70120E030E0C8
:102C400040E050E00E94469D882324F417FB109535
:102C500017F91095C201B101A80197010E94469D84
:102C600018160CF4ABC06091740E7091750E8091C3
:102C7000760E9091770E20E030E040E050E00E9428
:102C80002B9FE2E86E2E712C2D8D3E8D620E731EF1
:102C90007AE8872E912C820E931E66E8C62ED12CE0
:102CA000C20ED31E265A3F4F388F2F8B4D8D5E8D0F
:102CB000485A5F4F5A8F498F5EE5A52EB12CAD8DD6
:102CC000BE8DAA0EBB1EA45ABF4FBC8FAB8FED8D1D
:102CD000FE8D24A535A546A557A588230CF444C030
:102CE000E0907C0EF0907D0E00917E0E10917F0E94
:102CF000CA01B9010E94699CA20191010E94369FFC
:102D0000A80197010E94699C0E94A39FD6016D9320
:102D10007D938D939C931397F401608371838283D9
:102D20009383AF89B88D1D921C92F301208131816C
:102D3000428153810E94689CD5012D913D914D9116
:102D40005C910E944D9D20E030E040E05FE30E94F6
:102D5000699C0E94B59DE98DFA8D71836083AB8D6E
:102D6000BC8D1D921C9285C1E090800EF090810E6A
:102D70000091820E1091830ECA01B9010E94699CD4
:102D8000A20191010E94369FA80197010E94699CAF
:102D90000E94A39FF6016083718382839383D30192
:102DA0006D937D938D939C931397EF89F88D11828A
:102DB0001082A98DBA8D1D921C9241C12D8D3E8D20
:102DC0002E573F4FD9018D919D910D90BC91A02D13
:102DD00089839A83AB83BC83225830403E8F2D8FEA
:102DE000F901E259FF4F60817181828193812DEC5D
:102DF0003CEC4CEC5DE30E94369F7B018C016981C9
:102E00007A818B819C81A80197010E94469D88232D
:102E10000CF0A9C0ED8DFE8DE657FF4FFA8BE98BC4
:102E20006081718182819381A80197010E94469DF2
:102E300088230CF098C0A0907C0EB0907D0EC090BE
:102E40007E0ED0907F0E6090800E7090810E8090EC
:102E5000820E9090830EC201B101AD8DBE8D9C9605
:102E60002D913D914D915C919F970E94369F7B01E2
:102E70008C01C601B50120E030E040E05FE30E9434
:102E8000369F9B01AC01C801B7010E94699C7B0180
:102E90008C01C401B30120E030E040E05FE30E9418
:102EA000369F9B01AC01C801B7010E94699C0E943A
:102EB000A39F7B018C01ED8DFE8DEA57FF4FDF0153
:102EC0006D937D938D939C931397A658B040BE8FBE
:102ED000AD8F29813A814B815C810E94689C4EE5CF
:102EE000C42ED12CED8DFE8DCE0EDF1ED6012D9180
:102EF0003D914D915C910E944D9D20E030E040E07D
:102F00005FE30E94699C0E94B59DED8DFE8DE85A9D
:102F1000FF4F71836083329611921192FE8FED8F75
:102F2000C801B701A989BA892D913D914D915C9154
:102F30000E94689CF60120813181428153810E9468
:102F40004D9D20E030E040E05FE30E94699C0E94DC
:102F5000B59DAD8DBE8D11967C936E93AC55B040F2
:102F6000BE8FAD8F86C06091740E7091750E80918A
:102F7000760E9091770E20E030E040E050E00E9425
:102F80002B9F32E8632E712CED8DFE8D6E0E7F1E11
:102F90002AE8822E912C8E0E9F1E96E8C92ED12CE7
:102FA000CE0EDF1EE85AFF4FFA8FE98F0EE5A02EF6
:102FB000B12C2D8D3E8DA20EB31E245A3F4F3C8F57
:102FC0002B8F88234CF1D4016D917D918D919C9133
:102FD000F6016083718382839383D3012D913D91A8
:102FE0004D915C910E94689CF50120813181428164
:102FF00053810E944D9D20E030E040E05FE30E945D
:10300000699C0E94B59DA98DBA8D6D937C93EB8DC3
:10301000FC8D118210822DC029813A814B815C8107
:10302000D6012D933D934D935C931397E98DFA8DC3
:1030300011821082D3016D917D918D919C91F4014B
:1030400020813181428153810E94689CD5012D915C
:103050003D914D915C910E944D9D20E030E040E01B
:103060005FE30E94699C0E94B59DEB8DFC8D71838E
:1030700060832D8D3E8D285A3F4FD9018D919C91B3
:1030800011979093990E8093980E14968D919D911F
:1030900090939D0E80939C0EFD0180819181A28171
:1030A000B3818093A20E9093A30EA093A40EB0932D
:1030B000A50EB49680819181A281B381E258F0403F
:1030C000FE8FED8F80939E0E90939F0EA093A00E87
:1030D000B093A10E6091980E7091990EA0909E0EE3
:1030E000B0909F0EC090A00ED090A10EE090980ED0
:1030F000F090990E6090A20E7090A30E8090A40E96
:103100009090A50E882777FD8095982F0E94E89DC6
:103110001B012C01C601B501A60195010E94699C05
:103120005B016C010894E108F1080027F7FC0095A9
:10313000102FC801B7010E94E89DA40193010E94CD
:10314000369F9B01AC01C601B5010E94699C9B01A1
:10315000AC01C201B1010E94369F2AE037ED43EA7B
:103160005CE30E94369F20E030E040E05FE30E9495
:10317000369F6093840E7093850E8093860E909395
:10318000870E8091980E9091990E181619060CF0E2
:1031900071C060919C0E70919D0E60909E0E70901B
:1031A0009F0E8090A00E9090A10EE090980EF0904F
:1031B000990E2090A20E3090A30E4090A40E509035
:1031C000A50EA0909C0EB0909D0E2091A20E309165
:1031D000A30E4091A40E5091A50E2D873E874F87D8
:1031E000588B882777FD8095982F0E94E89D6B8BE0
:1031F0007C8B8D8B9E8BC401B301A40193010E9433
:10320000699C3B014C010894E108F108EE0CFF1C9D
:103210000027F7FC0095102FC801B7010E94E89D18
:10322000A20191010E94369F9B01AC01C401B30130
:103230000E94699C7B018C010894A108B108CC24F0
:10324000B7FCC094DC2CC601B5010E94E89D2D8519
:103250003E854F8558890E94369F9B01AC01C8016D
:10326000B7010E94689C9B01AC016B897C898D89A8
:103270009E8941C060919C0E70919D0EA0909E0E03
:10328000B0909F0EC090A00ED090A10EE0909C0E2A
:10329000F0909D0E6090A20E7090A30E8090A40EF0
:1032A0009090A50E882777FD8095982F0E94E89D25
:1032B0001B012C01C601B501A60195010E94699C64
:1032C0005B016C010894E11CF11C0027F7FC0095E0
:1032D000102FC801B7010E94E89DA40193010E942C
:1032E000369F9B01AC01C601B5010E94689C9B0101
:1032F000AC01C201B1010E94369F2AE037ED43EADA
:103300005CE30E94369F20E030E040E05FE30E94F3
:10331000369F60938C0E70938D0E80938E0E9093DB
:103320008F0E2091840E3091850E4091860E509123
:10333000870EA0908C0EB0908D0EC0908E0ED09007
:103340008F0E20909E0E30909F0E4090A00E5090B9
:10335000A10EE090980EF090990E6090A20E7090E1
:10336000A30E8090A40E9090A50EAD8DBE8D989664
:103370006D917D918D919C919B970E94689CA60177
:1033800095010E94689C20E030E048E452E40E94ED
:10339000369F5B016C010027F7FC0095102FC801D8
:1033A000B7010E94E89DA40193010E94369F9B01F2
:1033B000AC01C201B1010E94699C9B01AC01C60134
:1033C000B5010E944D9D0E94B59D9B01ED8DFE8D26
:1033D000E65AFF4F7183608370939B0E60939A0E41
:1033E0004D8D5E8D485A5F4FDA018D919C911197FA
:1033F000820F931F14962D913C911197AC55B040BC
:10340000BE8FAD8F820F931F892B21F481E090E056
:1034100091838083ED8DFE8DE65AFF4FA080B180B1
:10342000EA55F040FE8FED8FB0929B0EA0929A0E5F
:1034300060919A0E70919B0E20919E0E30919F0E7E
:103440004091A00E5091A10E29873A874B875C8747
:10345000E090980EF090990E6090A20E7090A30EDE
:103460008090A40E9090A50E882777FD8095982FC8
:103470000E94E89D1B012C010027F7FC0095102FEE
:10348000C801B7010E94E89DA40193010E94369FE4
:103490009B01AC0169857A858B859C850E94699C1E
:1034A0009B01AC01C201B1010E94369F2AE037EDB9
:1034B00043EA5CE30E94369F6093880E7093890E06
:1034C00080938A0E90938B0E6091840E7091850E7E
:1034D0008091860E9091870E2091880E3091890EF2
:1034E00040918A0E50918B0EE0908C0EF0908D0ED4
:1034F00000918E0E10918F0E0E94699CA801970179
:103500000E94699C6093900E7093910E8093920E2E
:103510009093930E2091900E3091910E4091920EC7
:103520005091930EAD8DBE8D98966D917D918D913C
:103530009C919B970E94689C6093940E7093950E4B
:103540008093960E9093970EED8DFE8DE85AFF4F67
:1035500080819181A80EB91E349680819181A80E38
:10356000B91ECC24B7FCC094DC2C3897FE8FED8FAD
:10357000A082B182C282D3826091940E7091950E26
:103580008091960E9091970E20E030E048E452E44E
:103590000E94369F7B018C01C601B5010E94E89D07
:1035A0009B01AC01C801B7010E944D9D7B018C01BC
:1035B000ED8DFE8D7E96DF016D937D938D939C93B3
:1035C0001397A257B040BE8FAD8F20E030E040E0AF
:1035D00050E00E942B9F181624F017FB109517F946
:1035E00010952091A20E3091A30E4091A40E5091FF
:1035F000A50EC801B7010E942B9F1816A4F4809154
:10360000A20E9091A30EA091A40EB091A50EED8DE7
:10361000FE8DEE58FF4F80839183A283B383E257E0
:10362000F040FE8FED8F8091980E9091990E1816B4
:1036300019060CF044C180919C0E90919D0E1816B5
:1036400019060CF03CC160909E0E70909F0E809009
:10365000A00E9090A10E6091980E7091990EA0907E
:10366000A20EB090A30EC090A40ED090A50EE09034
:103670009C0EF0909D0E2090A20E3090A30E4090D4
:10368000A40E5090A50E882777FD8095982F0E9454
:10369000E89DA60195010E94369F9B01AC01C401E3
:1036A000B3010E94699C5B016C010027F7FC009547
:1036B000102FC801B7010E94E89DA20191019FC08F
:1036C00080919C0E90919D0E892B09F0FFC0609116
:1036D0009E0E70919F0E8091A00E9091A10EED8D87
:1036E000FE8DEE58FF4FFE8FED8F2081318142819C
:1036F00053810E94699C2D8D3E8D285E3F4FD901DC
:1037000097C080919A0E90919B0EBAE88B2E912CC7
:10371000ED8DFE8D8E0E9F1EA2E76A2E712C6E0E11
:103720007F1E18161906BCF0A0909E0EB0909F0E3A
:10373000C090A00ED090A10E6091980E7091990E3D
:10374000E090A20EF090A30E0091A40E1091A50E91
:103750006150704014C0A0909E0EB0909F0EC0901B
:10376000A00ED090A10E6091980E7091990EE090ED
:10377000A20EF090A30E0091A40E1091A50E882722
:1037800077FD8095982F0E94E89DA80197010E94DF
:10379000369F9B01AC01C601B5010E94699CD30113
:1037A0002D913D914D915C910E94699CF401608343
:1037B00071838283938345C08091980E9091990E76
:1037C00018161906F4F1A0909E0EB0909F0EC090AE
:1037D000A00ED090A10E60919C0E70919D0EE09075
:1037E000A20EF090A30E0091A40E1091A50E8827B2
:1037F00077FD8095982F0E94E89DA80197010E946F
:10380000369F9B01AC01C601B5010E94689C2D8DBD
:103810003E8D2E583F4F3E8F2D8FD9012D913D91DA
:103820004D915C910E94699CED8DFE8D7896DF0133
:103830006D937D938D939C931397AA58B040BE8F40
:10384000AD8FED8DFE8DEE58FF4F2D8D3E8D2E5799
:103850003F4F3E8F2D8FD9016D917D918D919C9120
:1038600020813181428153810E94699CED8DFE8DC2
:103870007897608371838283938331C0ED8DFE8D51
:10388000E45BFF4FDF0110821182128213821C96CB
:1038900011961C921E92FD01129212921292129295
:1038A00036961192119211821082749780E590E001
:1038B00081939193FE8FED8F9183808310C08091CF
:1038C000980E9091990E892B09F4FACE80919C0E56
:1038D00090919D0E181619060CF46ECF12CF6E96AD
:1038E0000FB6F894DEBF0FBECDBFCF91DF911F9111
:1038F0000F91FF90EF90DF90CF90BF90AF909F908F
:103900008F907F906F905F904F903F902F90089591
:103910002F923F924F925F926F927F928F929F92DF
:10392000AF92BF92CF92DF92EF92FF920F931F93CD
:10393000DF93CF93CDB7DEB768970FB6F894DEBFAD
:103940000FBECDBF1C014D875E876F87788BC90185
:10395000B8012EE931E0220E331EF101219131919F
:10396000419151912D833E834F835887219131910D
:10397000419151911F0129833A834B835C8320E05D
:1039800030E044E353E40E944D9D29EF3FE049E4D9
:1039900050EC0E94369F29EF3FE049EC5FE30E9424
:1039A000699C2B013C01C701B60120E030E044E3F3
:1039B00053E40E944D9D29EF3FE049E450E40E940A
:1039C000369F698B7A8B8B8B9C8BB201C3010E94D3
:1039D0004A9D7B018C0129893A894B895C89B9010F
:1039E000CA010E944A9D69877A878B879C876D816F
:1039F0007E818F819885A80197010E94369F7B0167
:103A00008C0169817A818B819C8129853A854B85DE
:103A10005C850E94369F9B01AC01C801B7010E94E2
:103A2000699CF10120813181428153810E94699C0E
:103A300026E63FEF220E331EF101208131814281C3
:103A400053810E94699C6D8B7E8B8F8B988FB20106
:103A5000C3010E94999F7B018C0129893A894B8976
:103A60005C89B901CA010E94999F2B013C016D81BB
:103A70007E818F819885A80197010E94369F7B01E6
:103A80008C0169817A818B819C81A30192010E94C2
:103A9000369F9B01AC01C801B7010E94689C2EE9CA
:103AA00030E0220E331EF10121913191419151916B
:103AB0001F010E94699CF101208131814281538163
:103AC0000E94689C2B013C016D857E858F859889BD
:103AD00020E030E044E353E40E944D9D29EF3FE0B5
:103AE00049E450E40E94369F7B018C01C8010E948A
:103AF0004A9D9B01AC016D897E898F89988D0E94BA
:103B0000369FEEA5FFA56083718382839383B701FF
:103B1000C8010E94999F9B01AC016D897E898F89A4
:103B2000988D0E94369FEEA5FFA5648375838683DA
:103B30009783C201D30180879187A287B387C5018C
:103B4000B4012D853E854F8558890E94699CEEA55C
:103B5000FFA5648775878687978768960FB6F89460
:103B6000DEBF0FBECDBFCF91DF911F910F91FF90B0
:103B7000EF90DF90CF90BF90AF909F908F907F900D
:103B80006F905F904F903F902F9008952F923F92AB
:103B90004F925F926F927F928F929F92AF92BF925D
:103BA000CF92DF92EF92FF920F931F93DF93CF9309
:103BB000CDB7DEB7C854D0400FB6F894DEBF0FBE05
:103BC000CDBF2C0149AF5AAF6BAF7CAF21960CAF84
:103BD0001DAF2EAF3FAF21972596CCAEDDAEEEAE3A
:103BE000FFAE259729968CAE9DAEAEAEBFAE29979F
:103BF0002EEC31E0420E531EF201E080F180028192
:103C0000138122E33EEF420E531ECB01BA01A801FD
:103C100097010E94369FF2012285338544855585A0
:103C20000E94699C6DAB7EAB8FAB98AF21966CAD5B
:103C30007DAD8EAD9FAD2197A80197010E94369F63
:103C4000F20126853785408951890E94699C69ABBC
:103C50007AAB8BAB9CAB25966CAD7DAD8EAD9FAD3D
:103C60002597A80197010E94369FF2012289338986
:103C7000448955890E94699C6DA77EA78FA798AB40
:103C8000C501B401A80197010E94369FF20126895F
:103C90003789408D518D0E94699C69A77AA78BA7AF
:103CA0009CA70F920F92CE010196EDB7FEB79283BB
:103CB0008183C2014DA95EA96FA978AD09A91AA98E
:103CC0002BA93CA9CDA4DEA4EFA4F8A889A49AA4AA
:103CD000ABA4BCA41DDEE980FA800B811C81AD8001
:103CE000BE80CF80D8840F900F906DA97EA98FA938
:103CF00098AD20E030E044E353EC0E94469D8823D9
:103D000064F469AD7AAD8BAD9CAD20E030E040E06D
:103D100050E00E94469D87FD06C16DA97EA98FA92E
:103D200098AD20E030E044E353E40E942B9F181646
:103D30006CF469AD7AAD8BAD9CAD20E030E040E035
:103D400050E00E942B9F18160CF4EDC069A97AA9C7
:103D50008BA99CA920E030E040EA50EC0E94469DEF
:103D6000882374F421966CAD7DAD8EAD9FAD219707
:103D700020E030E040E050E00E94469D87FDD3C047
:103D800069A97AA98BA99CA920E030E04AEA52E40B
:103D90000E942B9F18167CF421966CAD7DAD8EADE4
:103DA0009FAD219720E030E040E050E00E942B9F43
:103DB00018160CF4B8C06DA57EA58FA598A920E0B3
:103DC00030E040E251EC0E94469D882374F4259631
:103DD0006CAD7DAD8EAD9FAD259720E030E040E02D
:103DE00050E00E94469D87FD9EC06DA57EA58FA5D3
:103DF00098A920E030E04EEB52E40E942B9F181669
:103E00007CF425966CAD7DAD8EAD9FAD259720E001
:103E100030E040E050E00E942B9F18160CF483C065
:103E200069A57AA58BA59CA520E030E044EB52EC77
:103E30000E94469D882374F429966CAD7DAD8EADAD
:103E40009FAD299720E030E040E050E00E94469D81
:103E500087FD69C069A57AA58BA59CA520E030E007
:103E600044EB52E40E942B9F18167CF429966CAD0B
:103E70007DAD8EAD9FAD299720E030E040E050E071
:103E80000E942B9F18160CF44EC0C801B701A80160
:103E900097010E94369F7B018C01C601B501A601E6
:103EA00095010E94369F9B01AC01C801B7010E9499
:103EB000699C0E94A39F7B018C0120E030E840EACE
:103EC00053E40E942B9F181674F1C801B70120E03B
:103ED00030E041E053E40E94469D87FD24C069859F
:103EE0007A858B859C8520E030E048E053E40E9491
:103EF0002B9F1816C4F069A97AA98BA99CA920E068
:103F000030E044EB52E40E94699C2DA53EA54FA5EC
:103F100058A90E94689C20E030E04AEF52E40E94D9
:103F20002B9F18166CF4F2011382128215821482F0
:103F3000178216821186108681E080831182FBC26F
:103F4000820102531E4F69AD7AAD8BAD9CADF80175
:103F500020813181428153810E94369F6B017C0117
:103F6000F2016285738584859585A70196010E947B
:103F7000699CF201628773878487958721966CAD6F
:103F80007DAD8EAD9FAD2197F801208131814281B9
:103F900053810E94369F9B01AC01F20166857785B3
:103FA000808991890E94699CF20166877787808B5E
:103FB000918B25966CAD7DAD8EAD9FAD2597F801AB
:103FC00020813181428153810E94369F9B01AC0147
:103FD000F20162897389848995890E94699CF20142
:103FE000628B738B848B958B29966CAD7DAD8EAD7A
:103FF0009FAD2997F80120813181428153810E9430
:10400000369F9B01AC01F20166897789808D918D85
:104010000E94699CF201668B778B808F918F76E08E
:10402000272E72E0372E240C351CEE54FE4FC701AC
:10403000B60120813181428153810E944D9DF20160
:10404000EA54FE4F20813181428153810E94369F84
:10405000F201EE53FE4F20813181428153810E9453
:10406000369FF10120813181428153810E94699CF8
:104070003B014C01F10160837183828393839F77BD
:1040800020E030E040E85FE30E94469D882324F46E
:10409000F2011382128233C0C401B3010E94B59DA4
:1040A0007B018C01B701882777FD8095982F0E94AE
:1040B000E89D5B016C01C401B301A60195010E945A
:1040C000689CF1016083718382839383F201E250E3
:1040D000FE4F80819181E80EF91EF182E082F201AB
:1040E000EE52FE4FC601B5012081318142815381DC
:1040F0000E94369F0E94B59DF201738362836AE03D
:10410000262E62E0362E240C351CF201E253FE4FBF
:1041100021966CAD7DAD8EAD9FAD21972081318113
:10412000428153810E94369FF201EE54FE4F20815E
:104130003181428153810E944D9DF201E654FE4F30
:1041400020813181428153810E94369FF201EA53DE
:10415000FE4F20813181428153810E94369FF101BF
:1041600020813181428153810E94699C3B014C0135
:10417000F10160837183828393839F7720E030E035
:1041800040E85FE30E94469D882324F4F2011582F3
:10419000148233C0C401B3010E94B59D7B018C0120
:1041A000B701882777FD8095982F0E94E89D5B01D5
:1041B0006C01C401B301A60195010E94689CF10144
:1041C0006083718382839383F201E050FE4F80818C
:1041D0009181E80EF91EF182E082F201EA52FE4F6F
:1041E000C601B50120813181428153810E94369FF1
:1041F0000E94B59DF201758364835EE0252E52E036
:10420000352E240C351CF201E253FE4F25966CAD81
:104210007DAD8EAD9FAD2597208131814281538147
:104220000E94369FF201EE54FE4F2081318142817F
:1042300053810E944D9DF201E254FE4F2081318155
:10424000428153810E94369FF201E653FE4F208146
:104250003181428153810E94369FF1012081318159
:10426000428153810E94699C3B014C01F1016083B2
:104270007183828393839F7720E030E040E85FE39F
:104280000E94469D882324F4F2011782168233C0CF
:10429000C401B3010E94B59D7B018C01B701882741
:1042A00077FD8095982F0E94E89D5B016C01C40109
:1042B000B301A60195010E94689CF101608371839E
:1042C00082839383F201EE5FFD4F80819181E80E3E
:1042D000F91EF182E082F201E652FE4FC601B501FD
:1042E00020813181428153810E94369F0E94B59D79
:1042F000F2017783668342E1842E42E0942E840C9F
:10430000951CF201E253FE4F29966CAD7DAD8EAD4A
:104310009FAD299720813181428153810E94369F30
:10432000F201EE54FE4F20813181428153810E947F
:104330004D9DF40120813181428153810E94699C0D
:104340005B016C01F40160837183828393839F77A7
:1043500020E030E040E85FE30E94469D882324F49B
:10436000F2011186108628C0C601B5010E94B59DD4
:104370007B018C01B701882777FD8095982F0E94DB
:10438000E89D9B01AC01C601B5010E94689CF40147
:104390006083718382839383F201EC5FFD4F8081A0
:1043A00091818E0D9F1D91838083F094E194F1089B
:1043B000F394F201F186E0863EEEE32E31E0F32E37
:1043C000E40CF51C2EEF31E0420E531EF201608129
:1043D000718122E03EEF420E531E882777FD8095C3
:1043E000982F0E94E89DF201EA54FE4F208131810E
:1043F000428153810E944D9DF201EE53FE4F208178
:104400003181428153810E944D9D82010E541E4F85
:10441000F80120813181428153810E94369FF7014A
:10442000608371838283938322EFE22E21E0F22E58
:10443000E40CF51C20E032E0420E531EF2016081D4
:10444000718120E03EEF420E531E882777FD809554
:10445000982F0E94E89DF201E654FE4F20813181A1
:10446000428153810E944D9DF201EA53FE4F20810B
:104470003181428153810E944D9DF801208131811B
:10448000428153810E94369FF7016083718382834A
:10449000938396EFE92E91E0F92EE40CF51C22E0CF
:1044A00032E0420E531EF20160817181882777FD50
:1044B0008095982F0E94E89D2CEB3FEF420E531EF3
:1044C000F20120813181428153810E944D9D2CE077
:1044D00030E0420E531EF20120813181428153812E
:1044E0000E944D9DF80120813181428153810E94BB
:1044F000369FF70160837183828393832AE330E0E0
:10450000420E531EF20160817181882777FD8095EC
:10451000982F0E94E89DF8012081318142815381CA
:104520000E94369F26EF3FEF420E531EF20160833A
:10453000718382839383C85BDF4F0FB6F894DEBF2D
:104540000FBECDBFCF91DF911F910F91FF90EF90E4
:10455000DF90CF90BF90AF909F908F907F906F90A3
:104560005F904F903F902F9008958F929F92AF92BF
:10457000BF92CF92DF92EF92FF920F931F93CF9350
:10458000DF93EC01C45DDC4FE880F9800A811B8178
:10459000CC52D340C801B70120E030E040E050E009
:1045A0000E94469D882319F481E0888319C1C85C64
:1045B000DC4F88819981C853D3408130910561F0E7
:1045C0008330910549F08530910531F087309105B0
:1045D00019F08B30910541F5C801B70120E030E0BA
:1045E00040E050E00E942B9FFCE2CF2EF3E0DF2E54
:1045F000CC0EDD1E18160CF051C0FE01EC5CFC4F19
:10460000DE01A253BE4F60817181828193812D9121
:104610003D914D915C910E94369F9B01AC01C80178
:10462000B7010E94689C34C08230910559F08430F3
:10463000910541F08630910529F08830910511F0FF
:104640000C97A9F5C801B70120E030E040E050E048
:104650000E94469DECE2CE2EE3E0DE2ECC0EDD1E67
:104660008823E4F4FE01EC5CFC4FDE01A253BE4F54
:1046700060817181828193812D913D914D915C91F9
:104680000E94369F9B01AC01C801B7010E94699C42
:10469000F60160837183828393830BC080E090E096
:1046A000A0E0B0E0F60180839183A283B38381E030
:1046B0008883C85CDC4F88819981C853D34085309A
:1046C000910509F44CC0863091058CF48230910537
:1046D00021F18330910524F4019709F081C01DC0B8
:1046E0008330910551F1049709F07AC026C08830D3
:1046F000910509F446C0893091053CF48630910556
:1047000071F1079709F06CC03CC08B30910509F43A
:104710004BC00C9709F064C047C0C45DDC4F4881B2
:1047200059816A817B81CC52D340CE0100E010E0F8
:1047300020E030E0680179010FC0C45DDC4F0881E2
:1047400019812A813B81CC52D340CE0140E050E018
:1047500060E070E06A017B014601570123C0C45D3F
:10476000DC4FC880D980EA80FB80CC52D340CE0198
:1047700040E050E060E070E08A019B014A015B018B
:1047800011C0C45DDC4F88809980AA80BB80CC5268
:10479000D340CE0140E050E060E070E08A019B0130
:1047A0006A017B01F3D91CC0FE01E45DFC4FDE0110
:1047B000A253BE4F60817181828193812D913D9181
:1047C0004D915C910E94369F9B01AC016A8D7B8D5F
:1047D0008C8D9D8D0E94699C6A8F7B8F8C8F9D8FA5
:1047E000DF91CF911F910F91FF90EF90DF90CF90CD
:1047F000BF90AF909F908F9008954F925F926F926D
:104800007F928F929F92AF92BF92CF92DF92EF9260
:10481000FF920F931F93CF93DF93EC0165307105E7
:1048200009F4F0C166307105CCF46230710509F409
:1048300099C0633071054CF46115710509F493C496
:104840006130710509F090C422C06330710509F42C
:10485000FBC06430710509F087C461C1683071051F
:1048600009F41BC3693071054CF46630710509F415
:1048700035C26730710509F077C4A3C26B3071058A
:1048800009F47EC36C30710509F06EC4EEC38C016F
:10489000005D1C4FFC01EA5AFF4FCA56DF4F608192
:1048A000718182819381288139814A815B810E9453
:1048B000369F6B017C01F80160837183828393834F
:1048C000E097488059806A807B80C253DD4F4882E0
:1048D00059826A827B82C453D3408E01045D1C4F8F
:1048E000F80180809180A280B380C501B401A70146
:1048F00096010E94469D8823BCF4FE01E253FE4FC0
:10490000C301B20120813181428153810E94369FCF
:104910009B01AC01C501B4010E94699CF801608350
:1049200071838283938305C0F801C082D182E282C1
:10493000F38281E08883C45DDC4F488159816A81BC
:104940007B81CC52D340CE0100E010E020E030E08B
:10495000680179014801590119D9C85CDC4F81E02F
:1049600090E0FEC38C01005D1C4FFC01EA5AFF4F32
:10497000CA56DF4F6081718182819381288139819C
:104980004A815B810E94369FF80160837183828334
:104990009383E097688079808A809B80C253DD4F43
:1049A000688279828A829B82C453D3402CE2422E51
:1049B00023E0522E4C0E5D1EF201A080B180C28019
:1049C000D3807B018C0117FB109517F91095C60158
:1049D000B501A80197010E942B9F1816BCF4FE0197
:1049E000E253FE4FC401B3012081318142815381E2
:1049F0000E94369F9B01AC01C601B5010E94689CD4
:104A0000F201608371838283938305C0F201E082A7
:104A1000F1820283138381E08883C45DDC4F488187
:104A200059816A817B81CC52D340CE0100E010E0F5
:104A300020E030E06801790148015901A7D8C85C3D
:104A4000DC4F82E090E08CC38C01005D1C4FFC01C8
:104A5000E65AFF4FCA56DF4F608171818281938190
:104A6000288139814A815B810E94369F6B017C01DC
:104A7000F8016083718382839383AC974880598067
:104A80006A807B80C653DD4F488259826A827B826E
:104A9000C453D3408E01045D1C4FF8018080918087
:104AA000A280B380C501B401A70196010E94469D72
:104AB0008823BCF4FE01E253FE4FC301B201208102
:104AC0003181428153810E94369F9B01AC01C50117
:104AD000B4010E94699CF80160837183828393838F
:104AE00005C0F801C082D182E282F38281E088832E
:104AF000C45DDC4F088119812A813B81CC52D340AF
:104B0000CE0140E050E060E070E06A017B014A01C4
:104B10005B013CD8C85CDC4F83E090E021C38C0192
:104B2000005D1C4FFC01E65AFF4FCA56DF4F608103
:104B3000718182819381288139814A815B810E94C0
:104B4000369FF8016083718382839383AC9768807A
:104B500079808A809B80C653DD4F688279828A8201
:104B60009B82C453D3400CE2402E03E0502E4C0EE7
:104B70005D1EF201A080B180C280D3807B018C01D8
:104B800017FB109517F91095C601B501A8019701FB
:104B90000E942B9F1816BCF4FE01E253FE4FC40185
:104BA000B30120813181428153810E94369F9B0154
:104BB000AC01C601B5010E94689CF201608371835B
:104BC0008283938305C0F201E082F1820283138322
:104BD00081E08883C45DDC4F088119812A813B8193
:104BE000CC52D340CE0140E050E060E070E06A017A
:104BF0007B014A015B010E94C61DC85CDC4F84E05A
:104C000090E0AEC28C01005D1C4FFC01E25AFF4FE8
:104C1000CA56DF4F608171818281938128813981F9
:104C20004A815B810E94369F6B017C01F8016083A1
:104C3000718382839383A897488059806A807B80A0
:104C4000CA53DD4F488259826A827B82C453D34063
:104C50008E01045D1C4FF80180809180A280B3809A
:104C6000C501B401A70196010E94469D8823BCF4AA
:104C7000FE01E253FE4FC301B20120813181428126
:104C800053810E94369F9B01AC01C501B4010E9473
:104C9000699CF801608371838283938305C0F80166
:104CA000C082D182E282F38281E08883C45DDC4FDE
:104CB000C880D980EA80FB80CC52D340CE0140E04E
:104CC00050E060E070E08A019B014A015B010E94B4
:104CD000C61DC85CDC4F85E090E042C28C01005DDF
:104CE0001C4FFC01E25AFF4FCA56DF4F60817181B1
:104CF00082819381288139814A815B810E94369F1C
:104D0000F8016083718382839383A8976880798098
:104D10008A809B80CA53DD4F688279828A829B8217
:104D2000C453D3401CE2412E13E0512E4C0E5D1EA5
:104D3000F201A080B180C280D3807B018C0117FB7F
:104D4000109517F91095C601B501A80197010E94A9
:104D50002B9F1816BCF4FE01E253FE4FC401B301B1
:104D600020813181428153810E94369F9B01AC0199
:104D7000C601B5010E94689CF20160837183828341
:104D8000938305C0F201E082F1820283138381E004
:104D90008883C45DDC4FC880D980EA80FB80CC5218
:104DA000D340CE0140E050E060E070E08A019B011A
:104DB0004A015B010E94C61DC85CDC4F86E090E0A2
:104DC000CFC18C01005D1C4FFC01EE59FF4FCA564C
:104DD000DF4F6081718182819381288139814A818D
:104DE0005B810E94369F6B017C01F80160837183B7
:104DF00082839383A497488059806A807B80CE53B6
:104E0000DD4F488259826A827B82C453D3408E012F
:104E1000045D1C4FF80180809180A280B380C501A1
:104E2000B401A70196010E94469D8823BCF4FE01AF
:104E3000E253FE4FC301B20120813181428153818F
:104E40000E94369F9B01AC01C501B4010E94699C80
:104E5000F801608371838283938305C0F801C08267
:104E6000D182E282F38281E08883C45DDC4F888056
:104E70009980AA80BB80CC52D340CE0140E050E064
:104E800060E070E08A019B016A017B010E94C61DFF
:104E9000C85CDC4F87E090E063C18C01005D1C4F73
:104EA000FC01EE59FF4FCA56DF4F6081718182814C
:104EB0009381288139814A815B810E94369FF80164
:104EC0006083718382839383A497688079808A80CA
:104ED0009B80CE53DD4F688279828A829B82C45345
:104EE000D340BCE24B2EB3E05B2E4C0E5D1EF201B4
:104EF000A080B180C280D3807B018C0117FB10950C
:104F000017F91095C601B501A80197010E942B9FC2
:104F10001816BCF4FE01E253FE4FC401B301208118
:104F20003181428153810E94369F9B01AC01C601B1
:104F3000B5010E94689CF201608371838283938330
:104F400005C0F201E082F1820283138381E088834D
:104F5000C45DDC4F88809980AA80BB80CC52D3404E
:104F6000CE0140E050E060E070E08A019B016A0100
:104F70007B010E94C61DC85CDC4F88E090E0F0C059
:104F80008C01005D1C4FFC01EE59FF4FCA56DF4FEC
:104F90006081718182819381288139814A815B811D
:104FA0000E94369F6B017C01F801608371838283CC
:104FB0009383A497488059806A807B80CE53DD4FCD
:104FC000488259826A827B82C453D3408E01045D39
:104FD0001C4FF80180809180A280B380C501B4018C
:104FE000A70196010E94469D8823BCF4FE01E2536E
:104FF000FE4FC301B20120813181428153810E9461
:10500000369F9B01AC01C501B4010E94699CF80167
:10501000608371838283938305C0F801C082D1824B
:10502000E282F38281E08883FE01E45DFC4FDE01D1
:10503000A253BE4F60817181828193812D913D91F8
:105040004D915C910E94369F9B01AC016A8D7B8DD6
:105050008C8D9D8D0E94699C6A8F7B8F8C8F9D8F1C
:10506000C85CDC4F8BE090E07BC08C01005D1C4F86
:10507000FC01EE59FF4FCA56DF4F6081718182817A
:105080009381288139814A815B810E94369FF80192
:105090006083718382839383A497688079808A80F8
:1050A0009B80CE53DD4F688279828A829B82C45373
:1050B000D340ACE24A2EA3E05A2E4C0E5D1EF20104
:1050C000A080B180C280D3807B018C0117FB10953A
:1050D00017F91095C601B501A80197010E942B9FF1
:1050E0001816BCF4FE01E253FE4FC401B301208147
:1050F0003181428153810E94369F9B01AC01C601E0
:10510000B5010E94689CF20160837183828393835E
:1051100005C0F201E082F1820283138381E088837B
:10512000FE01E45DFC4FDE01A253BE4F6081718140
:10513000828193812D913D914D915C910E94369F8A
:105140009B01AC016A8D7B8D8C8D9D8D0E94699C2D
:105150006A8F7B8F8C8F9D8FC85CDC4F8CE090E0DA
:105160009983888301C001DADF91CF911F910F915C
:10517000FF90EF90DF90CF90BF90AF909F908F9077
:105180007F906F905F904F9008952F923F924F9233
:105190005F926F927F928F929F92AF92BF92CF92C7
:1051A000DF92EF92FF920F931F93CF93DF93EC0167
:1051B000FC01E251FD4F608171816F5F7F4F718310
:1051C0006083882777FD8095982F0E94E89DC253C1
:1051D000DE4F288139814A815B810E94369F5B01C5
:1051E0006C01C65DDE4F688379838A839B83C85FC9
:1051F000D240FE01E051FD4FC25EDD4FE990F990D3
:1052000009911991E082F182028313836880798089
:105210008A809B80CE52DF4F688279828A829B820D
:10522000C45FD240A80197010E94469D18169CF0C9
:10523000C65DDD4F688179818A819B81A6019501D8
:105240000E94369FC356DF4F688379838A839B838E
:10525000C75CD24047C0C801B701A40193010E94B6
:10526000699C9B01AC01C601B5010E94469D97EC6B
:10527000292E92E0392E2C0E3D1EBAE14B2EB2E0C3
:105280005B2E4C0E5D1E18165CF0F2018081918140
:10529000A281B381F10180839183A283B38322C071
:1052A000C65DDD4FC601B501A80197010E94689C4B
:1052B000A40193010E94689C288139814A815B8105
:1052C000CA52D2400E94369F9B01AC01F20160811C
:1052D0007181828193810E94689CF1016083718356
:1052E00082839383FE01E051FD4FC95CDD4FA9909D
:1052F000B990C990D990A082B182C282D3826880CD
:1053000079808A809B80C754DF4F69927992899215
:105310009992E880F9800A811B81C85FD240C80158
:10532000B701A60195010E94469D18169CF0CD5B21
:10533000DD4F688179818A819B81A80197010E9454
:10534000369FC458DF4F688379838A839B83CF5B02
:10535000D24047C0C601B501A40193010E94699CD7
:105360009B01AC01C801B7010E94469DAFEB4A2EDC
:10537000A2E05A2E4C0E5D1EF3E32F2EF2E03F2EDC
:105380002C0E3D1E18165CF0F10180819181A281E6
:10539000B381F20180839183A283B38322C0CD5B6A
:1053A000DD4FC801B701A60195010E94689CA401C8
:1053B00093010E94689C288139814A815B81C35492
:1053C000D2400E94369F9B01AC01F1016081718146
:1053D000828193810E94689CF20160837183828341
:1053E0009383FE01E051FD4FC05BDD4FA990B99062
:1053F000C990D990A082B182C282D382688079801C
:105400008A809B80C056DF4F6992799289929992E7
:10541000E880F9800A811B81C85FD240C801B701CA
:10542000A60195010E94469D18169CF0C45ADD4FB6
:10543000688179818A819B81A80197010E94369FAA
:10544000C959DF4F688379838A839B83C35CD240C9
:1054500047C0C601B501A40193010E94699C9B014C
:10546000AC01C801B7010E94469DE3EC4E2EE2E07C
:105470005E2E4C0E5D1E7CE4272E72E0372E2C0E25
:105480003D1E18165CF0F10180819181A281B381EB
:10549000F20180839183A283B38322C0C45ADD4F7B
:1054A000C801B701A60195010E94689CA40193015F
:1054B0000E94689C288139814A815B81CC55D24009
:1054C0000E94369F9B01AC01F10160817181828154
:1054D00093810E94689CF20160837183828393832D
:1054E000FE01E051FD4FC759DD4FA990B990C99019
:1054F000D990A082B182C282D382688079808A806A
:105500009B80C957DF4F6992799289929992E8807E
:10551000F9800A811B81C85FD240C801B701A6018A
:1055200095010E94469D18169CF0CB58DD4F68816E
:1055300079818A819B81A80197010E94369FCA5A6E
:10554000DF4F688379838A839B83CB5CD24047C0DB
:10555000C601B501A40193010E94699C9B01AC01A5
:10556000C801B7010E94469D6BEC462E62E0562EA4
:105570004C0E5D1E55E6252E52E0352E2C0E3D1E9E
:1055800018165CF0F10180819181A281B381F20152
:1055900080839183A283B38322C0CB58DD4FC8019F
:1055A000B701A60195010E94689CA40193010E9485
:1055B000689C288139814A815B81C557D2400E940D
:1055C000369F9B01AC01F1016081718182819381E1
:1055D0000E94689CF201608371838283938347EC0D
:1055E000A42E42E0B42EAC0EBD1ECD55DD4F688119
:1055F0007981C35AD240882777FD8095982F0E94E1
:10560000E89D9B01AC01F5016081718182819381EC
:105610000E94369F2B013C01F501608371838283D8
:1056200093838E0101541D4FCB55DD4F68817981E5
:10563000C55AD240882777FD8095982F0E94E89D13
:105640009B01AC01F80160817181828193810E948C
:10565000369FF80160837183828393838E010D539B
:105660001D4FC955DD4F68817981C75AD2408827BF
:1056700077FD8095982F0E94E89D9B01AC01F80171
:1056800060817181828193810E94369FF8016083DD
:105690007183828393838E0105531D4FC755DD4F60
:1056A00068817981C95AD240882777FD8095982FE3
:1056B0000E94E89D9B01AC01F801608171818281AB
:1056C00093810E94369FF801608371838283938364
:1056D0003EE2832E32E0932E8C0E9D1EF4018081DB
:1056E000882309F05FC0FE01E850FD4FDE01A6519E
:1056F000BD4F60817181828193812D913D914D914A
:105700005C910E942B9F2EECE22E21E0F22EEC0EFB
:10571000FD1E9BEAC92E92E0D92ECC0EDD1E8823F9
:105720004CF18E010D561D4FF8016081718182810F
:105730009381F60120813181428153810E94689CCE
:10574000F70120813181428153810E944D9DF501F5
:105750006083718382839383F80180819181A28128
:10576000B381F60180839183A283B38381E0F40146
:10577000808321C0C301B201F701208131814281C0
:1057800053810E94369F9B01AC01F60160817181BB
:10579000828193810E94699CF60160837183828378
:1057A000938309C080E090E0A0E0B0E0F501808341
:1057B0009183A283B38387E4A82E82E0B82EAC0E37
:1057C000BD1EF5018081882309F068C0FE01E85004
:1057D000FD4FDE01A651BD4F6081718182819381B1
:1057E0002D913D914D915C910E942B9F0EECE02EEE
:1057F00001E0F02EEC0EFD1E1FEB412E12E0512EAB
:105800004C0E5D1EBFEACB2EB2E0DB2ECC0EDD1EB1
:1058100088234CF18E0109561D4FF801608171817A
:1058200082819381F60120813181428153810E94DE
:10583000689CF70120813181428153810E944D9DF6
:10584000F2016083718382839383F8018081918167
:10585000A281B381F60180839183A283B38381E027
:10586000F501808327C0F20160817181828193817B
:10587000F70120813181428153810E94369F9B0133
:10588000AC01F60160817181828193810E94699CE3
:10589000F60160837183828393830CC0C154DD4F12
:1058A00080E090E0A0E0B0E088839983AA83BB8386
:1058B000CF5BD240A0E6AA2EA2E0BA2EAC0EBD1E4F
:1058C000F5018081882309F068C0FE01E850FD4F92
:1058D000DE01A651BD4F60817181828193812D913E
:1058E0003D914D915C910E942B9FFEECEF2EF1E0DB
:1058F000FF2EEC0EFD1EE3EC4E2EE2E05E2E4C0E73
:105900005D1E73EBC72E72E0D72ECC0EDD1E8823F2
:105910004CF18E0105561D4FF80160817181828125
:105920009381F60120813181428153810E94689CDC
:10593000F70120813181428153810E944D9DF20106
:105940006083718382839383F80180819181A28136
:10595000B381F60180839183A283B38381E0F50153
:10596000808327C0F2016081718182819381F70178
:1059700020813181428153810E94369F9B01AC017D
:10598000F60160817181828193810E94699CF60198
:1059900060837183828393830CC0CD53DD4F80E09D
:1059A00090E0A0E0B0E088839983AA83BB83C35CC6
:1059B000D24069E7A62E62E0B62EAC0EBD1EF50100
:1059C0008081882309F068C0FE01E850FD4FDE01A8
:1059D000A651BD4F60817181828193812D913D914E
:1059E0004D915C910E942B9F5EECE52E51E0F52ECF
:1059F000EC0EFD1E4BEC442E42E0542E4C0E5D1E70
:105A000037EBC32E32E0D32ECC0EDD1E88234CF1B3
:105A10008E0101561D4FF801608171818281938151
:105A2000F60120813181428153810E94689CF701F7
:105A300020813181428153810E944D9DF20160831A
:105A4000718382839383F80180819181A281B381E4
:105A5000F60180839183A283B38381E0F501808383
:105A600027C0F2016081718182819381F7012081D9
:105A70003181428153810E94369F9B01AC01F60126
:105A800060817181828193810E94699CF6016083AB
:105A90007183828393830CC0C553DD4F80E090E017
:105AA000A0E0B0E088839983AA83BB83CB5CD2401B
:105AB000C953DD4F488159816A817B8128970991BB
:105AC000199129913991C880D980EA80FB80289664
:105AD00088809980AA80BB80CB5CD240CE010E9496
