:1000000047C1000072C1000070C100006EC1000055
:100010006CC100006AC1000068C1000066C1000038
:1000200064C1000062C1000060C100005EC1000048
:100030005CC100005AC1000058C100000C94B58595
:1000400054C100000C94D78D50C100004EC1000077
:100050004CC100004AC1000048C100000C94178E3A
:100060000C945A080C9439900C948D913EC1000068
:100070003CC100003AC1000038C1000036C1000098
:100080000C94AA8D32C1000030C100002EC10000C6
:100090000C9479900C94CC9128C1000026C10000EA
:1000A00024C1000022C100000C947D8D1EC10000FF
:1000B0001CC100001AC1000018C100000C94508D32
:1000C00014C1000012C1000010C100000C94B990CE
:1000D0000C940B920AC100000C94F9900C944A9273
:1000E00004C10000036EDB363D9A9999993DABAA95
:1000F000AA2A3E000000803F084AD73B3BCE016E53
:1001000084BCBFFDC12F3D6C74319ABD56833DDA6E
:100110003D00C77F11BED9E4BB4C3E916BAAAABE7D
:10012000000000803F072C7AA5BA6CC590DA3B939B
:1001300065FC8BBC53F810FD3C5692834DBD879DEA
:100140003AB63DCBC9BF5BBE73DA0FC93F05A84CB9
:10015000CDB2D44EB93836A9020C50B99186880870
:100160003CA6AAAA2ABE000000803F00002100246D
:100170000027002A002D0030003300010100000498
:100180000107010A0100002200250028002B002E93
:10019000003100340002010000050108010B0100DC
:1001A0000020002300260029002C002F0032000030
:1001B0000100000301060109010505050507050801
:1001C000080808020202020A0A08080404040401DA
:1001D00001010101010101030303030303030304FC
:1001E0000707070C0C0C0C0C0C0C0C02020202068C
:1001F000060606060606060B0B0B0B0B0B0B0B017C
:100200000210202008081020401020408002010227
:1002100001080402010102040810204080804020EF
:10022000100804020180040201804020100804022A
:1002300001080402010102040810204080010204A8
:1002400008102040800000090A02080B0C0D070668
:100250000304010000000000000000000000000096
:10026000000000000000000000000000000000008E
:100270000011100F0000000000000000000000004E
:100280000000000000000000000000009001BC938E
:1002900011241FBECFEFD1E2DEBFCDBF00E00CBF07
:1002A00016E0A0E0B2E0E0ECF6E301E00BBF02C034
:1002B00007900D92A83DB107D9F71BBE1FE0A8ED2E
:1002C000B6E001C01D92A63CB107E1F712E0C0E91B
:1002D000D2E004C02297FE010E945A9BCC38D1077D
:1002E000C9F70E94F3940C945E9B8ACEFB01519156
:1002F0005523A9F0BF01DC014D9145174111E1F7EC
:1003000059F4CD010190002049F04D914015411163
:10031000C9F3FB014111EFCF81E090E0019708950F
:1003200088ED96E00E94AF0F88ED9AE00C94E2858C
:100330004F925F926F927F928F929F92AF92BF92F5
:10034000CF92DF92EF92FF920F931F93DF93CF93A1
:10035000CDB7DEB728970FB6F894DEBF0FBECDBF7E
:100360008091D80A9091D90A019729F488ED9AE0F2
:100370000E94718888C682EE9AE00E945E0E80918B
:10038000340B9091350B019731F482E090E090931B
:10039000350B8093340B80919E07813009F073C632
:1003A00080919F07882309F06EC667C61092DB060E
:1003B0001092DA061092DD061092DC061092DF062B
:1003C0001092DE061092D90688ED96E00E94E611A2
:1003D0008091720790917307A0917407B09175078F
:1003E00080930C0B90930D0BA0930E0BB0930F0BFF
:1003F0008091760790917707A0917807B09179075F
:100400008093100B9093110BA093120BB093130BCE
:1004100080917A0790917B07A0917C07B0917D072E
:100420008093140B9093150BA093160BB093170B9E
:1004300080917E0790917F07A0918007B0918107FE
:100440008093180B9093190BA0931A0BB0931B0B6E
:100450008091860790918707A0918807B0918907BE
:1004600080931C0B90931D0BA0931E0BB0931F0B3E
:1004700080918A0790918B07A0918C07B0918D078E
:100480008093200B9093210BA093220BB093230B0E
:1004900080918E0790918F07A0919007B09191075E
:1004A0008093240B9093250BA093260BB093270BDE
:1004B0008091920790919307A0919407B09195072E
:1004C0008093280B9093290BA0932A0BB0932B0BAE
:1004D0008091960790919707A0919807B0919907FE
:1004E0008093300B9093310BA093320BB093330B6E
:1004F0008091D806882359F080910A0B90910B0BBC
:10050000892B29F082EE9AE0CBD61092D806609122
:10051000E20A7091E30A8091E40A9091E50A0E9450
:100520009A986630710509F416C267307105C4F4F3
:100530006330710509F494C06430710544F461308E
:10054000710539F16230710509F05CC561C0643034
:10055000710509F4F6C06530710509F053C564C131
:100560006930710509F4DBC26A3071054CF46730FB
:10057000710509F469C26830710509F043C58CC280
:100580006A30710509F4C6C46F30710509F03AC5C7
:1005900013C580912E0C90912F0C019721F0109291
:1005A00071081092700800D00F924091EA0A5091A1
:1005B000EB0A6091EC0A7091ED0A0091EE0A10913D
:1005C000EF0A2091F00A3091F10AC090F20AD0901F
:1005D000F30AE090F40AF090F50A8090F60A909001
:1005E000F70AA090F80AB090F90A8091FA0A90915F
:1005F000FB0AA091FC0AB091FD0AEDB7FEB781831A
:100600009283A383B48388ED96E00E940D8282C218
:100610006091FE0A7091FF0A8091000B9091010B8E
:1006200020E030E048EC52E40E94329860936E077C
:1006300070936F0780937007909371076091E60A3B
:100640007091E70A8091E80A9091E90A0E949A98CD
:100650009B01AC0188ED96E0B9010E942A85D2C4C5
:100660008DB79EB70E970FB6F8949EBF0FBE8DBF85
:100670000DB71EB70F5F1F4F4090EA0A5090EB0A6C
:100680006090EC0A7090ED0A8091EE0A9091EF0A6A
:10069000A091F00AB091F10A89839A83AB83BC835D
:1006A000C090F20AD090F30AE090F40AF090F50AB4
:1006B0008090F60A9090F70AA090F80AB090F90A94
:1006C0008091FA0A9091FB0AA091FC0AB091FD0A70
:1006D000EDB7FEB781839283A383B4838091020B2D
:1006E0009091030BA091040BB091050BF80184834A
:1006F0009583A683B7838091060B9091070BA091F9
:10070000080BB091090B80879187A287B38760910E
:10071000FE0A7091FF0A8091000B9091010B0E94DC
:100720009A98D8011D967C936E931C9788ED96E05D
:10073000B301A20109811A812B813C810E94E080D2
:100740007AC18DB79EB744970FB6F8949EBF0FBE7F
:100750008DBFEDB7FEB731964091FE0A5091FF0A6A
:100760006091000B7091010B0091020B1091030B33
:100770002091040B3091050BC090060BD090070B15
:10078000E090080BF090090B8090EA0A9090EB0A39
:10079000A090EC0AB090ED0A4090EE0A5090EF0A5B
:1007A0006090F00A7090F10AADB7BEB711964D9205
:1007B0005D926D927C9214978091F20A9091F30A67
:1007C000A091F40AB091F50A84839583A683B78338
:1007D0008091F60A9091F70AA091F80AB091F90A6F
:1007E00080879187A287B3878091FA0A9091FB0A4C
:1007F000A091FC0AB091FD0A84879587A687B787E8
:100800008091E60A9091E70AA091E80AB091E90A7E
:10081000808B918BA28BB38B88ED96E00E94034A6C
:10082000EDB7FEB774960AC18091380B9091390BE1
:100830008430910509F443C08530910554F4823029
:100840009105E1F083309105ACF5019709F0DAC329
:1008500010C08630910509F44FC0863091050CF424
:1008600046C08730910509F461C0089709F0CAC3F2
:1008700066C06091360B7091370B07C06091360BE4
:100880007091370B709561957F4F882777FD809524
:10089000982F0E94CD98AB01BC0188ED96E000E056
:1008A00010E020E030E068017901460157010E9424
:1008B0007552A8C36091360B7091370B07C06091D9
:1008C000360B7091370B709561957F4F882777FDB8
:1008D0008095982F0E94CD988B019C0188ED96E021
:1008E00040E050E060E070E06A017B01DECF6091A3
:1008F000360B7091370B07C06091360B7091370B38
:10090000709561957F4F882777FD8095982F0E947D
:10091000CD986B017C0188ED96E040E050E060E00E
:1009200070E08A019B014A015B01C1CF8EE997E02B
:1009300040E050E064E372E40E94938B08C08EE9CB
:1009400097E040E050E060E070E00E94688B81E05A
:100950008093D80657C38DB79EB70E970FB6F894FD
:100960009EBF0FBE8DBF0DB71EB70F5F1F4F4090CC
:10097000EA0A5090EB0A6090EC0A7090ED0A8091C0
:10098000EE0A9091EF0AA091F00AB091F10A8D83DE
:100990009E83AF83B887C090F20AD090F30AE090AC
:1009A000F40AF090F50A8090F60A9090F70AA09069
:1009B000F80AB090F90A8091FA0A9091FB0AA09186
:1009C000FC0AB091FD0AEDB7FEB781839283A38341
:1009D000B4838091020B9091030BA091040BB09112
:1009E000050BF80184839583A683B7838091060B5A
:1009F0009091070BA091080BB091090B808791870C
:100A0000A287B3876091FE0A7091FF0A8091000B64
:100A10009091010B0E949A98D8011D967C936E9339
:100A20001C9788ED96E0B301A2010D811E812F81F4
:100A300038850E947681EDB7FEB73E960FB6F894E2
:100A4000FEBF0FBEEDBFDEC26091FE0A7091FF0ACD
:100A50008091000B9091010B20E030E048EC52E4D3
:100A60000E94329860936E0770936F0780937007AF
:100A7000909371076091E60A7091E70A8091E80A05
:100A80009091E90A0E949A989B01AC0188ED96E04A
:100A9000B9010E94EA84B6C280912E0C90912F0C6D
:100AA000089721F0109271081092700800D00F92F0
:100AB0004091EA0A5091EB0A6091EC0A7091ED0ABC
:100AC0000091EE0A1091EF0A2091F00A3091F10A9C
:100AD000C090F20AD090F30AE090F40AF090F50A80
:100AE0008090F60A9090F70AA090F80AB090F90A60
:100AF0008091FA0A9091FB0AA091FC0AB091FD0A3C
:100B0000EDB7FEB781839283A383B48388ED96E02B
:100B10000E94BB7D0F900F900F900F9073C2609159
:100B2000E60A7091E70A8091E80A9091E90A0E942A
:100B30009A986230710509F453C1633071053CF431
:100B4000672B71F06130710509F026C2AAC06330CD
:100B5000710509F456C16430710509F01DC284C1E4
:100B60008091EA0A9091EB0AA091EC0AB091ED0A0B
:100B700080932E0790932F07A0933007B0933107EF
:100B80008093320790933307A0933407B0933507CF
:100B90008093360790933707A0933807B0933907AF
:100BA0008091EE0A9091EF0AA091F00AB091F10ABB
:100BB00080933E0790933F07A0934007B09341076F
:100BC0008093420790934307A0934407B09345074F
:100BD0008093460790934707A0934807B09349072F
:100BE0008091F20A9091F30AA091F40AB091F50A6B
:100BF00080933A0790933B07A0933C07B0933D073F
:100C00008091F60A9091F70AA091F80AB091F90A3A
:100C100080934A0790934B07A0934C07B0934D07DE
:100C20008091FA0A9091FB0AA091FC0AB091FD0A0A
:100C300080934E0790934F07A0935007B0935107AE
:100C40008093520790935307A0935407B09355078E
:100C50008093560790935707A0935807B09359076E
:100C60008091FE0A9091FF0AA091000BB091010BB8
:100C700080935E0790935F07A0936007B09361072E
:100C80008093620790936307A0936407B09365070E
:100C90008093660790936707A0936807B0936907EE
:100CA0007BC18091EA0A9091EB0AA091EC0AB09185
:100CB000ED0A8093FE069093FF06A0930007B09381
:100CC00001078093020790930307A0930407B09352
:100CD00005078093060790930707A0930807B09332
:100CE00009078091EE0A9091EF0AA091F00AB09165
:100CF000F10A80930E0790930F07A0931007B0930B
:100D000011078093120790931307A0931407B093D1
:100D100015078093160790931707A0931807B093B1
:100D200019078091F20A9091F30AA091F40AB09108
:100D3000F50A80930A0790930B07A0930C07B093D2
:100D40000D078091F60A9091F70AA091F80AB091E8
:100D5000F90A80931A0790931B07A0931C07B0937E
:100D60001D078091FA0A9091FB0AA091FC0AB091AC
:100D7000FD0A8093F6069093F706A093F806B093C9
:100D8000F9068091FE0A9091FF0AA091000BB091A4
:100D9000010B8093FA069093FB06A093FC06B09398
:100DA000FD066091020B7091030B8091040B9091F2
:100DB000050B0E949A987093310C6093300C8091CF
:100DC000060B9091070BA091080BB091090B809333
:100DD0002A0790932B07A0932C07B0932D07DCC014
:100DE0008091EA0A9091EB0AA091EC0AB091ED0A89
:100DF00080939A0790939B07A0939C07B0939D07BD
:100E0000CBC060E070E084EB92E42091EA0A30917C
:100E1000EB0A4091EC0A5091ED0A0E944D976093C5
:100E2000E6067093E7068093E8069093E9068091C2
:100E3000EE0A9091EF0AA091F00AB091F10A809326
:100E4000EA069093EB06A093EC06B093ED0680E0E3
:100E500090E0A0E0B0E08093E2069093E306A093D8
:100E6000E406B093E50698C0E090EA0AF090EB0A39
:100E70000091EC0A1091ED0AC801B70120E030E0C2
:100E800040E050E00E942B98882329F48EEA97E4F2
:100E9000ACE5B2E42AC0C801B70120E030E040E888
:100EA0005FE30E942B98882389F48EEA97E4ACE5EF
:100EB000B2E48093E4079093E507A093E607B0932C
:100EC000E70780E090E0A0EAB1E41BC0C801B701E9
:100ED00020E030E040E050E40E942B98882309F0A5
:100EE0005BC08EEA97E4A6E4B2E48093E4079093B3
:100EF000E507A093E607B093E70780E090E0A0EF56
:100F0000B1EC8093E8079093E907A093EA07B093C8
:100F1000EB0742C06091EA0A7091EB0A8091EC0AFB
:100F20009091ED0A20E030E048EC52E40E943298C3
:100F300060931E0770931F078093200790932107EB
:100F40006091EE0A7091EF0A8091F00A9091F10A97
:100F500020E030E048EC52E40E943298609322078F
:100F60007093230780932407909325076091F20ADA
:100F70007091F30A8091F40A9091F50A20E030E034
:100F800048EC52E40E94329860936E0770936F07AA
:100F9000809370079093710781E08093D80680E07A
:100FA00090E0A0E0B0E08093E20A9093E30AA0937F
:100FB000E40AB093E50A26C04091EA0A5091EB0A90
:100FC0006091EC0A7091ED0A0091EE0A1091EF0A1F
:100FD0002091F00A3091F10AC090F20AD090F30A01
:100FE000E090F40AF090F50A88ED96E00F2EF0E01C
:100FF0008F2EF0E09F2EF0E0AF2EF0E0BF2EF02D10
:101000000E94533B4091E2065091E3066091E40652
:101010007091E5060091E6061091E7062091E8063A
:101020003091E906C090EA06D090EB06E090EC061D
:10103000F090ED068090EE069090EF06A090F006FE
:10104000B090F10688ED96E00E94176382EE9AE078
:1010500077D781E080939F0710929E076091E20A04
:101060007091E30A8091E40A9091E50A0E949A98AF
:1010700070932F0C60932E0C06C08091D8068823A5
:1010800009F094C9A1C928960FB6F894DEBF0FBE27
:10109000CDBFCF91DF911F910F91FF90EF90DF9027
:1010A000CF90BF90AF909F908F907F906F905F9008
:1010B0004F9008951F920F920FB60F920BB60F929A
:1010C00011240F931F932F933F934F935F936F932D
:1010D0007F938F939F93AF93BF93EF93FF936EB5DF
:1010E0004091DA065091DB062091DC063091DD0656
:1010F0000091DE061091DF068EE997E00E94E58BF5
:10110000FF91EF91BF91AF919F918F917F916F91DF
:101110005F914F913F912F911F910F910F900BBEB7
:101120000F900FBE0F901F901895CF93DF938EE313
:101130009FE040E855E260E070E00E94899280E61E
:101140009FE040E855E260E070E00E94899281E013
:101150008093D80680E090E0A4E3B2E48093E606B2
:101160009093E706A093E806B093E9068093EA0619
:101170009093EB06A093EC06B093ED0680E090E030
:10118000A8ECB2E480939A0790939B07A0939C07E6
:10119000B0939D0785E090E09093310C8093300CE4
:1011A00088E261E00E94248F88E260E00E94D78F8D
:1011B00081E361E00E94248F81E361E00E94D78F88
:1011C00088ED9AE00E94648988ED9AE00E9428895F
:1011D000C0E0D0E088ED9AE00E941D876093E606AB
:1011E0007093E7068093E8069093E90688ED9AE00D
:1011F0000E9416876093EA067093EB068093EC06D4
:101200009093ED0664E170E080E090E00E945F8ED4
:101210002196C530D105F1F68091D80A9091D90A6E
:10122000892BD9F588ED9AE00E941D879B01AC01BE
:1012300060E070E084EB92E40E944D976093E606D4
:101240007093E7068093E8069093E90688ED9AE0AC
:101250000E9416876093EA067093EB068093EC0673
:101260009093ED0680E090E0A0E0B0E08093E2068D
:101270009093E306A093E406B093E50681E360E073
:101280000E94D78F8EE997E00E94158C8EE997E037
:101290000E94478C82EE9AE020D5DF91CF9108958D
:1012A000EF92FF920F931F93CF93DF93EC0188A5EA
:1012B00099A5892B09F415C188A599A5079708F068
:1012C00010C102C1C55ADF4F288139814A815B8133
:1012D000CB55D040288339834A835B83C15ADF4F83
:1012E000E880F9800A811B81CF55D040EC82FD82D5
:1012F0000E831F83C55BDE4F8881CB54D140813084
:1013000009F046C0CA01B90120E030E040E050E4F5
:101310000E942B988823E1F5C801B7010E949A9892
:1013200063307105F1F0643071053CF46130710592
:1013300071F06230710561F50FC065307105D9F04B
:10134000653071059CF06630710511F519C080E0BB
:1013500090E0A0E4B0E418C080E090E0A0E8B0E441
:1013600013C080E090E0A0E8BFE30EC080E090E012
:10137000A0E0B0E409C080E090E0A0ECB0E404C0DC
:1013800080E090E0A0EAB0E48C839D83AE83BF83CD
:10139000CD59DF4F88819981AA81BB81C356D04046
:1013A00088879987AA87BB87C959DF4F8881998128
:1013B000AA81BB81C756D0408C879D87AE87BF87E7
:1013C000C559DF4F88819981AA81BB81CB56D04016
:1013D000888B998BAA8BBB8BC159DF4F88819981F0
:1013E000AA81BB81CF56D0408C8B9D8BAE8BBF8B9F
:1013F000CD58DF4F88819981AA81BB81C357D040E6
:10140000888F998FAA8FBB8FC958DF4F88819981A8
:10141000AA81BB81C757D0408C8F9D8FAE8FBF8F65
:10142000C558DF4F88819981AA81BB81CB57D040B5
:1014300088A399A3AAA3BBA3C158DF4F8881998130
:10144000AA81BB81CF57D0408CA39DA3AEA3BFA3DD
:1014500088A599A5029790F188A599A5079770F599
:1014600040E050E008E210E014C088EDE82E8FEF75
:10147000F82EE20EF31EF90181919191A191B191A3
:101480009F01F70180839183A283B3836F5F6A30EA
:1014900061F788A599A501974817590778F44F5F18
:1014A0005F4F409F9001419F300D509F300D1124A0
:1014B000255A3F4F2C0F3D1F60E0D7CF88A599A537
:1014C000019799A788A70DC0C85ADF4F8881C855D2
:1014D000D040882309F4F6CE20E030E040EA50E422
:1014E000F9CEDF91CF911F910F91FF90EF9008956A
:1014F0002F923F924F925F926F927F928F929F9224
:10150000AF92BF92CF92DF92EF92FF920F931F9311
:10151000DF93CF93CDB7DEB7A9970FB6F894DEBFB0
:101520000FBECDBF8C0180E69FE00E941093892BF7
:1015300009F431C289E5E82EF12CE00EF11ED70145
:101540008C918823A9F01BC080E69FE00E94439302
:10155000853A31F4075A1F4F81E0F80180831BC29E
:10156000853B31F4075A1F4F82E0D8018C9313C298
:1015700080E69FE00E941093892B31F70CC28130E6
:1015800009F0D3C0085A1F4FF801108208551040C7
:1015900080E69FE00E941093899708F4FCC1D70170
:1015A0001C92FE01319689E2DF011D928A95E9F7CE
:1015B0006F017F01BAE2AB2EB12CAC0EBD1E80E6EE
:1015C0009FE00E944393F70181937F01EA15FB0599
:1015D000B1F789A58A3509F0D8C18981882351F4EA
:1015E0008B81813199F48D81823281F48F818333B3
:1015F00069F4DEC0843451F48B81853539F48D81F2
:10160000863621F48F81873709F4C5C1D8019896B1
:101610008D919C91999798968D919C919997069709
:1016200008F0B9C120E030E0F80180A591A5FC01E7
:10163000A3E0EE0FFF1FAA95E1F7880F991FE80FAF
:10164000F91FE20FF31FEE0FFF1FEE0FFF1FE55A0A
:10165000FF4FE00FF11FD6018C918083F80180A528
:1016600091A5FC0153E0EE0FFF1F5A95E1F7880F9B
:10167000991FE80FF91FE20FF31FEE0FFF1FEE0F88
:10168000FF1FE55AFF4FE00FF11F11968C918183E8
:10169000D80198968D919C919997FC01A3E0EE0F4B
:1016A000FF1FAA95E1F7880F991FE80FF91FE20FB6
:1016B000F31FEE0FFF1FEE0FFF1FE55AFF4FE00F66
:1016C000F11FD60112968C9112978283F80180A5A2
:1016D00091A5FC0153E0EE0FFF1F5A95E1F7880F2B
:1016E000991FE80FF91FE20FF31FEE0FFF1FEE0F18
:1016F000FF1FE55AFF4FE00FF11F13968C91838374
:101700002F5F3F4F84E090E0C80ED91E2A3031058C
:1017100009F08ACFD80198968D919C91999701965E
:1017200099969C938E93989736C1823009F033C175
:1017300080E090E0A0EAB0E4F80180839183A28386
:10174000B383085A1F4F81E0D8018C93085510408D
:1017500080E69FE00E941093899708F41CC1F7016E
:101760001082FE01319689E2DF011D928A95E9F728
:101770007F01EAE2CE2ED12CCC0EDD1E80E69FE06A
:101780000E944393F70181937F01EC15FD05B1F7AA
:1017900089A58B3509F0F9C089818823B1F48B8143
:1017A0008131F9F48D818232E1F48F818333C9F480
:1017B000F801EE5AFF4F80819181892B09F0EBC02F
:1017C00081E090E091838083E6C0843451F48B8182
:1017D000853539F48D81863621F48F81873709F478
:1017E000DAC00A5A1F4FD8011D921C92F8011292BA
:1017F00012928F010455104074E1C72E75E0D72E68
:10180000EE24FF245E010894A11CB11CD6016D9149
:101810007C91C5010E947601E8E0F0E0CE0EDF1E6B
:10182000009799F1F70163E0EE0FFF1F6A95E1F76A
:10183000EA5EFA4F608171818EE39FE00E944A96D2
:10184000D801AC5ABF4F53E0EE0CFF1C5A95E1F79C
:10185000F701E85EFA4F808191812D913C911197BB
:10186000820F931F8D939C930A5A1F4F84E195E03A
:10187000E80EF91ED70116968D919C911797F801E5
:10188000918380830655104008C00894E11CF11C28
:10189000F0E1EF16F10409F0B9CF8EE39FE060E2CA
:1018A0000E942B9534E9A32E35E0B32E2CE9822E2D
:1018B00025E0922E94E5292E312C200E311E38C0C1
:1018C000D4014D905C90F501E080F180CC24DD24C2
:1018D00026C03701D7016D917C91CE0101960E94FF
:1018E0007601E8E0F0E0EE0EFF1E0097A9F0D301CC
:1018F00012966D917C9113978EE39FE00E944A9619
:10190000F30184819581D1012D913C911197820F32
:10191000931F8D939C9306C00894C11CD11CC414C2
:10192000D504BCF2E2E0F0E0AE0EBF1E8E0E9F1EAC
:10193000FCE9AF16F5E0BF0619F60A5A1F4FD801A9
:101940002D913C9106551040C9010797029758F018
:10195000232B79F00C5A1F4FD8018D919C9104557F
:101960001040892B31F0F80180A591A5019691A72F
:1019700080A70C5A1F4FD8016D917C918EE39FE098
:101980004AE050E00E941B9606C08EE39FE060E0B4
:1019900072E00E942E97A9960FB6F894DEBF0FBE94
:1019A000CDBFCF91DF911F910F91FF90EF90DF900E
:1019B000CF90BF90AF909F908F907F906F905F90EF
:1019C0004F903F902F900895AF92BF92CF92DF92A9
:1019D000EF92FF920F931F93DF93CF93CDB7DEB7B4
:1019E000A9970FB6F894DEBF0FBECDBF7C018EE382
:1019F0009FE00E941093892B09F44FC18701075A79
:101A00001F4FD8018C91882381F016C08EE39FE090
:101A10000E944393853A910541F4E9E5F0E0EE0E2A
:101A2000FF1E81E0D7018C9338C18EE39FE00E94B6
:101A30001093892B59F731C18EE39FE00E941093D8
:101A4000899709F0E9C08091320C9091330C01968E
:101A50009093330C8093320CF8011082FE01319682
:101A600089E2DF011D928A95E9F76F018F01EAE2B1
:101A7000AE2EB12CAC0EBD1E8EE39FE00E944393B0
:101A8000F80181938F01EA15FB05B1F789A58A3525
:101A900009F0B4C089818823B1F48B818131F9F4D4
:101AA0008D818232E1F48F818333C9F4F701EE5ADC
:101AB000FF4F80819181892B09F0A9C081E090E0DE
:101AC00091838083A4C0843451F48B81853539F4AB
:101AD0008D81863621F48F81873709F498C0D7012C
:101AE00098968D919C91999798968D919C919997A4
:101AF000069708F08CC020E030E0F70180A591A5A2
:101B0000FC0173E0EE0FFF1F7A95E1F7880F991F34
:101B1000E80FF91FE20FF31FEE0FFF1FEE0FFF1F7D
:101B2000E55AFF4FEE0DFF1DD6018C918083F70122
:101B300080A591A5FC0143E0EE0FFF1F4A95E1F758
:101B4000880F991FE80FF91FE20FF31FEE0FFF1F19
:101B5000EE0FFF1FE55AFF4FEE0DFF1D11968C9102
:101B60008183D70198968D919C919997FC01A3E070
:101B7000EE0FFF1FAA95E1F7880F991FE80FF91FD5
:101B8000E20FF31FEE0FFF1FEE0FFF1FE55AFF4F8F
:101B9000EE0DFF1DD60112968C9112978283F701EC
:101BA00080A591A5FC0153E0EE0FFF1F5A95E1F7C8
:101BB000880F991FE80FF91FE20FF31FEE0FFF1FA9
:101BC000EE0FFF1FE55AFF4FEE0DFF1D13968C9190
:101BD00083832F5F3F4F84E090E0C80ED91E2A30E8
:101BE000310509F08ACFD70198968D919C919997EC
:101BF000019699969C938E93989709C08091340C86
:101C00009091350C01969093350C8093340C609133
:101C1000320C7091330C1BC08EE39FE00E94109336
:101C20008A97DCF1F80110826091320C7091330CCC
:101C30006F5F7F4F7093330C6093320C8091360C42
:101C40009091370C01969093370C8093360C80E678
:101C50009FE04AE050E00E941B9680E69FE060E132
:101C600072E00E944A966091340C7091350C80E6C7
:101C70009FE04AE050E00E941B9680E69FE060E112
:101C800072E00E944A966091360C7091370C80E6A3
:101C90009FE04AE050E00E942D96A9960FB6F89476
:101CA000DEBF0FBECDBFCF91DF911F910F91FF908F
:101CB000EF90DF90CF90BF90AF900895FC01E55B6F
:101CC000FE4F8081EB54F140882311F4CF017CCE8C
:101CD000813011F4CF010CCC08950F931F938C0128
:101CE0000E5A1F4FF80111821082095F1F4FF80131
:101CF000108209551040F80111A610A6065A1F4F70
:101D0000F80110820A55104080E090E0A0E0B0E0B9
:101D1000F80180839183A283B38384839583A68310
:101D2000B78380879187A287B38784879587A687A3
:101D3000B787808B918BA28BB38B848B958BA68B73
:101D4000B78B808F918FA28FB38F848F958FA68F43
:101D5000B78F80A391A3A2A3B3A384A395A3A6A3A3
:101D6000B7A380E360E00E94248F80E30E94099083
:101D7000F801E55BFE4F1082892B11F081E0808332
:101D80001F910F910895EF92FF920F931F93CF939E
:101D9000DF93EC01FC01E65AFF4F80818F5F808367
:101DA000813019F0853009F04FC06AA57BA58CA55C
:101DB0009DA520E030E04AE754E40E944E976AA7D0
:101DC0007BA78CA79DA789E20E940990C65BDF4F85
:101DD000AA2797FDA095BA2FBC01CD010E94CD98EE
:101DE000688379838A839B83CA54D04080E69FE0CE
:101DF00065EA0E947C938E01065D1F4FF4E2EF2E90
:101E0000F12CE00EF11EF80161918F01772767FD3B
:101E1000709580E69FE00E947C930E151F0599F750
:101E200080E69FE06AE50E947C936AA57BA58CA56D
:101E30009DA520E030E04AE754E40E944D976AA750
:101E40007BA78CA79DA734C0833079F588A599A579
:101E5000069770F589E20E940990C65BDF4FAA27BA
:101E600097FDA095BA2FBC01CD010E94CD98688343
:101E700079838A839B8380E69FE065EA0E947C9356
:101E8000A0978E010C5D1F4F6991772767FD7095B4
:101E900080E69FE00E947C93C017D107A9F780E6F7
:101EA0009FE06AE50E947C9303C0883009F41082A9
:101EB000DF91CF911F910F91FF90EF9008950F93B5
:101EC0001F93CF93DF93EC0188A599A5049798F50C
:101ED000FE01E65AFF4F80818F5F808384305CF182
:101EE000108289E20E940990C65BDF4FAA2797FD06
:101EF000A095BA2FBC01CD010E94CD98688379834B
:101F00008A839B838EE39FE065EA0E947C93A0977F
:101F10008E01085D1F4F6991772767FD70958EE3ED
:101F20009FE00E947C93C017D107A9F78EE39FE042
:101F30006AE50E947C93DF91CF911F910F910895E4
:101F4000FC01E55BFE4F8081EB54F140882311F4E6
:101F5000CF01B5CF813011F4CF0115CF08956F9225
:101F60007F928F929F92AF92BF92CF92DF92EF9229
:101F7000FF920F931F93FC01E555FD4F20E030E0E9
:101F800040E050E021933193419351932193319359
:101F900041935193219331934193519321933193E1
:101FA000419351932083318342835383EB5BF2400F
:101FB0000F2EF0E0AF2EF0E0BF2EF8E4CF2EF3E4CA
:101FC000DF2EF02DA6A2B7A2C0A6D1A6A2A6B3A6C8
:101FD000C4A6D5A6A6A6B7A6C0AAD1AAA2AAB3AAE5
:101FE000C4AAD5AA0F2EF0E06F2EF0E07F2EF8ECF9
:101FF0008F2EF2E49F2EF02D668E778E80A291A216
:10200000A2A2B3A2C4A2D5A2A6AAB7AAC0AED1AEBC
:10201000A2AEB3AEC4AED5AEFE96A192B192C192BD
:10202000D192A082B182C282D382E057FE4F0F2E9E
:10203000F0E0EF2EF0E0FF2EF0E80F2FFFEB1F2F68
:10204000F02DE192F1920193119380E090E0A0E8ED
:10205000BFE381939193A193B193E082F1820283D4
:102060001383EC5EFE4F11821082E052F1408AE051
:1020700097EDA3EABCE380839183A283B383EE5CF4
:10208000F14010821182EE54FE4F86E696E6A6EEEF
:10209000BFE381939193A193B19380E090E0A0E896
:1020A000B1E481939193A193B19381939193A1937F
:1020B000B19381939193A193B1930F2EF0E0EF2E02
:1020C000F0E0FF2EF0E20F2FF1E41F2FF02DE19250
:1020D000F19201931193E192F19201931193E082B5
:1020E000F18202831383E350FF4F208331834283C5
:1020F00053833897219331934193519320833183B4
:102100004283538338962083318342835383E55C33
:10211000F040219331934193519321933193419313
:10212000519321933193419351932083318342837F
:102130005383E251F2401382128215821482178275
:10214000168211861086E250FE4F11921192119262
:1021500011921192119211821082769721933193EC
:10216000419351932193319341935193219331930F
:10217000419351932083318342835383EC55F04044
:1021800080E090E0A7E0B3E481939193A193B193B1
:1021900080E090E0A0E2B3E480839183A283B383E4
:1021A00038962083318342835383529342933293F0
:1021B000229338962083318342835383E25AF0403E
:1021C0008EEA97E4ACE5B2E480839183A283B38383
:1021D000EC50F140228733874487558780E090E0B8
:1021E000A3E8B2E486879787A08BB18B80E090E06C
:1021F000AEE7B2E4828B938BA48BB58B268B378BA7
:10220000408F518FE252FE4F21933193419351936E
:10221000219331934193519321933193419351935E
:102220002083318342835383EE5BFE4F21933193AE
:102230004193519380E090E0A0EAB1E481939193BF
:10224000A193B19380839183A283B383EE5DF24027
:1022500080E090E0A0E7B1E481939193A193B193E2
:1022600081939193A193B19381939193A193B1930E
:1022700080E090E0A0EFB1E481939193A193B193BA
:1022800020E030E048E452E42193319341935193AC
:1022900021933193419351932193319341935193DE
:1022A000219331934193519380E090E0A0E7B2E411
:1022B00081939193A193B19381939193A193B193BE
:1022C00081939193A193B19381939193A193B193AE
:1022D00081939193A193B19381939193A193B1939E
:1022E00081939193A193B19380839183A283B383CC
:1022F000E857FE4F208331834283538379962083AE
:10230000318342835383799620833183428353837D
:1023100079962083318342835383FB97A082B182D5
:10232000C282D3827996A082B182C282D382799608
:10233000A082B182C282D3827996A082B182C28207
:10234000D382E35BF1406082718282829382E057A4
:10235000F040E082F18202831383EF56FD4F119229
:10236000119211921082329611821082EA59F24033
:10237000A082B182C282D382389780E090E0A0E050
:10238000BFE381939193A193B19380839183A283BF
:10239000B383E45BFF4F80839183A283B383E658CA
:1023A000FF4F80E090E0A0EFB1EC80839183A283A7
:1023B000B3831F910F91FF90EF90DF90CF90BF906C
:1023C000AF909F908F907F906F900895CF93DF9301
:1023D000FC019C0126563F4FE252FE4F80819181C5
:1023E000A281B381EE5DF140E90188839983AA83DC
:1023F000BB839F0122563F4FEE51FE4F808191815A
:10240000A281B381E25EF140E90188839983AA83C6
:10241000BB839F012E553F4FEA51FE4F8081918132
:10242000A281B381E65EF140E90188839983AA83A2
:10243000BB839F012A553F4FE651FE4F808191811A
:10244000A281B381EA5EF140E90188839983AA837E
:10245000BB8382859385A485B585E255FF4F808334
:102460009183A283B383EE5AF04086859785A08935
:10247000B189EE54FF4F80839183A283B383E25BE3
:10248000F04082899389A489B589EA54FF4F8083FB
:102490009183A283B383E65BF04086899789A08D00
:1024A000B18DE654FF4F80839183A283B383EA5BAF
:1024B000F040828D938DA48DB58DE254FF4F8083C3
:1024C0009183A283B383DF91CF9108950F931F93DC
:1024D000CF93DF93EB0108891989101611060CF5CB
:1024E0006AA17BA18CA19DA12AE037ED43EA5CE3C0
:1024F0000E941B9A6E8F7F8F88A399A36AA17BA1EC
:102500008CA19DA12E893F89488D598D0E944E979F
:102510006AA37BA38CA39DA301501040198B088B49
:1025200039C00A891B89101611069CF46AA17BA187
:102530008CA19DA12AE037ED43EA5CE30E941B9A3F
:102540006E8F7F8F88A399A3015010401B8B0A8B3D
:1025500021C00C891D8910161106E4F46AA17BA123
:102560008CA19DA12E893F89488D598D0E944D9740
:102570006AA37BA38CA39DA32AE037ED43EA5CE327
:102580000E941B9A6E8F7F8F88A399A301501040E1
:102590001D8B0C8B40E050E08A899B892889398902
:1025A000820F931F2C893D89820F931F892B11F471
:1025B00041E050E0CA01DF91CF911F910F91089542
:1025C0008F929F92AF92BF92CF92DF92EF92FF9243
:1025D0000F931F93CF93DF93EC018B01685B7F4FC9
:1025E00075DF4C01E6E6CE2ED12CC00ED11EF601D1
:1025F0006081718182819381F801208531854285D6
:1026000053850E941B9AF80120A531A542A553A528
:102610000E9432989B01AC01F80164AF75AF86AFA0
:1026200097AF76E7A72EB12CA00EB11EF501608101
:102630007181828193810E944E97F501608371833D
:1026400082839383F6016081718182819381F80195
:1026500024853585468557850E941B9AF80120A55B
:1026600031A542A553A50E9432989B01AC01005CA4
:102670001F4FF8016083718382839383005410405D
:102680006AE7E62EF12CE00EF11EF7016081718100
:10269000828193810E944E97F701608371838283C8
:1026A0009383F6016081718182819381F801208991
:1026B0003189428953890E941B9AF80120A531A5CE
:1026C00042A553A50E9432989B01AC010C5B1F4FA1
:1026D000F8016083718382839383065C1F4FF80146
:1026E00060817181828193810E944E97F80160839D
:1026F000718382839383C450DD4F688179818A819D
:102700009B81F50120813181428153810E944D9747
:10271000C25BDF4F688379838A839B83CA54D3402B
:10272000C050DD4F688179818A819B81F7012081CA
:102730003181428153810E944E97C25BDF4F688393
:1027400079838A839B83CE54D340CC5FDC4F6881EE
:1027500079818A819B81F801208131814281538175
:102760000E944E97C25BDF4F688379838A839B8385
:10277000C255D3408114910489F081E08883198285
:10278000CC51DC4F88819981AA81BB8180936E0CEA
:1027900090936F0CA093700CB093710CC401DF91F7
:1027A000CF911F910F91FF90EF90DF90CF90BF904E
:1027B000AF909F908F9008952F923F924F925F928B
:1027C0006F927F928F929F92AF92BF92CF92DF9241
:1027D000EF92FF920F931F93DF93CF93CDB7DEB7A6
:1027E0006E970FB6F894DEBF0FBECDBF9B01225986
:1027F0003F4FD901ED90FD900D911C911397AE566E
:10280000B040BE8FAD8F82E8C82ED12CCA0EDB1E21
:10281000F6016081718182819381A80197010E94F4
:10282000109A181634F4D601ED92FD920D931C9374
:102830001397ED8DFE8DE259FF4FE080F18002810C
:102840001381EE56F040FE8FED8FAAE8CA2ED12CF0
:10285000CE0EDF1ED6016D917D918D919C91A801C8
:1028600097010E94109A18162CF4F601E082F1826A
:10287000028313832D8D3E8D22593F4F3E8F2D8F26
:10288000D9012D903D904D905C90C201B101A20103
:1028900091010E941B9A6093400C7093410C8093AD
:1028A000420C9093430CED8DFE8D7496FE8FED8F50
:1028B0006080718082809380C401B301A401930180
:1028C0000E941B9A6093440C7093450C8093460CB5
:1028D0009093470C2D8D3E8D285F3F4FD9018D91F0
:1028E0009D910D90BC91A02D8D839E83AF83B88761
:1028F0002A5830403E8F2D8FBC01CD019B01AC0189
:102900000E941B9A6093480C7093490C80934A0C68
:1029100090934B0CED8DFE8D60A571A582A593A5BE
:1029200027E137EB41ED58E30E94109A18160CF09E
:1029300035C7E090400CF090410C0091420C109192
:10294000430C6091440C7091450C8091460C909121
:10295000470CA090480CB090490CC0904A0CD09005
:102960004B0C20E030E040E05FEB0E941B9A9B01A3
:10297000AC01C801B7010E944E977B018C01C601D2
:10298000B50120E030E040E05FEB0E941B9A9B0124
:10299000AC01C801B7010E944E97AD8DBE8D9C96CB
:1029A0002D913D914D915C919F970E94329860933B
:1029B000380C7093390C80933A0C90933B0C6091D7
:1029C000380C7091390C80913A0C90913B0CED8D44
:1029D000FE8D20A531A542A553A50E942B9818165F
:1029E0000CF482C02D8D3E8D2A573F4FD9012D9278
:1029F0003D924D925C921397A658B040BE8FAD8F1A
:102A00002091380C3091390C40913A0C50913B0C8C
:102A100098966D917D918D919C919B970E944D9779
:102A20007B018C01C201B1012AE037ED43EA5CE38E
:102A30000E941B9A9B01AC01C801B7010E94329809
:102A400020E030E040E05FE30E944E970E949A98B9
:102A5000ED8DFE8DE65AFF4F71836083EA55F0409D
:102A6000FE8FED8FC201B101A40193010E944D9729
:102A70000D8D1E8D025A1F4FD8012D913D914D9104
:102A80005C910E94329820E030E040E05FE30E94D9
:102A90004E970E949A98ED8DFE8DE85AFF4F7183F4
:102AA00060833496FE8FED8FC201B1012D813E818E
:102AB0004F8158850E944D97D8012D913D914D91A0
:102AC0005C910E94329820E030E040E05FE30E9499
:102AD0004E970E949A98ED8DFE8D71836083EC5520
:102AE000F040FE8FED8F55C26091480C7091490CFB
:102AF00080914A0C90914B0C2091440C3091450CE4
:102B00004091460C5091470C0E944D9720E030E0D8
:102B100040E05FE30E941B9AAD8DBE8D9C962D9187
:102B20003D914D915C919F970E94329860933C0C2F
:102B300070933D0C80933E0C90933F0CED8DFE8D79
:102B400020A431A442A453A4E0903C0CF0903D0C8E
:102B500000913E0C10913F0CC801B70120E030E01D
:102B600040E050E00E942B98882324F417FB109536
:102B700017F91095C201B101A80197010E942B9885
:102B800018160CF4ABC060913C0C70913D0C809118
:102B90003E0C90913F0C20E030E040E050E00E947D
:102BA000109AE2E86E2E712C2D8D3E8D620E731EF2
:102BB0007AE8872E912C820E931E66E8C62ED12CC1
:102BC000C20ED31E265A3F4F388F2F8B4D8D5E8DF0
:102BD000485A5F4F5A8F498F5EE5A52EB12CAD8DB7
:102BE000BE8DAA0EBB1EA45ABF4FBC8FAB8FED8DFE
:102BF000FE8D24A535A546A557A588230CF444C011
:102C0000E090440CF090450C0091460C1091470C5C
:102C1000CA01B9010E944E97A20191010E941B9A1C
:102C2000A80197010E944E970E94889AD6016D9341
:102C30007D938D939C931397F401608371838283BA
:102C40009383AF89B88D1D921C92F301208131814D
:102C5000428153810E944D97D5012D913D914D9117
:102C60005C910E94329820E030E040E05FE30E94F7
:102C70004E970E949A98E98DFA8D71836083AB8D8F
:102C8000BC8D1D921C9285C1E090480CF090490CBF
:102C900000914A0C10914B0CCA01B9010E944E9749
:102CA000A20191010E941B9AA80197010E944E97D0
:102CB0000E94889AF6016083718382839383D30193
:102CC0006D937D938D939C931397EF89F88D11826B
:102CD0001082A98DBA8D1D921C9241C12D8D3E8D01
:102CE0002E573F4FD9018D919D910D90BC91A02DF4
:102CF00089839A83AB83BC83225830403E8F2D8FCB
:102D0000F901E259FF4F60817181828193812DEC3D
:102D10003CEC4CEC5DE30E941B9A7B018C016981C9
:102D20007A818B819C81A80197010E942B9888232E
:102D30000CF0A9C0ED8DFE8DE657FF4FFA8BE98BA5
:102D40006081718182819381A80197010E942B98F3
:102D500088230CF098C0A090440CB090450CC09013
:102D6000460CD090470C6090480C7090490C8090B5
:102D70004A0C90904B0CC201B101AD8DBE8D9C965A
:102D80002D913D914D915C919F970E941B9A7B01E3
:102D90008C01C601B50120E030E040E05FE30E9415
:102DA0001B9A9B01AC01C801B7010E944E977B01A1
:102DB0008C01C401B30120E030E040E05FE30E94F9
:102DC0001B9A9B01AC01C801B7010E944E970E945B
:102DD000889A7B018C01ED8DFE8DEA57FF4FDF0154
:102DE0006D937D938D939C931397A658B040BE8F9F
:102DF000AD8F29813A814B815C810E944D974EE5D0
:102E0000C42ED12CED8DFE8DCE0EDF1ED6012D9160
:102E10003D914D915C910E94329820E030E040E07D
:102E20005FE30E944E970E949A98ED8DFE8DE85ABE
:102E3000FF4F71836083329611921192FE8FED8F56
:102E4000C801B701A989BA892D913D914D915C9135
:102E50000E944D97F60120813181428153810E9469
:102E6000329820E030E040E05FE30E944E970E94FD
:102E70009A98AD8DBE8D11967C936E93AC55B040F3
:102E8000BE8FAD8F86C060913C0C70913D0C8091DF
:102E90003E0C90913F0C20E030E040E050E00E947A
:102EA000109A32E8632E712CED8DFE8D6E0E7F1E12
:102EB0002AE8822E912C8E0E9F1E96E8C92ED12CC8
:102EC000CE0EDF1EE85AFF4FFA8FE98F0EE5A02ED7
:102ED000B12C2D8D3E8DA20EB31E245A3F4F3C8F38
:102EE0002B8F88234CF1D4016D917D918D919C9114
:102EF000F6016083718382839383D3012D913D9189
:102F00004D915C910E944D97F50120813181428164
:102F100053810E94329820E030E040E05FE30E945D
:102F20004E970E949A98A98DBA8D6D937C93EB8DE4
:102F3000FC8D118210822DC029813A814B815C81E8
:102F4000D6012D933D934D935C931397E98DFA8DA4
:102F500011821082D3016D917D918D919C91F4012C
:102F600020813181428153810E944D97D5012D915D
:102F70003D914D915C910E94329820E030E040E01C
:102F80005FE30E944E970E949A98EB8DFC8D7183AF
:102F900060832D8D3E8D285A3F4FD9018D919C9194
:102FA00011979093610C8093600C14968D919D9174
:102FB0009093650C8093640CFD0180819181A281C6
:102FC000B38180936A0C90936B0CA0936C0CB093BC
:102FD0006D0CB49680819181A281B381E258F0405A
:102FE000FE8FED8F8093660C9093670CA093680C16
:102FF000B093690C6091600C7091610CA090660CAC
:10300000B090670CC090680CD090690CE090600C98
:10301000F090610C60906A0C70906B0C80906C0C5E
:1030200090906D0C882777FD8095982F0E94CD9801
:103030001B012C01C601B501A60195010E944E9706
:103040005B016C010894E108F1080027F7FC00958A
:10305000102FC801B7010E94CD98A40193010E94CE
:103060001B9A9B01AC01C601B5010E944E979B01C2
:10307000AC01C201B1010E941B9A2AE037ED43EA7C
:103080005CE30E941B9A20E030E040E05FE30E9496
:103090001B9A60934C0C70934D0C80934E0C909344
:1030A0004F0C8091600C9091610C181619060CF071
:1030B00071C06091640C7091650C6090660C7090AA
:1030C000670C8090680C9090690CE090600CF09018
:1030D000610C20906A0C30906B0C40906C0C5090FE
:1030E0006D0CA090640CB090650C20916A0C30912E
:1030F0006B0C40916C0C50916D0C2D873E874F8767
:10310000588B882777FD8095982F0E94CD986B8BE0
:103110007C8B8D8B9E8BC401B301A40193010E9413
:103120004E973B014C010894E108F108EE0CFF1C9E
:103130000027F7FC0095102FC801B7010E94CD9819
:10314000A20191010E941B9A9B01AC01C401B30131
:103150000E944E977B018C010894A108B108CC24F1
:10316000B7FCC094DC2CC601B5010E94CD982D851A
:103170003E854F8558890E941B9A9B01AC01C8016E
:10318000B7010E944D979B01AC016B897C898D89A9
:103190009E8941C06091640C7091650CA090660C92
:1031A000B090670CC090680CD090690CE090640CF3
:1031B000F090650C60906A0C70906B0C80906C0CB9
:1031C00090906D0C882777FD8095982F0E94CD9860
:1031D0001B012C01C601B501A60195010E944E9765
:1031E0005B016C010894E11CF11C0027F7FC0095C1
:1031F000102FC801B7010E94CD98A40193010E942D
:103200001B9A9B01AC01C601B5010E944D979B0121
:10321000AC01C201B1010E941B9A2AE037ED43EADA
:103220005CE30E941B9A20E030E040E05FE30E94F4
:103230001B9A6093540C7093550C8093560C90938A
:10324000570C20914C0C30914D0C40914E0C5091EC
:103250004F0CA090540CB090550CC090560CD090D0
:10326000570C2090660C3090670C4090680C509082
:10327000690CE090600CF090610C60906A0C7090AA
:103280006B0C80906C0C90906D0CAD8DBE8D9896F3
:103290006D917D918D919C919B970E944D97A60178
:1032A00095010E944D9720E030E048E452E40E94EE
:1032B0001B9A5B016C010027F7FC0095102FC801D9
:1032C000B7010E94CD98A40193010E941B9A9B0113
:1032D000AC01C201B1010E944E979B01AC01C60135
:1032E000B5010E9432980E949A989B01ED8DFE8D47
:1032F000E65AFF4F718360837093630C6093620C96
:103300004D8D5E8D485A5F4FDA018D919C911197DA
:10331000820F931F14962D913C911197AC55B0409C
:10332000BE8FAD8F820F931F892B21F481E090E037
:1033300091838083ED8DFE8DE65AFF4FA080B18092
:10334000EA55F040FE8FED8FB092630CA092620CB4
:103350006091620C7091630C2091660C3091670C47
:103360004091680C5091690C29873A874B875C879C
:10337000E090600CF090610C60906A0C70906B0CA7
:1033800080906C0C90906D0C882777FD8095982F1D
:103390000E94CD981B012C010027F7FC0095102FEF
:1033A000C801B7010E94CD98A40193010E941B9A05
:1033B0009B01AC0169857A858B859C850E944E971F
:1033C0009B01AC01C201B1010E941B9A2AE037EDBA
:1033D00043EA5CE30E941B9A6093500C7093510C7B
:1033E0008093520C9093530C60914C0C70914D0C47
:1033F00080914E0C90914F0C2091500C3091510CBB
:103400004091520C5091530CE090540CF090550C9C
:103410000091560C1091570C0E944E97A8019701ED
:103420000E944E976093580C7093590C80935A0CDD
:1034300090935B0C2091580C3091590C40915A0C90
:1034400050915B0CAD8DBE8D98966D917D918D9157
:103450009C919B970E944D9760935C0C70935D0CC0
:1034600080935E0C90935F0CED8DFE8DE85AFF4FBC
:1034700080819181A80EB91E349680819181A80E19
:10348000B91ECC24B7FCC094DC2C3897FE8FED8F8E
:10349000A082B182C282D38260915C0C70915D0C7B
:1034A00080915E0C90915F0C20E030E048E452E4A3
:1034B0000E941B9A7B018C01C601B5010E94CD9828
:1034C0009B01AC01C801B7010E9432987B018C01BD
:1034D000ED8DFE8D7E96DF016D937D938D939C9394
:1034E0001397A257B040BE8FAD8F20E030E040E090
:1034F00050E00E94109A181624F017FB109517F947
:10350000109520916A0C30916B0C40916C0C50918D
:103510006D0CC801B7010E94109A1816A4F480918E
:103520006A0C90916B0CA0916C0CB0916D0CED8DB0
:10353000FE8DEE58FF4F80839183A283B383E257C1
:10354000F040FE8FED8F8091600C9091610C181609
:1035500019060CF044C18091640C9091650C18160A
:1035600019060CF03CC16090660C7090670C80905E
:10357000680C9090690C6091600C7091610CA09047
:103580006A0CB0906B0CC0906C0CD0906D0CE090FD
:10359000640CF090650C20906A0C30906B0C40909D
:1035A0006C0C50906D0C882777FD8095982F0E94A9
:1035B000CD98A60195010E941B9A9B01AC01C40104
:1035C000B3010E944E975B016C010027F7FC009548
:1035D000102FC801B7010E94CD98A20191019FC090
:1035E0008091640C9091650C892B09F0FFC060916B
:1035F000660C7091670C8091680C9091690CED8D50
:10360000FE8DEE58FF4FFE8FED8F2081318142817C
:1036100053810E944E972D8D3E8D285E3F4FD901DC
:1036200097C08091620C9091630CBAE88B2E912C1C
:10363000ED8DFE8D8E0E9F1EA2E76A2E712C6E0EF2
:103640007F1E18161906BCF0A090660CB090670C8F
:10365000C090680CD090690C6091600C7091610C06
:10366000E0906A0CF0906B0C00916C0C10916D0C5A
:103670006150704014C0A090660CB090670CC09070
:10368000680CD090690C6091600C7091610CE090B6
:103690006A0CF0906B0C00916C0C10916D0C8827EB
:1036A00077FD8095982F0E94CD98A80197010E94E0
:1036B0001B9A9B01AC01C601B5010E944E97D30134
:1036C0002D913D914D915C910E944E97F401608344
:1036D00071838283938345C08091600C9091610CCB
:1036E00018161906F4F1A090660CB090670CC09003
:1036F000680CD090690C6091640C7091650CE0903E
:103700006A0CF0906B0C00916C0C10916D0C88277A
:1037100077FD8095982F0E94CD98A80197010E946F
:103720001B9A9B01AC01C601B5010E944D972D8DDE
:103730003E8D2E583F4F3E8F2D8FD9012D913D91BB
:103740004D915C910E944E97ED8DFE8D7896DF0134
:103750006D937D938D939C931397AA58B040BE8F21
:10376000AD8FED8DFE8DEE58FF4F2D8D3E8D2E577A
:103770003F4F3E8F2D8FD9016D917D918D919C9101
:1037800020813181428153810E944E97ED8DFE8DC3
:103790007897608371838283938331C0ED8DFE8D32
:1037A000E45BFF4FDF0110821182128213821C96AC
:1037B00011961C921E92FD01129212921292129276
:1037C00036961192119211821082749780E590E0E2
:1037D00081939193FE8FED8F9183808310C08091B0
:1037E000600C9091610C892B09F4FACE8091640CE5
:1037F0009091650C181619060CF46ECF12CF6E96C8
:103800000FB6F894DEBF0FBECDBFCF91DF911F91F1
:103810000F91FF90EF90DF90CF90BF90AF909F906F
:103820008F907F906F905F904F903F902F90089572
:103830002F923F924F925F926F927F928F929F92C0
:10384000AF92BF92CF92DF92EF92FF920F931F93AE
:10385000DF93CF93CDB7DEB768970FB6F894DEBF8E
:103860000FBECDBF1C014D875E876F87788BC90166
:10387000B8012EE931E0220E331EF1012191319180
:10388000419151912D833E834F83588721913191EE
:10389000419151911F0129833A834B835C8320E03E
:1038A00030E044E353E40E94329829EF3FE049E4DA
:1038B00050EC0E941B9A29EF3FE049EC5FE30E9425
:1038C0004E972B013C01C701B60120E030E044E3F4
:1038D00053E40E94329829EF3FE049E450E40E940B
:1038E0001B9A698B7A8B8B8B9C8BB201C3010E94D4
:1038F0002F987B018C0129893A894B895C89B90110
:10390000CA010E942F9869877A878B879C876D816F
:103910007E818F819885A80197010E941B9A7B0167
:103920008C0169817A818B819C8129853A854B85BF
:103930005C850E941B9A9B01AC01C801B7010E94E3
:103940004E97F10120813181428153810E944E972F
:1039500026E63FEF220E331EF101208131814281A4
:1039600053810E944E976D8B7E8B8F8B988FB20107
:10397000C3010E947E9A7B018C0129893A894B8977
:103980005C89B901CA010E947E9A2B013C016D81BC
:103990007E818F819885A80197010E941B9A7B01E7
:1039A0008C0169817A818B819C81A30192010E94A3
:1039B0001B9A9B01AC01C801B7010E944D972EE9EB
:1039C00030E0220E331EF10121913191419151914C
:1039D0001F010E944E97F101208131814281538164
:1039E0000E944D972B013C016D857E858F859889BE
:1039F00020E030E044E353E40E94329829EF3FE0B6
:103A000049E450E40E941B9A7B018C01C8010E948A
:103A10002F989B01AC016D897E898F89988D0E94BA
:103A20001B9AEEA5FFA56083718382839383B70100
:103A3000C8010E947E9A9B01AC016D897E898F89A5
:103A4000988D0E941B9AEEA5FFA5648375838683DB
:103A50009783C201D30180879187A287B387C5016D
:103A6000B4012D853E854F8558890E944E97EEA55D
:103A7000FFA5648775878687978768960FB6F89441
:103A8000DEBF0FBECDBFCF91DF911F910F91FF9091
:103A9000EF90DF90CF90BF90AF909F908F907F90EE
:103AA0006F905F904F903F902F9008952F923F928C
:103AB0004F925F926F927F928F929F92AF92BF923E
:103AC000CF92DF92EF92FF920F931F93DF93CF93EA
:103AD000CDB7DEB7C854D0400FB6F894DEBF0FBEE6
:103AE000CDBF2C0149AF5AAF6BAF7CAF21960CAF65
:103AF0001DAF2EAF3FAF21972596CCAEDDAEEEAE1B
:103B0000FFAE259729968CAE9DAEAEAEBFAE29977F
:103B10002EEC31E0420E531EF201E080F180028172
:103B2000138122E33EEF420E531ECB01BA01A801DE
:103B300097010E941B9AF2012285338544855585A1
:103B40000E944E976DAB7EAB8FAB98AF21966CAD5C
:103B50007DAD8EAD9FAD2197A80197010E941B9A64
:103B6000F20126853785408951890E944E9769ABBD
:103B70007AAB8BAB9CAB25966CAD7DAD8EAD9FAD1E
:103B80002597A80197010E941B9AF2012289338987
:103B9000448955890E944E976DA77EA78FA798AB41
:103BA000C501B401A80197010E941B9AF201268960
:103BB0003789408D518D0E944E9769A77AA78BA7B0
:103BC0009CA70F920F92CE010196EDB7FEB792839C
:103BD0008183C2014DA95EA96FA978AD09A91AA96F
:103BE0002BA93CA9CDA4DEA4EFA4F8A889A49AA48B
:103BF000ABA4BCA41DDEE980FA800B811C81AD80E2
:103C0000BE80CF80D8840F900F906DA97EA98FA918
:103C100098AD20E030E044E353EC0E942B988823D9
:103C200064F469AD7AAD8BAD9CAD20E030E040E04E
:103C300050E00E942B9887FD06C16DA97EA98FA92F
:103C400098AD20E030E044E353E40E94109A181647
:103C50006CF469AD7AAD8BAD9CAD20E030E040E016
:103C600050E00E94109A18160CF4EDC069A97AA9C8
:103C70008BA99CA920E030E040EA50EC0E942B98F0
:103C8000882374F421966CAD7DAD8EAD9FAD2197E8
:103C900020E030E040E050E00E942B9887FDD3C048
:103CA00069A97AA98BA99CA920E030E04AEA52E4EC
:103CB0000E94109A18167CF421966CAD7DAD8EADE5
:103CC0009FAD219720E030E040E050E00E94109A44
:103CD00018160CF4B8C06DA57EA58FA598A920E094
:103CE00030E040E251EC0E942B98882374F4259632
:103CF0006CAD7DAD8EAD9FAD259720E030E040E00E
:103D000050E00E942B9887FD9EC06DA57EA58FA5D3
:103D100098A920E030E04EEB52E40E94109A181669
:103D20007CF425966CAD7DAD8EAD9FAD259720E0E2
:103D300030E040E050E00E94109A18160CF483C066
:103D400069A57AA58BA59CA520E030E044EB52EC58
:103D50000E942B98882374F429966CAD7DAD8EADAE
:103D60009FAD299720E030E040E050E00E942B9882
:103D700087FD69C069A57AA58BA59CA520E030E0E8
:103D800044EB52E40E94109A18167CF429966CAD0C
:103D90007DAD8EAD9FAD299720E030E040E050E052
:103DA0000E94109A18160CF44EC0C801B701A80161
:103DB00097010E941B9A7B018C01C601B501A601E7
:103DC00095010E941B9A9B01AC01C801B7010E949A
:103DD0004E970E94889A7B018C0120E030E840EAEF
:103DE00053E40E94109A181674F1C801B70120E03C
:103DF00030E041E053E40E942B9887FD24C06985A0
:103E00007A858B859C8520E030E048E053E40E9471
:103E1000109A1816C4F069A97AA98BA99CA920E068
:103E200030E044EB52E40E944E972DA53EA54FA5ED
:103E300058A90E944D9720E030E04AEF52E40E94DA
:103E4000109A18166CF4F2011382128215821482F1
:103E5000178216821186108681E080831182FBC250
:103E6000820102531E4F69AD7AAD8BAD9CADF80156
:103E700020813181428153810E941B9A6B017C0118
:103E8000F2016285738584859585A70196010E945C
:103E90004E97F201628773878487958721966CAD70
:103EA0007DAD8EAD9FAD2197F8012081318142819A
:103EB00053810E941B9A9B01AC01F20166857785B4
:103EC000808991890E944E97F20166877787808B5F
:103ED000918B25966CAD7DAD8EAD9FAD2597F8018C
:103EE00020813181428153810E941B9A9B01AC0148
:103EF000F20162897389848995890E944E97F20143
:103F0000628B738B848B958B29966CAD7DAD8EAD5A
:103F10009FAD2997F80120813181428153810E9410
:103F20001B9A9B01AC01F20166897789808D918D86
:103F30000E944E97F201668B778B808F918F76E08F
:103F4000272E72E0372E240C351CEE54FE4FC7018D
:103F5000B60120813181428153810E943298F20161
:103F6000EA54FE4F20813181428153810E941B9A85
:103F7000F201EE53FE4F20813181428153810E9434
:103F80001B9AF10120813181428153810E944E9719
:103F90003B014C01F10160837183828393839F779E
:103FA00020E030E040E85FE30E942B98882324F46F
:103FB000F2011382128233C0C401B3010E949A98A5
:103FC0007B018C01B701882777FD8095982F0E948F
:103FD000CD985B016C01C401B301A60195010E945B
:103FE0004D97F1016083718382839383F201E250E4
:103FF000FE4F80819181E80EF91EF182E082F2018C
:10400000EE52FE4FC601B5012081318142815381BC
:104010000E941B9A0E949A98F201738362836AE05D
:10402000262E62E0362E240C351CF201E253FE4FA0
:1040300021966CAD7DAD8EAD9FAD219720813181F4
:10404000428153810E941B9AF201EE54FE4F20815F
:104050003181428153810E943298F201E654FE4F31
:1040600020813181428153810E941B9AF201EA53DF
:10407000FE4F20813181428153810E941B9AF101C0
:1040800020813181428153810E944E973B014C0136
:10409000F10160837183828393839F7720E030E016
:1040A00040E85FE30E942B98882324F4F2011582F4
:1040B000148233C0C401B3010E949A987B018C0121
:1040C000B701882777FD8095982F0E94CD985B01D6
:1040D0006C01C401B301A60195010E944D97F10145
:1040E0006083718382839383F201E050FE4F80816D
:1040F0009181E80EF91EF182E082F201EA52FE4F50
:10410000C601B50120813181428153810E941B9AF1
:104110000E949A98F201758364835EE0252E52E036
:10412000352E240C351CF201E253FE4F25966CAD62
:104130007DAD8EAD9FAD2597208131814281538128
:104140000E941B9AF201EE54FE4F20813181428180
:1041500053810E943298F201E254FE4F2081318156
:10416000428153810E941B9AF201E653FE4F208147
:104170003181428153810E941B9AF101208131815A
:10418000428153810E944E973B014C01F1016083B3
:104190007183828393839F7720E030E040E85FE380
:1041A0000E942B98882324F4F2011782168233C0D0
:1041B000C401B3010E949A987B018C01B701882742
:1041C00077FD8095982F0E94CD985B016C01C4010A
:1041D000B301A60195010E944D97F101608371839F
:1041E00082839383F201EE5FFD4F80819181E80E1F
:1041F000F91EF182E082F201E652FE4FC601B501DE
:1042000020813181428153810E941B9A0E949A9899
:10421000F2017783668342E1842E42E0942E840C7F
:10422000951CF201E253FE4F29966CAD7DAD8EAD2B
:104230009FAD299720813181428153810E941B9A31
:10424000F201EE54FE4F20813181428153810E9460
:104250003298F40120813181428153810E944E972E
:104260005B016C01F40160837183828393839F7788
:1042700020E030E040E85FE30E942B98882324F49C
:10428000F2011186108628C0C601B5010E949A98D5
:104290007B018C01B701882777FD8095982F0E94BC
:1042A000CD989B01AC01C601B5010E944D97F40168
:1042B0006083718382839383F201EC5FFD4F808181
:1042C00091818E0D9F1D91838083F094E194F1087C
:1042D000F394F201F186E0863EEEE32E31E0F32E18
:1042E000E40CF51C2EEF31E0420E531EF20160810A
:1042F000718122E03EEF420E531E882777FD8095A4
:10430000982F0E94CD98F201EA54FE4F208131810E
:10431000428153810E943298F201EE53FE4F208178
:104320003181428153810E94329882010E541E4F86
:10433000F80120813181428153810E941B9AF7014B
:10434000608371838283938322EFE22E21E0F22E39
:10435000E40CF51C20E032E0420E531EF2016081B5
:10436000718120E03EEF420E531E882777FD809535
:10437000982F0E94CD98F201E654FE4F20813181A2
:10438000428153810E943298F201EA53FE4F20810C
:104390003181428153810E943298F801208131811C
:1043A000428153810E941B9AF7016083718382834B
:1043B000938396EFE92E91E0F92EE40CF51C22E0B0
:1043C00032E0420E531EF20160817181882777FD31
:1043D0008095982F0E94CD982CEB3FEF420E531EF4
:1043E000F20120813181428153810E9432982CE078
:1043F00030E0420E531EF20120813181428153810F
:104400000E943298F80120813181428153810E94BB
:104410001B9AF70160837183828393832AE330E0E0
:10442000420E531EF20160817181882777FD8095CD
:10443000982F0E94CD98F8012081318142815381CB
:104440000E941B9A26EF3FEF420E531EF20160833B
:10445000718382839383C85BDF4F0FB6F894DEBF0E
:104460000FBECDBFCF91DF911F910F91FF90EF90C5
:10447000DF90CF90BF90AF909F908F907F906F9084
:104480005F904F903F902F9008958F929F92AF92A0
:10449000BF92CF92DF92EF92FF920F931F93CF9331
:1044A000DF93EC01C45DDC4FE880F9800A811B8159
:1044B000CC52D340C801B70120E030E040E050E0EA
:1044C0000E942B98882319F481E0888319C1C85C65
:1044D000DC4F88819981C853D3408130910561F0C8
:1044E0008330910549F08530910531F08730910591
:1044F00019F08B30910541F5C801B70120E030E09B
:1045000040E050E00E94109AFCE2CF2EF3E0DF2E54
:10451000CC0EDD1E18160CF051C0FE01EC5CFC4FF9
:10452000DE01A253BE4F60817181828193812D9102
:104530003D914D915C910E941B9A9B01AC01C80179
:10454000B7010E944D9734C08230910559F08430F4
:10455000910541F08630910529F08830910511F0E0
:104560000C97A9F5C801B70120E030E040E050E029
:104570000E942B98ECE2CE2EE3E0DE2ECC0EDD1E68
:104580008823E4F4FE01EC5CFC4FDE01A253BE4F35
:1045900060817181828193812D913D914D915C91DA
:1045A0000E941B9A9B01AC01C801B7010E944E9763
:1045B000F60160837183828393830BC080E090E077
:1045C000A0E0B0E0F60180839183A283B38381E011
:1045D0008883C85CDC4F88819981C853D34085307B
:1045E000910509F44CC0863091058CF48230910518
:1045F00021F18330910524F4019709F081C01DC099
:104600008330910551F1049709F07AC026C08830B3
:10461000910509F446C0893091053CF48630910536
:1046200071F1079709F06CC03CC08B30910509F41B
:104630004BC00C9709F064C047C0C45DDC4F488193
:1046400059816A817B81CC52D340CE0100E010E0D9
:1046500020E030E0680179010FC0C45DDC4F0881C3
:1046600019812A813B81CC52D340CE0140E050E0F9
:1046700060E070E06A017B014601570123C0C45D20
:10468000DC4FC880D980EA80FB80CC52D340CE0179
:1046900040E050E060E070E08A019B014A015B016C
:1046A00011C0C45DDC4F88809980AA80BB80CC5249
:1046B000D340CE0140E050E060E070E08A019B0111
:1046C0006A017B01F3D91CC0FE01E45DFC4FDE01F1
:1046D000A253BE4F60817181828193812D913D9162
:1046E0004D915C910E941B9A9B01AC016A8D7B8D60
:1046F0008C8D9D8D0E944E976A8F7B8F8C8F9D8FA6
:10470000DF91CF911F910F91FF90EF90DF90CF90AD
:10471000BF90AF909F908F9008954F925F926F924D
:104720007F928F929F92AF92BF92CF92DF92EF9241
:10473000FF920F931F93CF93DF93EC0165307105C8
:1047400009F4F0C166307105CCF46230710509F4EA
:1047500099C0633071054CF46115710509F493C477
:104760006130710509F090C422C06330710509F40D
:10477000FBC06430710509F087C461C16830710500
:1047800009F41BC3693071054CF46630710509F4F6
:1047900035C26730710509F077C4A3C26B3071056B
:1047A00009F47EC36C30710509F06EC4EEC38C0150
:1047B000005D1C4FFC01EA5AFF4FCA56DF4F608173
:1047C000718182819381288139814A815B810E9434
:1047D0001B9A6B017C01F801608371838283938350
:1047E000E097488059806A807B80C253DD4F4882C1
:1047F00059826A827B82C453D3408E01045D1C4F70
:10480000F80180809180A280B380C501B401A70126
:1048100096010E942B988823BCF4FE01E253FE4FC0
:10482000C301B20120813181428153810E941B9AD0
:104830009B01AC01C501B4010E944E97F801608351
:1048400071838283938305C0F801C082D182E282A2
:10485000F38281E08883C45DDC4F488159816A819D
:104860007B81CC52D340CE0100E010E020E030E06C
:10487000680179014801590119D9C85CDC4F81E010
:1048800090E0FEC38C01005D1C4FFC01EA5AFF4F13
:10489000CA56DF4F6081718182819381288139817D
:1048A0004A815B810E941B9AF80160837183828335
:1048B0009383E097688079808A809B80C253DD4F24
:1048C000688279828A829B82C453D3402CE2422E32
:1048D00023E0522E4C0E5D1EF201A080B180C280FA
:1048E000D3807B018C0117FB109517F91095C60139
:1048F000B501A80197010E94109A1816BCF4FE0198
:10490000E253FE4FC401B3012081318142815381C2
:104910000E941B9A9B01AC01C601B5010E944D97F4
:10492000F201608371838283938305C0F201E08288
:10493000F1820283138381E08883C45DDC4F488168
:1049400059816A817B81CC52D340CE0100E010E0D6
:1049500020E030E06801790148015901A7D8C85C1E
:10496000DC4F82E090E08CC38C01005D1C4FFC01A9
:10497000E65AFF4FCA56DF4F608171818281938171
:10498000288139814A815B810E941B9A6B017C01DD
:10499000F8016083718382839383AC974880598048
:1049A0006A807B80C653DD4F488259826A827B824F
:1049B000C453D3408E01045D1C4FF8018080918068
:1049C000A280B380C501B401A70196010E942B9873
:1049D0008823BCF4FE01E253FE4FC301B2012081E3
:1049E0003181428153810E941B9A9B01AC01C50118
:1049F000B4010E944E97F801608371838283938390
:104A000005C0F801C082D182E282F38281E088830E
:104A1000C45DDC4F088119812A813B81CC52D3408F
:104A2000CE0140E050E060E070E06A017B014A01A5
:104A30005B013CD8C85CDC4F83E090E021C38C0173
:104A4000005D1C4FFC01E65AFF4FCA56DF4F6081E4
:104A5000718182819381288139814A815B810E94A1
:104A60001B9AF8016083718382839383AC9768807B
:104A700079808A809B80C653DD4F688279828A82E2
:104A80009B82C453D3400CE2402E03E0502E4C0EC8
:104A90005D1EF201A080B180C280D3807B018C01B9
:104AA00017FB109517F91095C601B501A8019701DC
:104AB0000E94109A1816BCF4FE01E253FE4FC40186
:104AC000B30120813181428153810E941B9A9B0155
:104AD000AC01C601B5010E944D97F201608371835C
:104AE0008283938305C0F201E082F1820283138303
:104AF00081E08883C45DDC4F088119812A813B8174
:104B0000CC52D340CE0140E050E060E070E06A015A
:104B10007B014A015B010E94561DC85CDC4F84E0AA
:104B200090E0AEC28C01005D1C4FFC01E25AFF4FC9
:104B3000CA56DF4F608171818281938128813981DA
:104B40004A815B810E941B9A6B017C01F8016083A2
:104B5000718382839383A897488059806A807B8081
:104B6000CA53DD4F488259826A827B82C453D34044
:104B70008E01045D1C4FF80180809180A280B3807B
:104B8000C501B401A70196010E942B988823BCF4AB
:104B9000FE01E253FE4FC301B20120813181428107
:104BA00053810E941B9A9B01AC01C501B4010E9474
:104BB0004E97F801608371838283938305C0F80167
:104BC000C082D182E282F38281E08883C45DDC4FBF
:104BD000C880D980EA80FB80CC52D340CE0140E02F
:104BE00050E060E070E08A019B014A015B010E9495
:104BF000561DC85CDC4F85E090E042C28C01005D30
:104C00001C4FFC01E25AFF4FCA56DF4F6081718191
:104C100082819381288139814A815B810E941B9A1C
:104C2000F8016083718382839383A8976880798079
:104C30008A809B80CA53DD4F688279828A829B82F8
:104C4000C453D3401CE2412E13E0512E4C0E5D1E86
:104C5000F201A080B180C280D3807B018C0117FB60
:104C6000109517F91095C601B501A80197010E948A
:104C7000109A1816BCF4FE01E253FE4FC401B301B2
:104C800020813181428153810E941B9A9B01AC019A
:104C9000C601B5010E944D97F20160837183828342
:104CA000938305C0F201E082F1820283138381E0E5
:104CB0008883C45DDC4FC880D980EA80FB80CC52F9
:104CC000D340CE0140E050E060E070E08A019B01FB
:104CD0004A015B010E94561DC85CDC4F86E090E0F3
:104CE000CFC18C01005D1C4FFC01EE59FF4FCA562D
:104CF000DF4F6081718182819381288139814A816E
:104D00005B810E941B9A6B017C01F80160837183B7
:104D100082839383A497488059806A807B80CE5396
:104D2000DD4F488259826A827B82C453D3408E0110
:104D3000045D1C4FF80180809180A280B380C50182
:104D4000B401A70196010E942B988823BCF4FE01B0
:104D5000E253FE4FC301B201208131814281538170
:104D60000E941B9A9B01AC01C501B4010E944E97A1
:104D7000F801608371838283938305C0F801C08248
:104D8000D182E282F38281E08883C45DDC4F888037
:104D90009980AA80BB80CC52D340CE0140E050E045
:104DA00060E070E08A019B016A017B010E94561D50
:104DB000C85CDC4F87E090E063C18C01005D1C4F54
:104DC000FC01EE59FF4FCA56DF4F6081718182812D
:104DD0009381288139814A815B810E941B9AF80165
:104DE0006083718382839383A497688079808A80AB
:104DF0009B80CE53DD4F688279828A829B82C45326
:104E0000D340BCE24B2EB3E05B2E4C0E5D1EF20194
:104E1000A080B180C280D3807B018C0117FB1095EC
:104E200017F91095C601B501A80197010E94109AC3
:104E30001816BCF4FE01E253FE4FC401B3012081F9
:104E40003181428153810E941B9A9B01AC01C601B2
:104E5000B5010E944D97F201608371838283938331
:104E600005C0F201E082F1820283138381E088832E
:104E7000C45DDC4F88809980AA80BB80CC52D3402F
:104E8000CE0140E050E060E070E08A019B016A01E1
:104E90007B010E94561DC85CDC4F88E090E0F0C0AA
:104EA0008C01005D1C4FFC01EE59FF4FCA56DF4FCD
:104EB0006081718182819381288139814A815B81FE
:104EC0000E941B9A6B017C01F801608371838283CD
:104ED0009383A497488059806A807B80CE53DD4FAE
:104EE000488259826A827B82C453D3408E01045D1A
:104EF0001C4FF80180809180A280B380C501B4016D
:104F0000A70196010E942B988823BCF4FE01E2536E
:104F1000FE4FC301B20120813181428153810E9441
:104F20001B9A9B01AC01C501B4010E944E97F80188
:104F3000608371838283938305C0F801C082D1822C
:104F4000E282F38281E08883FE01E45DFC4FDE01B2
:104F5000A253BE4F60817181828193812D913D91D9
:104F60004D915C910E941B9A9B01AC016A8D7B8DD7
:104F70008C8D9D8D0E944E976A8F7B8F8C8F9D8F1D
:104F8000C85CDC4F8BE090E07BC08C01005D1C4F67
:104F9000FC01EE59FF4FCA56DF4F6081718182815B
:104FA0009381288139814A815B810E941B9AF80193
:104FB0006083718382839383A497688079808A80D9
:104FC0009B80CE53DD4F688279828A829B82C45354
:104FD000D340ACE24A2EA3E05A2E4C0E5D1EF201E5
:104FE000A080B180C280D3807B018C0117FB10951B
:104FF00017F91095C601B501A80197010E94109AF2
:105000001816BCF4FE01E253FE4FC401B301208127
:105010003181428153810E941B9A9B01AC01C601E0
:10502000B5010E944D97F20160837183828393835F
:1050300005C0F201E082F1820283138381E088835C
:10504000FE01E45DFC4FDE01A253BE4F6081718121
:10505000828193812D913D914D915C910E941B9A8B
:105060009B01AC016A8D7B8D8C8D9D8D0E944E972E
:105070006A8F7B8F8C8F9D8FC85CDC4F8CE090E0BB
:105080009983888301C001DADF91CF911F910F913D
:10509000FF90EF90DF90CF90BF90AF909F908F9058
:1050A0007F906F905F904F9008952F923F924F9214
:1050B0005F926F927F928F929F92AF92BF92CF92A8
:1050C000DF92EF92FF920F931F93CF93DF93EC0148
:1050D000FC01E251FD4F608171816F5F7F4F7183F1
:1050E0006083882777FD8095982F0E94CD98C253C2
:1050F000DE4F288139814A815B810E941B9A5B01C6
:105100006C01C65DDE4F688379838A839B83C85FA9
:10511000D240FE01E051FD4FC25EDD4FE990F990B3
:1051200009911991E082F18202831383688079806A
:105130008A809B80CE52DF4F688279828A829B82EE
:10514000C45FD240A80197010E942B9818169CF0CA
:10515000C65DDD4F688179818A819B81A6019501B9
:105160000E941B9AC356DF4F688379838A839B838F
:10517000C75CD24047C0C801B701A40193010E9497
:105180004E979B01AC01C601B5010E942B9897EC8C
:10519000292E92E0392E2C0E3D1EBAE14B2EB2E0A4
:1051A0005B2E4C0E5D1E18165CF0F2018081918121
:1051B000A281B381F10180839183A283B38322C052
:1051C000C65DDD4FC601B501A80197010E944D974C
:1051D000A40193010E944D97288139814A815B8106
:1051E000CA52D2400E941B9A9B01AC01F20160811D
:1051F0007181828193810E944D97F1016083718357
:1052000082839383FE01E051FD4FC95CDD4FA9907D
:10521000B990C990D990A082B182C282D3826880AD
:1052200079808A809B80C754DF4F699279928992F6
:105230009992E880F9800A811B81C85FD240C80139
:10524000B701A60195010E942B9818169CF0CD5B22
:10525000DD4F688179818A819B81A80197010E9435
:105260001B9AC458DF4F688379838A839B83CF5B03
:10527000D24047C0C601B501A40193010E944E97D8
:105280009B01AC01C801B7010E942B98AFEB4A2EDD
:10529000A2E05A2E4C0E5D1EF3E32F2EF2E03F2EBD
:1052A0002C0E3D1E18165CF0F10180819181A281C7
:1052B000B381F20180839183A283B38322C0CD5B4B
:1052C000DD4FC801B701A60195010E944D97A401C9
:1052D00093010E944D97288139814A815B81C35493
:1052E000D2400E941B9A9B01AC01F1016081718147
:1052F000828193810E944D97F20160837183828342
:105300009383FE01E051FD4FC05BDD4FA990B99042
:10531000C990D990A082B182C282D38268807980FC
:105320008A809B80C056DF4F6992799289929992C8
:10533000E880F9800A811B81C85FD240C801B701AB
:10534000A60195010E942B9818169CF0C45ADD4FB7
:10535000688179818A819B81A80197010E941B9AAB
:10536000C959DF4F688379838A839B83C35CD240AA
:1053700047C0C601B501A40193010E944E979B014D
:10538000AC01C801B7010E942B98E3EC4E2EE2E07D
:105390005E2E4C0E5D1E7CE4272E72E0372E2C0E06
:1053A0003D1E18165CF0F10180819181A281B381CC
:1053B000F20180839183A283B38322C0C45ADD4F5C
:1053C000C801B701A60195010E944D97A401930160
:1053D0000E944D97288139814A815B81CC55D2400A
:1053E0000E941B9A9B01AC01F10160817181828155
:1053F00093810E944D97F20160837183828393832E
:10540000FE01E051FD4FC759DD4FA990B990C990F9
:10541000D990A082B182C282D382688079808A804A
:105420009B80C957DF4F6992799289929992E8805F
:10543000F9800A811B81C85FD240C801B701A6016B
:1054400095010E942B9818169CF0CB58DD4F68816F
:1054500079818A819B81A80197010E941B9ACA5A6F
:10546000DF4F688379838A839B83CB5CD24047C0BC
:10547000C601B501A40193010E944E979B01AC01A6
:10548000C801B7010E942B986BEC462E62E0562EA5
:105490004C0E5D1E55E6252E52E0352E2C0E3D1E7F
:1054A00018165CF0F10180819181A281B381F20133
:1054B00080839183A283B38322C0CB58DD4FC80180
:1054C000B701A60195010E944D97A40193010E9486
:1054D0004D97288139814A815B81C557D2400E940E
:1054E0001B9A9B01AC01F1016081718182819381E2
:1054F0000E944D97F201608371838283938347EC0E
:10550000A42E42E0B42EAC0EBD1ECD55DD4F6881F9
:105510007981C35AD240882777FD8095982F0E94C1
:10552000CD989B01AC01F5016081718182819381ED
:105530000E941B9A2B013C01F501608371838283D9
:1055400093838E0101541D4FCB55DD4F68817981C6
:10555000C55AD240882777FD8095982F0E94CD9814
:105560009B01AC01F80160817181828193810E946D
:105570001B9AF80160837183828393838E010D539C
:105580001D4FC955DD4F68817981C75AD2408827A0
:1055900077FD8095982F0E94CD989B01AC01F80172
:1055A00060817181828193810E941B9AF8016083DE
:1055B0007183828393838E0105531D4FC755DD4F41
:1055C00068817981C95AD240882777FD8095982FC4
:1055D0000E94CD989B01AC01F801608171818281AC
:1055E00093810E941B9AF801608371838283938365
:1055F0003EE2832E32E0932E8C0E9D1EF4018081BC
:10560000882309F05FC0FE01E850FD4FDE01A6517E
:10561000BD4F60817181828193812D913D914D912A
:105620005C910E94109A2EECE22E21E0F22EEC0EFC
:10563000FD1E9BEAC92E92E0D92ECC0EDD1E8823DA
:105640004CF18E010D561D4FF801608171818281F0
:105650009381F60120813181428153810E944D97CF
:10566000F70120813181428153810E943298F501F6
:105670006083718382839383F80180819181A28109
:10568000B381F60180839183A283B38381E0F40127
:10569000808321C0C301B201F701208131814281A1
:1056A00053810E941B9A9B01AC01F60160817181BC
:1056B000828193810E944E97F60160837183828379
:1056C000938309C080E090E0A0E0B0E0F501808322
:1056D0009183A283B38387E4A82E82E0B82EAC0E18
:1056E000BD1EF5018081882309F068C0FE01E850E5
:1056F000FD4FDE01A651BD4F608171818281938192
:105700002D913D914D915C910E94109A0EECE02EEE
:1057100001E0F02EEC0EFD1E1FEB412E12E0512E8B
:105720004C0E5D1EBFEACB2EB2E0DB2ECC0EDD1E92
:1057300088234CF18E0109561D4FF801608171815B
:1057400082819381F60120813181428153810E94BF
:105750004D97F70120813181428153810E94329817
:10576000F2016083718382839383F8018081918148
:10577000A281B381F60180839183A283B38381E008
:10578000F501808327C0F20160817181828193815C
:10579000F70120813181428153810E941B9A9B0134
:1057A000AC01F60160817181828193810E944E97E4
:1057B000F60160837183828393830CC0C154DD4FF3
:1057C00080E090E0A0E0B0E088839983AA83BB8367
:1057D000CF5BD240A0E6AA2EA2E0BA2EAC0EBD1E30
:1057E000F5018081882309F068C0FE01E850FD4F73
:1057F000DE01A651BD4F60817181828193812D911F
:105800003D914D915C910E94109AFEECEF2EF1E0DB
:10581000FF2EEC0EFD1EE3EC4E2EE2E05E2E4C0E53
:105820005D1E73EBC72E72E0D72ECC0EDD1E8823D3
:105830004CF18E0105561D4FF80160817181828106
:105840009381F60120813181428153810E944D97DD
:10585000F70120813181428153810E943298F20107
:105860006083718382839383F80180819181A28117
:10587000B381F60180839183A283B38381E0F50134
:10588000808327C0F2016081718182819381F70159
:1058900020813181428153810E941B9A9B01AC017E
:1058A000F60160817181828193810E944E97F60199
:1058B00060837183828393830CC0CD53DD4F80E07E
:1058C00090E0A0E0B0E088839983AA83BB83C35CA7
:1058D000D24069E7A62E62E0B62EAC0EBD1EF501E1
:1058E0008081882309F068C0FE01E850FD4FDE0189
:1058F000A651BD4F60817181828193812D913D912F
:105900004D915C910E94109A5EECE52E51E0F52ECF
:10591000EC0EFD1E4BEC442E42E0542E4C0E5D1E50
:1059200037EBC32E32E0D32ECC0EDD1E88234CF194
:105930008E0101561D4FF801608171818281938132
:10594000F60120813181428153810E944D97F701F8
:1059500020813181428153810E943298F20160831B
:10596000718382839383F80180819181A281B381C5
:10597000F60180839183A283B38381E0F501808364
:1059800027C0F2016081718182819381F7012081BA
:105990003181428153810E941B9A9B01AC01F60127
:1059A00060817181828193810E944E97F6016083AC
:1059B0007183828393830CC0C553DD4F80E090E0F8
:1059C000A0E0B0E088839983AA83BB83CB5CD240FC
:1059D000C953DD4F488159816A817B81289709919C
:1059E000199129913991C880D980EA80FB80289645
:1059F00088809980AA80BB80CB5CD240CE010E9477
:105A0000561DDF91CF911F910F91FF90EF90DF9086
:105A1000CF90BF90AF909F908F907F906F905F904E
:105A20004F903F902F9008952F923F924F925F9208
:105A30006F927F928F929F92AF92BF92CF92DF929E
:105A4000EF92FF920F931F93DF93CF93CDB7DEB703
:105A5000C454D0400FB6F894DEBF0FBECDBF3C019A
:105A60001A012B01098B1A8B2B8B3C8BCD8ADE8A7A
:105A7000EF8AF88E898E9A8EAB8EBC8EDC018C916B
:105A8000882311F00C945B36E6EEF2E06E0E7F1E7A
:105A9000D3018C91EAE1FDEF6E0E7F1E882311F099
:105AA0000C945B36D30111968C911197882311F0D9
:105AB0000C94FB35EAE4CE2ED12CC60CD71CD6961E
:105AC0006D917D918D919C91D997F60120813181C5
:105AD000428153810E941B9A2AE232E0620E731EB9
