:1000000047C1000072C1000070C100006EC1000055
:100010006CC100006AC1000068C1000066C1000038
:1000200064C1000062C1000060C100005EC1000048
:100030005CC100005AC1000058C100000C940A8540
:1000400054C100000C942C8D50C100004EC1000022
:100050004CC100004AC1000048C100000C946C8DE6
:100060000C945A080C948E8F0C94E2903EC10000C0
:100070003CC100003AC1000038C1000036C1000098
:100080000C94FF8C32C1000030C100002EC1000072
:100090000C94CE8F0C94219128C1000026C1000041
:1000A00024C1000022C100000C94D28C1EC10000AB
:1000B0001CC100001AC1000018C100000C94A58CDE
:1000C00014C1000012C1000010C100000C940E9079
:1000D0000C9460910AC100000C944E900C949F9176
:1000E00004C10000036EDB363D9A9999993DABAA95
:1000F000AA2A3E000000803F084AD73B3BCE016E53
:1001000084BCBFFDC12F3D6C74319ABD56833DDA6E
:100110003D00C77F11BED9E4BB4C3E916BAAAABE7D
:10012000000000803F072C7AA5BA6CC590DA3B939B
:1001300065FC8BBC53F810FD3C5692834DBD879DEA
:100140003AB63DCBC9BF5BBE73DA0FC93F05A84CB9
:10015000CDB2D44EB93836A9020C50B99186880870
:100160003CA6AAAA2ABE000000803F00002100246D
:100170000027002A002D0030003300010100000498
:100180000107010A0100002200250028002B002E93
:10019000003100340002010000050108010B0100DC
:1001A0000020002300260029002C002F0032000030
:1001B0000100000301060109010505050507050801
:1001C000080808020202020A0A08080404040401DA
:1001D00001010101010101030303030303030304FC
:1001E0000707070C0C0C0C0C0C0C0C02020202068C
:1001F000060606060606060B0B0B0B0B0B0B0B017C
:100200000210202008081020401020408002010227
:1002100001080402010102040810204080804020EF
:10022000100804020180040201804020100804022A
:1002300001080402010102040810204080010204A8
:1002400008102040800000090A02080B0C0D070668
:100250000304010000000000000000000000000096
:10026000000000000000000000000000000000008E
:100270000011100F0000000000000000000000004E
:100280000000000000000000000000009001119339
:1002900011241FBECFEFD1E2DEBFCDBF00E00CBF07
:1002A00016E0A0E0B2E0EAE6F5E301E00BBF02C031
:1002B00007900D92A63DB107D9F71BBE1FE0A6ED32
:1002C000B6E001C01D92AE3BB107E1F712E0C0E914
:1002D000D2E004C02297FE010E94AF9ACC38D10729
:1002E000C9F70E9448940C94B39A8ACEFB015191AD
:1002F0005523A9F0BF01DC014D9145174111E1F7EC
:1003000059F4CD010190002049F04D914015411163
:10031000C9F3FB014111EFCF81E090E0019708950F
:1003200086ED96E00E94040F86ED9AE00C943785E6
:100330004F925F926F927F928F929F92AF92BF92F5
:10034000CF92DF92EF92FF920F931F93DF93CF93A1
:10035000CDB7DEB728970FB6F894DEBF0FBECDBF7E
:100360008091D60A9091D70A019729F486ED9AE0F8
:100370000E94C68788C680EE9AE00E940E0E809189
:10038000320B9091330B019731F482E090E090931F
:10039000330B8093320B80919C07813009F073C638
:1003A00080919D07882309F06EC667C61092D90612
:1003B0001092D8061092DB061092DA061092DD0633
:1003C0001092DC061092D70686ED96E00E943B1153
:1003D0008091700790917107A0917207B091730797
:1003E00080930A0B90930B0BA0930C0BB0930D0B07
:1003F0008091740790917507A0917607B091770767
:1004000080930E0B90930F0BA093100BB093110BD6
:100410008091780790917907A0917A07B0917B0736
:100420008093120B9093130BA093140BB093150BA6
:1004300080917C0790917D07A0917E07B0917F0706
:100440008093160B9093170BA093180BB093190B76
:100450008091840790918507A0918607B0918707C6
:1004600080931A0B90931B0BA0931C0BB0931D0B46
:100470008091880790918907A0918A07B0918B0796
:1004800080931E0B90931F0BA093200BB093210B16
:1004900080918C0790918D07A0918E07B0918F0766
:1004A0008093220B9093230BA093240BB093250BE6
:1004B0008091900790919107A0919207B091930736
:1004C0008093260B9093270BA093280BB093290BB6
:1004D0008091940790919507A0919607B091970706
:1004E00080932E0B90932F0BA093300BB093310B76
:1004F0008091D606882359F08091080B9091090BC2
:10050000892B29F080EE9AE0CBD61092D606609126
:10051000E00A7091E10A8091E20A9091E30A0E9458
:10052000EF976630710509F416C267307105C4F49F
:100530006330710509F494C06430710544F461308E
:10054000710539F16230710509F05CC561C0643034
:10055000710509F4F6C06530710509F053C564C131
:100560006930710509F4DBC26A3071054CF46730FB
:10057000710509F469C26830710509F043C58CC280
:100580006A30710509F4C6C46F30710509F03AC5C7
:1005900013C580912C0C90912D0C019721F0109295
:1005A0006F0810926E0800D00F924091E80A5091A7
:1005B000E90A6091EA0A7091EB0A0091EC0A109145
:1005C000ED0A2091EE0A3091EF0AC090F00AD09027
:1005D000F10AE090F20AF090F30A8090F40A909009
:1005E000F50AA090F60AB090F70A8091F80A909167
:1005F000F90AA091FA0AB091FB0AEDB7FEB7818320
:100600009283A383B48386ED96E00E94628182C2C6
:100610006091FC0A7091FD0A8091FE0A9091FF0A98
:1006200020E030E048EC52E40E94879760936C072A
:1006300070936D0780936E0790936F076091E40A43
:100640007091E50A8091E60A9091E70A0E94EF977F
:100650009B01AC0186ED96E0B9010E947F84D2C473
:100660008DB79EB70E970FB6F8949EBF0FBE8DBF85
:100670000DB71EB70F5F1F4F4090E80A5090E90A70
:100680006090EA0A7090EB0A8091EC0A9091ED0A72
:10069000A091EE0AB091EF0A89839A83AB83BC8361
:1006A000C090F00AD090F10AE090F20AF090F30ABC
:1006B0008090F40A9090F50AA090F60AB090F70A9C
:1006C0008091F80A9091F90AA091FA0AB091FB0A78
:1006D000EDB7FEB781839283A383B4838091000B2F
:1006E0009091010BA091020BB091030BF801848350
:1006F0009583A683B7838091040B9091050BA091FD
:10070000060BB091070B80879187A287B387609112
:10071000FC0A7091FD0A8091FE0A9091FF0A0E94E6
:10072000EF97D8011D967C936E931C9786ED96E00B
:10073000B301A20109811A812B813C810E9435807D
:100740007AC18DB79EB744970FB6F8949EBF0FBE7F
:100750008DBFEDB7FEB731964091FC0A5091FD0A6E
:100760006091FE0A7091FF0A0091000B1091010B3D
:100770002091020B3091030BC090040BD090050B1D
:10078000E090060BF090070B8090E80A9090E90A41
:10079000A090EA0AB090EB0A4090EC0A5090ED0A63
:1007A0006090EE0A7090EF0AADB7BEB711964D9209
:1007B0005D926D927C9214978091F00A9091F10A6B
:1007C000A091F20AB091F30A84839583A683B7833C
:1007D0008091F40A9091F50AA091F60AB091F70A77
:1007E00080879187A287B3878091F80A9091F90A50
:1007F000A091FA0AB091FB0A84879587A687B787EC
:100800008091E40A9091E50AA091E60AB091E70A86
:10081000808B918BA28BB38B86ED96E00E9458491A
:10082000EDB7FEB774960AC18091360B9091370BE5
:100830008430910509F443C08530910554F4823029
:100840009105E1F083309105ACF5019709F0DAC329
:1008500010C08630910509F44FC0863091050CF424
:1008600046C08730910509F461C0089709F0CAC3F2
:1008700066C06091340B7091350B07C06091340BEA
:100880007091350B709561957F4F882777FD809526
:10089000982F0E942298AB01BC0186ED96E000E003
:1008A00010E020E030E068017901460157010E9424
:1008B000CA51A8C36091340B7091350B07C0609189
:1008C000340B7091350B709561957F4F882777FDBC
:1008D0008095982F0E9422988B019C0186ED96E0CE
:1008E00040E050E060E070E06A017B01DECF6091A3
:1008F000340B7091350B07C06091340B7091350B40
:10090000709561957F4F882777FD8095982F0E947D
:1009100022986B017C0186ED96E040E050E060E0BB
:1009200070E08A019B014A015B01C1CF8CE997E02D
:1009300040E050E064E372E40E94E88A08C08CE979
:1009400097E040E050E060E070E00E94BD8A81E006
:100950008093D60657C38DB79EB70E970FB6F894FF
:100960009EBF0FBE8DBF0DB71EB70F5F1F4F4090CC
:10097000E80A5090E90A6090EA0A7090EB0A8091C8
:10098000EC0A9091ED0AA091EE0AB091EF0A8D83E6
:100990009E83AF83B887C090F00AD090F10AE090B0
:1009A000F20AF090F30A8090F40A9090F50AA09071
:1009B000F60AB090F70A8091F80A9091F90AA0918E
:1009C000FA0AB091FB0AEDB7FEB781839283A38345
:1009D000B4838091000B9091010BA091020BB09118
:1009E000030BF80184839583A683B7838091040B5E
:1009F0009091050BA091060BB091070B8087918712
:100A0000A287B3876091FC0A7091FD0A8091FE0A6B
:100A10009091FF0A0E94EF97D8011D967C936E93E8
:100A20001C9786ED96E0B301A2010D811E812F81F6
:100A300038850E94CB80EDB7FEB73E960FB6F8948E
:100A4000FEBF0FBEEDBFDEC26091FC0A7091FD0AD1
:100A50008091FE0A9091FF0A20E030E048EC52E4D9
:100A60000E94879760936C0770936D0780936E0761
:100A700090936F076091E40A7091E50A8091E60A0D
:100A80009091E70A0E94EF979B01AC0186ED96E0FA
:100A9000B9010E943F84B6C280912C0C90912D0C1C
:100AA000089721F010926F0810926E0800D00F92F4
:100AB0004091E80A5091E90A6091EA0A7091EB0AC4
:100AC0000091EC0A1091ED0A2091EE0A3091EF0AA4
:100AD000C090F00AD090F10AE090F20AF090F30A88
:100AE0008090F40A9090F50AA090F60AB090F70A68
:100AF0008091F80A9091F90AA091FA0AB091FB0A44
:100B0000EDB7FEB781839283A383B48386ED96E02D
:100B10000E94107D0F900F900F900F9073C2609104
:100B2000E40A7091E50A8091E60A9091E70A0E9432
:100B3000EF976230710509F453C1633071053CF4DD
:100B4000672B71F06130710509F026C2AAC06330CD
:100B5000710509F456C16430710509F01DC284C1E4
:100B60008091E80A9091E90AA091EA0AB091EB0A13
:100B700080932C0790932D07A0932E07B0932F07F7
:100B80008093300790933107A0933207B0933307D7
:100B90008093340790933507A0933607B0933707B7
:100BA0008091EC0A9091ED0AA091EE0AB091EF0AC3
:100BB00080933C0790933D07A0933E07B0933F0777
:100BC0008093400790934107A0934207B093430757
:100BD0008093440790934507A0934607B093470737
:100BE0008091F00A9091F10AA091F20AB091F30A73
:100BF0008093380790933907A0933A07B0933B0747
:100C00008091F40A9091F50AA091F60AB091F70A42
:100C10008093480790934907A0934A07B0934B07E6
:100C20008091F80A9091F90AA091FA0AB091FB0A12
:100C300080934C0790934D07A0934E07B0934F07B6
:100C40008093500790935107A0935207B093530796
:100C50008093540790935507A0935607B093570776
:100C60008091FC0A9091FD0AA091FE0AB091FF0AC2
:100C700080935C0790935D07A0935E07B0935F0736
:100C80008093600790936107A0936207B093630716
:100C90008093640790936507A0936607B0936707F6
:100CA0007BC18091E80A9091E90AA091EA0AB0918B
:100CB000EB0A8093FC069093FD06A093FE06B0938A
:100CC000FF068093000790930107A0930207B0935B
:100CD00003078093040790930507A0930607B0933A
:100CE00007078091EC0A9091ED0AA091EE0AB0916D
:100CF000EF0A80930C0790930D07A0930E07B09313
:100D00000F078093100790931107A0931207B093D9
:100D100013078093140790931507A0931607B093B9
:100D200017078091F00A9091F10AA091F20AB09110
:100D3000F30A8093080790930907A0930A07B093DA
:100D40000B078091F40A9091F50AA091F60AB091F0
:100D5000F70A8093180790931907A0931A07B09386
:100D60001B078091F80A9091F90AA091FA0AB091B4
:100D7000FB0A8093F4069093F506A093F606B093D1
:100D8000F7068091FC0A9091FD0AA091FE0AB091AD
:100D9000FF0A8093F8069093F906A093FA06B093A1
:100DA000FB066091000B7091010B8091020B9091FA
:100DB000030B0E94EF9770932F0C60932E0C809181
:100DC000040B9091050BA091060BB091070B80933B
:100DD000280790932907A0932A07B0932B07DCC01C
:100DE0008091E80A9091E90AA091EA0AB091EB0A91
:100DF0008093980790939907A0939A07B0939B07C5
:100E0000CBC060E070E084EB92E42091E80A30917E
:100E1000E90A4091EA0A5091EB0A0E94A296609377
:100E2000E4067093E5068093E6069093E7068091CA
:100E3000EC0A9091ED0AA091EE0AB091EF0A80932E
:100E4000E8069093E906A093EA06B093EB0680E0EB
:100E500090E0A0E0B0E08093E0069093E106A093DC
:100E6000E206B093E30698C0E090E80AF090E90A41
:100E70000091EA0A1091EB0AC801B70120E030E0C6
:100E800040E050E00E948097882329F48EEA97E49E
:100E9000ACE5B2E42AC0C801B70120E030E040E888
:100EA0005FE30E948097882389F48EEA97E4ACE59B
:100EB000B2E48093E2079093E307A093E407B09332
:100EC000E50780E090E0A0EAB1E41BC0C801B701EB
:100ED00020E030E040E050E40E948097882309F051
:100EE0005BC08EEA97E4A6E4B2E48093E2079093B5
:100EF000E307A093E407B093E50780E090E0A0EF5C
:100F0000B1EC8093E6079093E707A093E807B093CE
:100F1000E90742C06091E80A7091E90A8091EA0A03
:100F20009091EB0A20E030E048EC52E40E94879771
:100F300060931C0770931D0780931E0790931F07F3
:100F40006091EC0A7091ED0A8091EE0A9091EF0A9F
:100F500020E030E048EC52E40E948797609320073D
:100F60007093210780932207909323076091F00AE2
:100F70007091F10A8091F20A9091F30A20E030E03A
:100F800048EC52E40E94879760936C0770936D075A
:100F900080936E0790936F0781E08093D60680E080
:100FA00090E0A0E0B0E08093E00A9093E10AA09383
:100FB000E20AB093E30A26C04091E80A5091E90A98
:100FC0006091EA0A7091EB0A0091EC0A1091ED0A27
:100FD0002091EE0A3091EF0AC090F00AD090F10A09
:100FE000E090F20AF090F30A86ED96E00F2EF0E022
:100FF0008F2EF0E09F2EF0E0AF2EF0E0BF2EF02D10
:101000000E94A83A4091E0065091E1066091E20604
:101010007091E3060091E4061091E5062091E60642
:101020003091E706C090E806D090E906E090EA0625
:10103000F090EB068090EC069090ED06A090EE0606
:10104000B090EF0686ED96E00E946C6280EE9AE02A
:10105000CCD681E080939D0710929C076091E00AB6
:101060007091E10A8091E20A9091E30A0E94EF9761
:1010700070932D0C60932C0C06C08091D6068823AB
:1010800009F094C9A1C928960FB6F894DEBF0FBE27
:10109000CDBFCF91DF911F910F91FF90EF90DF9027
:1010A000CF90BF90AF909F908F907F906F905F9008
:1010B0004F9008951F920F920FB60F920BB60F929A
:1010C00011240F931F932F933F934F935F936F932D
:1010D0007F938F939F93AF93BF93EF93FF936EB5DF
:1010E0004091D8065091D9062091DA063091DB065E
:1010F0000091DC061091DD068CE997E00E943A8BA6
:10110000FF91EF91BF91AF919F918F917F916F91DF
:101110005F914F913F912F911F910F910F900BBEB7
:101120000F900FBE0F901F901895CF93DF9386E31B
:101130009FE040E058EE63E070E00E94DE9188E5B9
:101140009FE040E052EC61E070E00E94DE9181E0BF
:101150008093D60680E090E0A4E3B2E48093E406B6
:101160009093E506A093E606B093E7068093E80621
:101170009093E906A093EA06B093EB0680E090E036
:10118000A8ECB2E48093980790939907A0939A07EC
:10119000B0939B0785E090E090932F0C80932E0CEA
:1011A00088E261E00E94798E88E260E00E942C8FE4
:1011B00081E361E00E94798E81E361E00E942C8FDF
:1011C00086ED9AE00E94B98886ED9AE00E947D88BB
:1011D000C0E0D0E086ED9AE00E9472866093E4065B
:1011E0007093E5068093E6069093E70686ED9AE015
:1011F0000E946B866093E8067093E9068093EA0686
:101200009093EB0664E170E080E090E00E94B48D82
:101210002196C530D105F1F68091D60A9091D70A72
:10122000892BD9F586ED9AE00E9472869B01AC016C
:1012300060E070E084EB92E40E94A2966093E40682
:101240007093E5068093E6069093E70686ED9AE0B4
:101250000E946B866093E8067093E9068093EA0625
:101260009093EB0680E090E0A0E0B0E08093E00691
:101270009093E106A093E206B093E30681E360E079
:101280000E942C8F8CE997E00E946A8B8CE997E092
:101290000E949C8B80EE9AE0D0D4DF91CF9108958C
:1012A000EF92FF920F931F93CF93DF93EC0188A5EA
:1012B00099A5892B09F415C188A599A5079708F068
:1012C00010C102C1C55ADF4F288139814A815B8133
:1012D000CB55D040288339834A835B83C15ADF4F83
:1012E000E880F9800A811B81CF55D040EC82FD82D5
:1012F0000E831F83C55BDE4F8881CB54D140813084
:1013000009F046C0CA01B90120E030E040E050E4F5
:101310000E9480978823E1F5C801B7010E94EF97EA
:1013200063307105F1F0643071053CF46130710592
:1013300071F06230710561F50FC065307105D9F04B
:10134000653071059CF06630710511F519C080E0BB
:1013500090E0A0E4B0E418C080E090E0A0E8B0E441
:1013600013C080E090E0A0E8BFE30EC080E090E012
:10137000A0E0B0E409C080E090E0A0ECB0E404C0DC
:1013800080E090E0A0EAB0E48C839D83AE83BF83CD
:10139000CD59DF4F88819981AA81BB81C356D04046
:1013A00088879987AA87BB87C959DF4F8881998128
:1013B000AA81BB81C756D0408C879D87AE87BF87E7
:1013C000C559DF4F88819981AA81BB81CB56D04016
:1013D000888B998BAA8BBB8BC159DF4F88819981F0
:1013E000AA81BB81CF56D0408C8B9D8BAE8BBF8B9F
:1013F000CD58DF4F88819981AA81BB81C357D040E6
:10140000888F998FAA8FBB8FC958DF4F88819981A8
:10141000AA81BB81C757D0408C8F9D8FAE8FBF8F65
:10142000C558DF4F88819981AA81BB81CB57D040B5
:1014300088A399A3AAA3BBA3C158DF4F8881998130
:10144000AA81BB81CF57D0408CA39DA3AEA3BFA3DD
:1014500088A599A5029790F188A599A5079770F599
:1014600040E050E008E210E014C088EDE82E8FEF75
:10147000F82EE20EF31EF90181919191A191B191A3
:101480009F01F70180839183A283B3836F5F6A30EA
:1014900061F788A599A501974817590778F44F5F18
:1014A0005F4F409F9001419F300D509F300D1124A0
:1014B000255A3F4F2C0F3D1F60E0D7CF88A599A537
:1014C000019799A788A70DC0C85ADF4F8881C855D2
:1014D000D040882309F4F6CE20E030E040EA50E422
:1014E000F9CEDF91CF911F910F91FF90EF9008956A
:1014F000AF92BF92CF92DF92EF92FF920F931F9322
:10150000DF93CF93CDB7DEB7A9970FB6F894DEBFC0
:101510000FBECDBF7C0186E39FE00E946592892BC0
:1015200009F4FFC08701075A1F4FD8018C91882307
:1015300081F016C086E39FE00E949892853A91055B
:1015400041F4E9E5F0E0EE0EFF1E81E0D7018C9357
:10155000E8C086E39FE00E946592892B59F7E1C0BD
:1015600086E39FE00E946592899709F0D2C0F80156
:101570001082FE01319689E2DF011D928A95E9F71A
:101580006F018F01EAE2AE2EB12CAC0EBD1E86E3D8
:101590009FE00E949892F80181938F01EA15FB0564
:1015A000B1F789A58A3509F0BCC089818823B1F4D7
:1015B0008B818131F9F48D818232E1F48F81833323
:1015C000C9F4F701EE5AFF4F80819181892B09F010
:1015D000A8C081E090E091838083A3C0843451F45B
:1015E0008B81853539F48D81863621F48F8187375B
:1015F00009F497C0D70198968D919C9199979896E8
:101600008D919C919997069708F08BC020E030E06F
:10161000F70180A591A5FC0173E0EE0FFF1F7A95FD
:10162000E1F7880F991FE80FF91FE20FF31FEE0F84
:10163000FF1FEE0FFF1FE55AFF4FEE0DFF1DD601F6
:101640008C918083F70180A591A5FC0143E0EE0F0A
:10165000FF1F4A95E1F7880F991FE80FF91FE20F66
:10166000F31FEE0FFF1FEE0FFF1FE55AFF4FEE0DAA
:10167000FF1D11968C918183D70198968D919C9135
:101680009997FC01A3E0EE0FFF1FAA95E1F7880FE1
:10169000991FE80FF91FE20FF31FEE0FFF1FEE0F68
:1016A000FF1FE55AFF4FEE0DFF1DD60112968C91DC
:1016B00012978283F70180A591A5FC0153E0EE0FFC
:1016C000FF1F5A95E1F7880F991FE80FF91FE20FE6
:1016D000F31FEE0FFF1FEE0FFF1FE55AFF4FEE0D3A
:1016E000FF1D13968C9183832F5F3F4F84E090E022
:1016F000C80ED91E2A30310509F08ACFD701989635
:101700008D919C919997019699969C938E93989719
:1017100008C086E39FE00E9465928A9714F0F80162
:101720001082A9960FB6F894DEBF0FBECDBFCF9141
:10173000DF911F910F91FF90EF90DF90CF90BF90BE
:10174000AF9008952F923F924F925F926F927F9247
:101750008F929F92AF92BF92CF92DF92EF92FF92C1
:101760000F931F93DF93CF93CDB7DEB7A9970FB633
:10177000F894DEBF0FBECDBF8C0188E59FE00E94CC
:101780006592892B09F431C269E5E62EF12CE00E51
:10179000F11ED7018C918823A9F01BC088E59FE03A
:1017A0000E949892853A31F4075A1F4F81E0F80160
:1017B00080831BC2853B31F4075A1F4F82E0D8015A
:1017C0008C9313C288E59FE00E946592892B31F7C4
:1017D0000CC2813009F0D3C0085A1F4FF8011082A3
:1017E0000855104088E59FE00E946592899708F4AB
:1017F000FCC1D7011C92FE01319689E2DF011D92E6
:101800008A95E9F76F017F015AE2A52EB12CAC0E43
:10181000BD1E88E59FE00E949892F70181937F01A9
:10182000EA15FB05B1F789A58A3509F0D8C1898188
:10183000882351F48B81813199F48D81823281F436
:101840008F81833369F4DEC0843451F48B81853514
:1018500039F48D81863621F48F81873709F4C5C12B
:10186000D80198968D919C91999798968D919C917D
:101870009997069708F0B9C120E030E0F80180A5FB
:1018800091A5FC0143E0EE0FFF1F4A95E1F7880F99
:10189000991FE80FF91FE20FF31FEE0FFF1FEE0F66
:1018A000FF1FE55AFF4FE00FF11FD6018C91808397
:1018B000F80180A591A5FC0173E0EE0FFF1F7A955A
:1018C000E1F7880F991FE80FF91FE20FF31FEE0FE2
:1018D000FF1FEE0FFF1FE55AFF4FE00FF11F11969C
:1018E0008C918183D80198968D919C919997FC0158
:1018F00043E0EE0FFF1F4A95E1F7880F991FE80FAD
:10190000F91FE20FF31FEE0FFF1FEE0FFF1FE55A47
:10191000FF4FE00FF11FD60112968C911297828330
:10192000F80180A591A5FC0173E0EE0FFF1F7A95E9
:10193000E1F7880F991FE80FF91FE20FF31FEE0F71
:10194000FF1FEE0FFF1FE55AFF4FE00FF11F139629
:101950008C9183832F5F3F4F84E090E0C80ED91EA7
:101960002A30310509F08ACFD80198968D919C9143
:101970009997019699969C938E93989736C1823049
:1019800009F033C180E090E0A0EAB0E4F801808380
:101990009183A283B383085A1F4F81E0D8018C93AF
:1019A0000855104088E59FE00E946592899708F4E9
:1019B0001CC1F7011082FE01319689E2DF011D9200
:1019C0008A95E9F77F014AE2C42ED12CCC0EDD1EA8
:1019D00088E59FE00E949892F70181937F01EC15C2
:1019E000FD05B1F789A58B3509F0F9C089818823F8
:1019F000B1F48B818131F9F48D818232E1F48F81F0
:101A00008333C9F4F801EE5AFF4F80819181892B0D
:101A100009F0EBC081E090E091838083E6C08434DC
:101A200051F48B81853539F48D81863621F48F818F
:101A3000873709F4DAC00A5A1F4FD8011D921C9249
:101A4000F801129212928F010455104032E1C32E18
:101A500035E0D32EEE24FF245E010894A11CB11CB6
:101A6000D6016D917C91C5010E947601E8E0F0E01D
:101A7000CE0EDF1E009799F1F70123E0EE0FFF1F56
:101A80002A95E1F7EC5EFA4F6081718186E39FE071
:101A90000E949F95D801AC5ABF4F93E0EE0CFF1CFB
:101AA0009A95E1F7F701EA5EFA4F808191812D91D5
:101AB0003C911197820F931F8D939C930A5A1F4F4D
:101AC00082E195E0E80EF91ED70116968D919C9162
:101AD0001797F801918380830655104008C0089439
:101AE000E11CF11CF0E1EF16F10409F0B9CF86E337
:101AF0009FE060E20E948094B2E9AB2EB5E0BB2E7D
:101B0000AAE98A2EA5E09A2EF4E52F2E312C200E7C
:101B1000311E38C0D4014D905C90F501E080F18019
:101B2000CC24DD2426C03701D7016D917C91CE01F4
:101B300001960E947601E8E0F0E0EE0EFF1E0097AD
:101B4000A9F0D30112966D917C91139786E39FE0E3
:101B50000E949F95F30184819581D1012D913C9143
:101B60001197820F931F8D939C9306C00894C11CFC
:101B7000D11CC414D504BCF2E2E0F0E0AE0EBF1EEE
:101B80008E0E9F1EFAE9AF16F5E0BF0619F60A5A47
:101B90001F4FD8012D913C9106551040C901079760
:101BA000029758F0232B79F00C5A1F4FD8018D91D2
:101BB0009C9104551040892B31F0F80180A591A526
:101BC000019691A780A70C5A1F4FD8016D917C9167
:101BD00086E39FE04AE050E00E94709506C086E3ED
:101BE0009FE060E072E00E948396A9960FB6F89499
:101BF000DEBF0FBECDBFCF91DF911F910F91FF9040
:101C0000EF90DF90CF90BF90AF909F908F907F909C
:101C10006F905F904F903F902F900895FC01E55B8F
:101C2000FE4F8081EB54F140882311F4CF0160CC4A
:101C3000813011F4CF0186CD08950F931F938C014D
:101C40000E5A1F4FF80111821082095F1F4FF801D1
:101C5000108209551040F80111A610A6065A1F4F10
:101C6000F80110820A55104080E090E0A0E0B0E05A
:101C7000F80180839183A283B38384839583A683B1
:101C8000B78380879187A287B38784879587A68744
:101C9000B787808B918BA28BB38B848B958BA68B14
:101CA000B78B808F918FA28FB38F848F958FA68FE4
:101CB000B78F80A391A3A2A3B3A384A395A3A6A344
:101CC000B7A380E360E00E94798E80E30E945E8F7C
:101CD000F801E55BFE4F1082892B11F081E08083D3
:101CE0001F910F9108950F931F93CF93DF93EC01F2
:101CF00088A599A5069798F5FE01E65AFF4F8081C1
:101D00008F5F808387305CF1108289E20E945E8F52
:101D1000C65BDF4FAA2797FDA095BA2FBC01CD0166
:101D20000E942298688379838A839B8388E59FE059
:101D300065EA0E94D192A0978E010C5D1F4F6991B8
:101D4000772767FD709588E59FE00E94D192C017C4
:101D5000D107A9F788E59FE06AE50E94D192DF915B
:101D6000CF911F910F9108950F931F93CF93DF93FE
:101D7000EC0188A599A5069798F5FE01E65AFF4F54
:101D800080818F5F808384305CF1108289E20E94C1
:101D90005E8FC65BDF4FAA2797FDA095BA2FBC01C7
:101DA000CD010E942298688379838A839B8386E38E
:101DB0009FE065EA0E94D192A0978E01085D1F4FB7
:101DC0006991772767FD709586E39FE00E94D19225
:101DD000C017D107A9F786E39FE06AE50E94D19278
:101DE000DF91CF911F910F910895FC01E55BFE4FAC
:101DF0008081EB54F140882311F4CF01B5CF8130BD
:101E000011F4CF0170CF08956F927F928F929F92BD
:101E1000AF92BF92CF92DF92EF92FF920F931F93F8
:101E2000FC01E555FD4F20E030E040E050E021931B
:101E30003193419351932193319341935193219342
:101E40003193419351932193319341935193208343
:101E5000318342835383EB5BF2400F2EF0E0AF2ED1
:101E6000F0E0BF2EF8E4CF2EF3E4DF2EF02DA6A293
:101E7000B7A2C0A6D1A6A2A6B3A6C4A6D5A6A6A65A
:101E8000B7A6C0AAD1AAA2AAB3AAC4AAD5AA0F2E3D
:101E9000F0E06F2EF0E07F2EF8EC8F2EF2E49F2E14
:101EA000F02D668E778E80A291A2A2A2B3A2C4A2C8
:101EB000D5A2A6AAB7AAC0AED1AEA2AEB3AEC4AEEA
:101EC000D5AEFE96A192B192C192D192A082B1827A
:101ED000C282D382E057FE4F0F2EF0E0EF2EF0E0EB
:101EE000FF2EF0E80F2FFFEB1F2FF02DE192F19264
:101EF0000193119380E090E0A0E8BFE38193919378
:101F0000A193B193E082F18202831383EC5EFE4FD2
:101F100011821082E052F1408AE097EDA3EABCE31F
:101F200080839183A283B383EE5CF140108211829F
:101F3000EE54FE4F86E696E6A6EEBFE381939193BC
:101F4000A193B19380E090E0A0E8B1E481939193F4
:101F5000A193B19381939193A193B1938193919321
:101F6000A193B1930F2EF0E0EF2EF0E0FF2EF0E200
:101F70000F2FF1E41F2FF02DE192F19201931193B5
:101F8000E192F19201931193E082F1820283138333
:101F9000E350FF4F2083318342835383389721934B
:101FA00031934193519320833183428353833896F5
:101FB0002083318342835383E55CF0402193319346
:101FC00041935193219331934193519321933193B1
:101FD000419351932083318342835383E251F240F2
:101FE000138212821582148217821682118610863D
:101FF000E250FE4F11921192119211921192119290
:1020000011821082769721933193419351932193BA
:102010003193419351932193319341935193208371
:10202000318342835383EC55F04080E090E0A7E099
:10203000B3E481939193A193B19380E090E0A0E207
:10204000B3E480839183A283B38338962083318362
:102050004283538352934293329322933896208340
:10206000318342835383E25AF0408EEA97E4ACE531
:10207000B2E480839183A283B383EC50F140228742
:1020800033874487558780E090E0A3E8B2E48687F1
:102090009787A08BB18B80E090E0AEE7B2E4828BB3
:1020A000938BA48BB58B268B378B408F518FE2524D
:1020B000FE4F219331934193519321933193419357
:1020C00051932193319341935193208331834283E0
:1020D0005383EE5BFE4F219331934193519380E004
:1020E00090E0A0EAB1E481939193A193B1938083AE
:1020F0009183A283B383EE5DF24080E090E0A0E79D
:10210000B1E481939193A193B19381939193A1931E
:10211000B19381939193A193B19380E090E0A0EF6C
:10212000B1E481939193A193B19320E030E048E42E
:1021300052E42193319341935193219331934193ED
:10214000519321933193419351932193319341932F
:10215000519380E090E0A0E7B2E481939193A19342
:10216000B19381939193A193B19381939193A1930F
:10217000B19381939193A193B19381939193A193FF
:10218000B19381939193A193B19381939193A193EF
:10219000B19380839183A283B383E857FE4F20835A
:1021A00031834283538379962083318342835383DF
:1021B00079962083318342835383799620833183B8
:1021C00042835383FB97A082B182C282D3827996E5
:1021D000A082B182C282D3827996A082B182C28269
:1021E000D3827996A082B182C282D382E35BF1402E
:1021F0006082718282829382E057F040E082F182B5
:1022000002831383EF56FD4F1192119211921082A7
:10221000329611821082EA59F240A082B182C282C3
:10222000D382389780E090E0A0E0BFE38193919360
:10223000A193B19380839183A283B383E45BFF4F27
:1022400080839183A283B383E658FF4F80E090E0C0
:10225000A0EFB1EC80839183A283B3831F910F9190
:10226000FF90EF90DF90CF90BF90AF909F908F90B6
:102270007F906F900895CF93DF93FC019C012656C9
:102280003F4FE252FE4F80819181A281B381EE5D8A
:10229000F140E90188839983AA83BB839F01225679
:1022A0003F4FEE51FE4F80819181A281B381E25E6A
:1022B000F140E90188839983AA83BB839F012E554E
:1022C0003F4FEA51FE4F80819181A281B381E65E4A
:1022D000F140E90188839983AA83BB839F012A5532
:1022E0003F4FE651FE4F80819181A281B381EA5E2A
:1022F000F140E90188839983AA83BB838285938512
:10230000A485B585E255FF4F80839183A283B38373
:10231000EE5AF04086859785A089B189EE54FF4F2B
:1023200080839183A283B383E25BF04082899389A7
:10233000A489B589EA54FF4F80839183A283B38334
:10234000E65BF04086899789A08DB18DE654FF4FFA
:1023500080839183A283B383EA5BF040828D938D67
:10236000A48DB58DE254FF4F80839183A283B38304
:10237000DF91CF9108950F931F93CF93DF93EB01DC
:1023800008891989101611060CF56AA17BA18CA188
:102390009DA12AE037ED43EA5CE30E9470996E8FBD
:1023A0007F8F88A399A36AA17BA18CA19DA12E896F
:1023B0003F89488D598D0E94A3966AA37BA38CA365
:1023C0009DA301501040198B088B39C00A891B89C5
:1023D000101611069CF46AA17BA18CA19DA12AE094
:1023E00037ED43EA5CE30E9470996E8F7F8F88A37C
:1023F00099A3015010401B8B0A8B21C00C891D89A9
:1024000010161106E4F46AA17BA18CA19DA12E896E
:102410003F89488D598D0E94A2966AA37BA38CA305
:102420009DA32AE037ED43EA5CE30E9470996E8F2A
:102430007F8F88A399A3015010401D8B0C8B40E027
:1024400050E08A899B8928893989820F931F2C89BA
:102450003D89820F931F892B11F441E050E0CA019E
:10246000DF91CF911F910F9108958F929F92AF921C
:10247000BF92CF92DF92EF92FF920F931F93CF9371
:10248000DF93EC018B01685B7F4F75DF4C01E6E663
:10249000CE2ED12CC00ED11EF601608171818281B9
:1024A0009381F80120853185428553850E9470997A
:1024B000F80120A531A542A553A50E9487979B014D
:1024C000AC01F80164AF75AF86AF97AF76E7A72E82
:1024D000B12CA00EB11EF5016081718182819381C2
:1024E0000E94A396F5016083718382839383F60132
:1024F0006081718182819381F801248535854685CB
:1025000057850E947099F80120A531A542A553A5D1
:102510000E9487979B01AC01005C1F4FF80160830C
:10252000718382839383005410406AE7E62EF12C76
:10253000E00EF11EF70160817181828193810E941A
:10254000A396F7016083718382839383F601608190
:10255000718182819381F80120893189428953896F
:102560000E947099F80120A531A542A553A50E94AB
:1025700087979B01AC010C5B1F4FF801608371834F
:1025800082839383065C1F4FF80160817181828191
:1025900093810E94A396F801608371838283938361
:1025A000C450DD4F688179818A819B81F50120814A
:1025B0003181428153810E94A296C25BDF4F6883C2
:1025C00079838A839B83CA54D340C050DD4F68818E
:1025D00079818A819B81F7012081318142815381F8
:1025E0000E94A396C25BDF4F688379838A839B83B3
:1025F000CE54D340CC5FDC4F688179818A819B8146
:10260000F80120813181428153810E94A396C25BEF
:10261000DF4F688379838A839B83C255D3408114BB
:10262000910489F081E088831982CC51DC4F888144
:102630009981AA81BB818093660C9093670CA093CB
:10264000680CB093690CC401DF91CF911F910F9179
:10265000FF90EF90DF90CF90BF90AF909F908F90C2
:1026600008952F923F924F925F926F927F928F9236
:102670009F92AF92BF92CF92DF92EF92FF920F9311
:102680001F93DF93CF93CDB7DEB76E970FB6F89455
:10269000DEBF0FBECDBF9B0122593F4FD901ED9048
:1026A000FD900D911C911397AE56B040BE8FAD8F2B
:1026B00082E8C82ED12CCA0EDB1EF6016081718122
:1026C00082819381A80197010E946599181634F4BC
:1026D000D601ED92FD920D931C931397ED8DFE8D17
:1026E000E259FF4FE080F18002811381EE56F04005
:1026F000FE8FED8FAAE8CA2ED12CCE0EDF1ED6019A
:102700006D917D918D919C91A80197010E94659991
:1027100018162CF4F601E082F182028313832D8DCA
:102720003E8D22593F4F3E8F2D8FD9012D903D90E8
:102730004D905C90C201B101A20191010E9470997B
:102740006093380C7093390C80933A0C90933B0C47
:10275000ED8DFE8D7496FE8FED8F6080718082808E
:102760009380C401B301A40193010E947099609306
:102770003C0C70933D0C80933E0C90933F0C2D8D40
:102780003E8D285F3F4FD9018D919D910D90BC9159
:10279000A02D8D839E83AF83B8872A5830403E8F0B
:1027A0002D8FBC01CD019B01AC010E9470996093FB
:1027B000400C7093410C8093420C9093430CED8D30
:1027C000FE8D60A571A582A593A527E137EB41EDAC
:1027D00058E30E94659918160CF035C7E090380C44
:1027E000F090390C00913A0C10913B0C60913C0C2C
:1027F00070913D0C80913E0C90913F0CA090400C4C
:10280000B090410CC090420CD090430C20E030E0DE
:1028100040E05FEB0E9470999B01AC01C801B701D9
:102820000E94A3967B018C01C601B50120E030E037
:1028300040E05FEB0E9470999B01AC01C801B701B9
:102840000E94A396AD8DBE8D9C962D913D914D918C
:102850005C919F970E9487976093300C7093310C26
:102860008093320C9093330C6091300C7091310C4A
:102870008091320C9091330CED8DFE8D20A531A509
:1028800042A553A50E94809718160CF482C02D8D86
:102890003E8D2A573F4FD9012D923D924D925C9229
:1028A0001397A658B040BE8FAD8F2091300C309159
:1028B000310C4091320C5091330C98966D917D9172
:1028C0008D919C919B970E94A2967B018C01C201E5
:1028D000B1012AE037ED43EA5CE30E9470999B0165
:1028E000AC01C801B7010E94879720E030E040E0CA
:1028F0005FE30E94A3960E94EF97ED8DFE8DE65A4E
:10290000FF4F71836083EA55F040FE8FED8FC20167
:10291000B101A40193010E94A2960D8D1E8D025A51
:102920001F4FD8012D913D914D915C910E94879749
:1029300020E030E040E05FE30E94A3960E94EF9722
:10294000ED8DFE8DE85AFF4F718360833496FE8FC4
:10295000ED8FC201B1012D813E814F8158850E94CA
:10296000A296D8012D913D914D915C910E9487973F
:1029700020E030E040E05FE30E94A3960E94EF97E2
:10298000ED8DFE8D71836083EC55F040FE8FED8FF1
:1029900055C26091400C7091410C8091420C909115
:1029A000430C20913C0C30913D0C40913E0C5091D9
:1029B0003F0C0E94A29620E030E040E05FE30E94DE
:1029C0007099AD8DBE8D9C962D913D914D915C91F0
:1029D0009F970E9487976093340C7093350C809377
:1029E000360C9093370CED8DFE8D20A431A442A4BB
:1029F00053A4E090340CF090350C0091360C1091FB
:102A0000370CC801B70120E030E040E050E00E9400
:102A10008097882324F417FB109517F91095C201AD
:102A2000B101A80197010E94809718160CF4ABC061
:102A30006091340C7091350C8091360C9091370C6C
:102A400020E030E040E050E00E946599E2E86E2E20
:102A5000712C2D8D3E8D620E731E7AE8872E912C7F
:102A6000820E931E66E8C62ED12CC20ED31E265AA5
:102A70003F4F388F2F8B4D8D5E8D485A5F4F5A8F49
:102A8000498F5EE5A52EB12CAD8DBE8DAA0EBB1E65
:102A9000A45ABF4FBC8FAB8FED8DFE8D24A535A5FD
:102AA00046A557A588230CF444C0E0903C0CF09058
:102AB0003D0C00913E0C10913F0CCA01B9010E94DF
:102AC000A396A20191010E947099A80197010E940A
:102AD000A3960E94DD99D6016D937D938D939C936F
:102AE0001397F4016083718382839383AF89B88DD8
:102AF0001D921C92F30120813181428153810E94F9
:102B0000A296D5012D913D914D915C910E948797A0
:102B100020E030E040E05FE30E94A3960E94EF9740
:102B2000E98DFA8D71836083AB8DBC8D1D921C92F3
:102B300085C1E090400CF090410C0091420C109146
:102B4000430CCA01B9010E94A396A20191010E94FF
:102B50007099A80197010E94A3960E94DD99F60141
:102B60006083718382839383D3016D937D938D936F
:102B70009C931397EF89F88D11821082A98DBA8DDD
:102B80001D921C9241C12D8D3E8D2E573F4FD90174
:102B90008D919D910D90BC91A02D89839A83AB83DB
:102BA000BC83225830403E8F2D8FF901E259FF4FF0
:102BB00060817181828193812DEC3CEC4CEC5DE372
:102BC0000E9470997B018C0169817A818B819C8143
:102BD000A80197010E94809788230CF0A9C0ED8D71
:102BE000FE8DE657FF4FFA8BE98B60817181828100
:102BF0009381A80197010E94809788230CF098C0C8
:102C0000A0903C0CB0903D0CC0903E0CD0903F0C7E
:102C10006090400C7090410C8090420C9090430C5E
:102C2000C201B101AD8DBE8D9C962D913D914D910E
:102C30005C919F970E9470997B018C01C601B50140
:102C400020E030E040E05FE30E9470999B01AC011E
:102C5000C801B7010E94A3967B018C01C401B30196
:102C600020E030E040E05FE30E9470999B01AC01FE
:102C7000C801B7010E94A3960E94DD997B018C01D7
:102C8000ED8DFE8DEA57FF4FDF016D937D938D93A0
:102C90009C931397A658B040BE8FAD8F29813A817F
:102CA0004B815C810E94A2964EE5C42ED12CED8D05
:102CB000FE8DCE0EDF1ED6012D913D914D915C9182
:102CC0000E94879720E030E040E05FE30E94A396F7
:102CD0000E94EF97ED8DFE8DE85AFF4F7183608360
:102CE000329611921192FE8FED8FC801B701A9891A
:102CF000BA892D913D914D915C910E94A296F60169
:102D000020813181428153810E94879720E030E009
:102D100040E05FE30E94A3960E94EF97AD8DBE8DC9
:102D200011967C936E93AC55B040BE8FAD8F86C02C
:102D30006091340C7091350C8091360C9091370C69
:102D400020E030E040E050E00E94659932E8632ED8
:102D5000712CED8DFE8D6E0E7F1E2AE8822E912C39
:102D60008E0E9F1E96E8C92ED12CCE0EDF1EE85A7D
:102D7000FF4FFA8FE98F0EE5A02EB12C2D8D3E8DE1
:102D8000A20EB31E245A3F4F3C8F2B8F88234CF149
:102D9000D4016D917D918D919C91F6016083718339
:102DA00082839383D3012D913D914D915C910E943B
:102DB000A296F50120813181428153810E9487973B
:102DC00020E030E040E05FE30E94A3960E94EF978E
:102DD000A98DBA8D6D937C93EB8DFC8D1182108241
:102DE0002DC029813A814B815C81D6012D933D9381
:102DF0004D935C931397E98DFA8D11821082D30164
:102E00006D917D918D919C91F40120813181428160
:102E100053810E94A296D5012D913D914D915C91D7
:102E20000E94879720E030E040E05FE30E94A39695
:102E30000E94EF97EB8DFC8D718360832D8D3E8D0D
:102E4000285A3F4FD9018D919C9111979093590C1D
:102E50008093580C14968D919D9190935D0C809366
:102E60005C0CFD0180819181A281B3818093620C11
:102E70009093630CA093640CB093650CB49680811E
:102E80009181A281B381E258F040FE8FED8F809353
:102E90005E0C90935F0CA093600CB093610C6091FA
:102EA000580C7091590CA0905E0CB0905F0CC090C3
:102EB000600CD090610CE090580CF090590C609030
:102EC000620C7090630C8090640C9090650C882765
:102ED00077FD8095982F0E9422981B012C01C60136
:102EE000B501A60195010E94A3965B016C010894AF
:102EF000E108F1080027F7FC0095102FC801B70181
:102F00000E942298A40193010E9470999B01AC0138
:102F1000C601B5010E94A3969B01AC01C201B1019B
:102F20000E9470992AE037ED43EA5CE30E947099B1
:102F300020E030E040E05FE30E9470996093440C31
:102F40007093450C8093460C9093470C8091580CDD
:102F50009091590C181619060CF071C060915C0C18
:102F600070915D0C60905E0C70905F0C8090600CB6
:102F70009090610CE090580CF090590C2090620CED
:102F80003090630C4090640C5090650CA0905C0CE9
:102F9000B0905D0C2091620C3091630C4091640CF8
:102FA0005091650C2D873E874F87588B882777FD7A
:102FB0008095982F0E9422986B8B7C8B8D8B9E8B9B
:102FC000C401B301A40193010E94A3963B014C01EB
:102FD0000894E108F108EE0CFF1C0027F7FC0095AF
:102FE000102FC801B7010E942298A20191010E94EE
:102FF00070999B01AC01C401B3010E94A3967B01AF
:103000008C010894A108B108CC24B7FCC094DC2C36
:10301000C601B5010E9422982D853E854F855889AD
:103020000E9470999B01AC01C801B7010E94A29651
:103030009B01AC016B897C898D899E8941C060911F
:103040005C0C70915D0CA0905E0CB0905F0CC09019
:10305000600CD090610CE0905C0CF0905D0C609086
:10306000620C7090630C8090640C9090650C8827C3
:1030700077FD8095982F0E9422981B012C01C60194
:10308000B501A60195010E94A3965B016C0108940D
:10309000E11CF11C0027F7FC0095102FC801B701B7
:1030A0000E942298A40193010E9470999B01AC0197
:1030B000C601B5010E94A2969B01AC01C201B101FB
:1030C0000E9470992AE037ED43EA5CE30E94709910
:1030D00020E030E040E05FE30E94709960934C0C88
:1030E00070934D0C80934E0C90934F0C2091440C98
:1030F0003091450C4091460C5091470CA0904C0CDF
:10310000B0904D0CC0904E0CD0904F0C20905E0CA7
:1031100030905F0C4090600C5090610CE090580C27
:10312000F090590C6090620C7090630C8090640C6D
:103130009090650CAD8DBE8D98966D917D918D9121
:103140009C919B970E94A296A60195010E94A2962F
:1031500020E030E048E452E40E9470995B016C0189
:103160000027F7FC0095102FC801B7010E94229894
:10317000A40193010E9470999B01AC01C201B101AD
:103180000E94A3969B01AC01C601B5010E948797DE
:103190000E94EF979B01ED8DFE8DE65AFF4F7183E4
:1031A000608370935B0C60935A0C4D8D5E8D485A12
:1031B0005F4FDA018D919C911197820F931F1496A6
:1031C0002D913C911197AC55B040BE8FAD8F820FC1
:1031D000931F892B21F481E090E091838083ED8D12
:1031E000FE8DE65AFF4FA080B180EA55F040FE8F79
:1031F000ED8FB0925B0CA0925A0C60915A0C7091BA
:103200005B0C20915E0C30915F0C4091600C5091F2
:10321000610C29873A874B875C87E090580CF090C7
:10322000590C6090620C7090630C8090640C9090CC
:10323000650C882777FD8095982F0E9422981B01A6
:103240002C010027F7FC0095102FC801B7010E9440
:103250002298A40193010E9470999B01AC01698599
:103260007A858B859C850E94A3969B01AC01C20147
:10327000B1010E9470992AE037ED43EA5CE30E94B5
:1032800070996093480C7093490C80934A0C90930A
:103290004B0C6091440C7091450C8091460C9091C0
:1032A000470C2091480C3091490C40914A0C5091A8
:1032B0004B0CE0904C0CF0904D0C00914E0C10918A
:1032C0004F0C0E94A396A80197010E94A3966093B9
:1032D000500C7093510C8093520C9093530C20918E
:1032E000500C3091510C4091520C5091530CAD8DBB
:1032F000BE8D98966D917D918D919C919B970E942A
:10330000A2966093540C7093550C8093560C909336
:10331000570CED8DFE8DE85AFF4F80819181A80EEC
:10332000B91E349680819181A80EB91ECC24B7FCB9
:10333000C094DC2C3897FE8FED8FA082B182C282C0
:10334000D3826091540C7091550C8091560C9091E1
:10335000570C20E030E048E452E40E9470997B0171
:103360008C01C601B5010E9422989B01AC01C801E5
:10337000B7010E9487977B018C01ED8DFE8D7E96B3
:10338000DF016D937D938D939C931397A257B0406B
:10339000BE8FAD8F20E030E040E050E00E946599A4
:1033A000181624F017FB109517F910952091620C50
:1033B0003091630C4091640C5091650CC801B701C9
:1033C0000E9465991816A4F48091620C9091630C88
:1033D000A091640CB091650CED8DFE8DEE58FF4F01
:1033E00080839183A283B383E257F040FE8FED8FF9
:1033F0008091580C9091590C181619060CF044C184
:1034000080915C0C90915D0C181619060CF03CC173
:1034100060905E0C70905F0C8090600C9090610CDE
:103420006091580C7091590CA090620CB090630C94
:10343000C090640CD090650CE0905C0CF0905D0C3A
:103440002090620C3090630C4090640C5090650C9E
:10345000882777FD8095982F0E942298A6019501D4
:103460000E9470999B01AC01C401B3010E94A39614
:103470005B016C010027F7FC0095102FC801B70114
:103480000E942298A20191019FC080915C0C9091B2
:103490005D0C892B09F0FFC060915E0C70915F0C90
:1034A0008091600C9091610CED8DFE8DEE58FF4F78
:1034B000FE8FED8F20813181428153810E94A3963E
:1034C0002D8D3E8D285E3F4FD90197C080915A0CBB
:1034D00090915B0CBAE88B2E912CED8DFE8D8E0EAB
:1034E0009F1EA2E76A2E712C6E0E7F1E18161906FB
:1034F000BCF0A0905E0CB0905F0CC090600CD090BF
:10350000610C6091580C7091590CE090620CF09035
:10351000630C0091640C1091650C6150704014C0F4
:10352000A0905E0CB0905F0CC090600CD090610CCD
:103530006091580C7091590CE090620CF090630C03
:103540000091640C1091650C882777FD8095982F69
:103550000E942298A80197010E9470999B01AC01DA
:10356000C601B5010E94A396D3012D913D914D91C5
:103570005C910E94A396F40160837183828393839C
:1035800045C08091580C9091590C18161906F4F109
:10359000A0905E0CB0905F0CC090600CD090610C5D
:1035A00060915C0C70915D0CE090620CF090630C8B
:1035B0000091640C1091650C882777FD8095982FF9
:1035C0000E942298A80197010E9470999B01AC016A
:1035D000C601B5010E94A2962D8D3E8D2E583F4FFB
:1035E0003E8F2D8FD9012D913D914D915C910E947F
:1035F000A396ED8DFE8D7896DF016D937D938D936F
:103600009C931397AA58B040BE8FAD8FED8DFE8D61
:10361000EE58FF4F2D8D3E8D2E573F4F3E8F2D8FF5
:10362000D9016D917D918D919C9120813181428153
:1036300053810E94A396ED8DFE8D789760837183F0
:103640008283938331C0ED8DFE8DE45BFF4FDF01FC
:1036500010821182128213821C9611961C921E9265
:10366000FD011292129212921292369611921192BA
:1036700011821082749780E590E081939193FE8F80
:10368000ED8F9183808310C08091580C9091590CDC
:10369000892B09F4FACE80915C0C90915D0C181680
:1036A00019060CF46ECF12CF6E960FB6F894DEBFEB
:1036B0000FBECDBFCF91DF911F910F91FF90EF9083
:1036C000DF90CF90BF90AF909F908F907F906F9042
:1036D0005F904F903F902F9008952F923F924F927E
:1036E0005F926F927F928F929F92AF92BF92CF9292
:1036F000DF92EF92FF920F931F93DF93CF93CDB79B
:10370000DEB768970FB6F894DEBF0FBECDBF1C01C1
:103710004D875E876F87788BC901B8012EE931E04C
:10372000220E331EF10121913191419151912D834E
:103730003E834F83588721913191419151911F01CF
:1037400029833A834B835C8320E030E044E353E4F5
:103750000E94879729EF3FE049E450EC0E9470995E
:1037600029EF3FE049EC5FE30E94A3962B013C0167
:10377000C701B60120E030E044E353E40E9487979C
:1037800029EF3FE049E450E40E947099698B7A8BFD
:103790008B8B9C8BB201C3010E9484977B018C01AF
:1037A00029893A894B895C89B901CA010E948497A9
:1037B00069877A878B879C876D817E818F819885C9
:1037C000A80197010E9470997B018C0169817A811F
:1037D0008B819C8129853A854B855C850E947099F7
:1037E0009B01AC01C801B7010E94A396F1012081A1
:1037F0003181428153810E94A39626E63FEF220E3B
:10380000331EF10120813181428153810E94A396B0
:103810006D8B7E8B8F8B988FB201C3010E94D399E1
:103820007B018C0129893A894B895C89B901CA01DC
:103830000E94D3992B013C016D817E818F819885F7
:10384000A80197010E9470997B018C0169817A819E
:103850008B819C81A30192010E9470999B01AC0114
:10386000C801B7010E94A2962EE930E0220E331E55
:10387000F10121913191419151911F010E94A39633
:10388000F10120813181428153810E94A2962B0156
:103890003C016D857E858F85988920E030E044E38A
:1038A00053E40E94879729EF3FE049E450E40E94E7
:1038B00070997B018C01C8010E9484979B01AC0127
:1038C0006D897E898F89988D0E947099EEA5FFA5DC
:1038D0006083718382839383B701C8010E94D39967
:1038E0009B01AC016D897E898F89988D0E947099AA
:1038F000EEA5FFA56483758386839783C201D301F8
:1039000080879187A287B387C501B4012D853E8545
:103910004F8558890E94A396EEA5FFA564877587F9
:103920008687978768960FB6F894DEBF0FBECDBF27
:10393000CF91DF911F910F91FF90EF90DF90CF908B
:10394000BF90AF909F908F907F906F905F904F90BF
:103950003F902F9008952F923F924F925F926F92D7
:103960007F928F929F92AF92BF92CF92DF92EF920F
:10397000FF920F931F93DF93CF93CDB7DEB7C85459
:10398000D0400FB6F894DEBF0FBECDBF2C0149AFBB
:103990005AAF6BAF7CAF21960CAF1DAF2EAF3FAFD0
:1039A00021972596CCAEDDAEEEAEFFAE25972996DB
:1039B0008CAE9DAEAEAEBFAE29972EEC31E0420E7E
:1039C000531EF201E080F1800281138122E33EEF79
:1039D000420E531ECB01BA01A80197010E947099B3
:1039E000F20122853385448555850E94A3966DABEF
:1039F0007EAB8FAB98AF21966CAD7DAD8EAD9FAD9C
:103A00002197A80197010E947099F20126853785B8
:103A1000408951890E94A39669AB7AAB8BAB9CAB72
:103A200025966CAD7DAD8EAD9FAD2597A801970114
:103A30000E947099F20122893389448955890E9434
:103A4000A3966DA77EA78FA798ABC501B401A80167
:103A500097010E947099F20126893789408D518D16
:103A60000E94A39669A77AA78BA79CA70F920F9293
:103A7000CE010196EDB7FEB792838183C2014DA9B5
:103A80005EA96FA978AD09A91AA92BA93CA9CDA453
:103A9000DEA4EFA4F8A889A49AA4ABA4BCA41DDE5C
:103AA000E980FA800B811C81AD80BE80CF80D884F4
:103AB0000F900F906DA97EA98FA998AD20E030E0FE
:103AC00044E353EC0E948097882364F469AD7AAD97
:103AD0008BAD9CAD20E030E040E050E00E9480974C
:103AE00087FD06C16DA97EA98FA998AD20E030E0C1
:103AF00044E353E40E94659918166CF469AD7AADFD
:103B00008BAD9CAD20E030E040E050E00E94659934
:103B100018160CF4EDC069A97AA98BA99CA920E01C
:103B200030E040EA50EC0E948097882374F421969C
:103B30006CAD7DAD8EAD9FAD219720E030E040E0D3
:103B400050E00E94809787FDD3C069A97AA98BA90C
:103B50009CA920E030E04AEA52E40E9465991816D8
:103B60007CF421966CAD7DAD8EAD9FAD219720E0AC
:103B700030E040E050E00E94659918160CF4B8C09F
:103B80006DA57EA58FA598A920E030E040E251EC1C
:103B90000E948097882374F425966CAD7DAD8EAD20
:103BA0009FAD259720E030E040E050E00E948097F4
:103BB00087FD9EC06DA57EA58FA598A920E030E069
:103BC0004EEB52E40E94659918167CF425966CAD74
:103BD0007DAD8EAD9FAD259720E030E040E050E018
:103BE0000E94659918160CF483C069A57AA58BA567
:103BF0009CA520E030E044EB52EC0E9480978823A3
:103C000074F429966CAD7DAD8EAD9FAD299720E003
:103C100030E040E050E00E94809787FD69C069A5D0
:103C20007AA58BA59CA520E030E044EB52E40E94ED
:103C3000659918167CF429966CAD7DAD8EAD9FAD5F
:103C4000299720E030E040E050E00E946599181686
:103C50000CF44EC0C801B701A80197010E947099E9
:103C60007B018C01C601B501A60195010E947099E6
:103C70009B01AC01C801B7010E94A3960E94DD9987
:103C80007B018C0120E030E840EA53E40E94659912
:103C9000181674F1C801B70120E030E041E053E4A8
:103CA0000E94809787FD24C069857A858B859C85D5
:103CB00020E030E048E053E40E9465991816C4F013
:103CC00069A97AA98BA99CA920E030E044EB52E4D1
:103CD0000E94A3962DA53EA54FA558A90E94A29685
:103CE00020E030E04AEF52E40E94659918166CF427
:103CF000F2011382128215821482178216821186B3
:103D0000108681E080831182FBC2820102531E4F24
:103D100069AD7AAD8BAD9CADF801208131814281D6
:103D200053810E9470996B017C01F2016285738559
:103D300084859585A70196010E94A396F20162876A
:103D400073878487958721966CAD7DAD8EAD9FADD1
:103D50002197F80120813181428153810E9470991D
:103D60009B01AC01F20166857785808991890E946B
:103D7000A396F20166877787808B918B25966CAD31
:103D80007DAD8EAD9FAD2597F801208131814281B7
:103D900053810E9470999B01AC01F2016289738981
:103DA000848995890E94A396F201628B738B848B20
:103DB000958B29966CAD7DAD8EAD9FAD2997F801A1
:103DC00020813181428153810E9470999B01AC0115
:103DD000F20166897789808D918D0E94A396F20108
:103DE000668B778B808F918F76E0272E72E0372E4F
:103DF000240C351CEE54FE4FC701B60120813181E1
:103E0000428153810E948797F201EA54FE4F20813C
:103E10003181428153810E947099F201EE53FE4F2D
:103E200020813181428153810E947099F10120816A
:103E30003181428153810E94A3963B014C01F101E3
:103E400060837183828393839F7720E030E040E832
:103E50005FE30E948097882324F4F2011382128288
:103E600033C0C401B3010E94EF977B018C01B701FD
:103E7000882777FD8095982F0E9422985B016C011E
:103E8000C401B301A60195010E94A296F1016083CD
:103E9000718382839383F201E250FE4F808191818E
:103EA000E80EF91EF182E082F201EE52FE4FC601E9
:103EB000B50120813181428153810E9470990E9415
:103EC000EF97F201738362836AE0262E62E0362E5A
:103ED000240C351CF201E253FE4F21966CAD7DADF2
:103EE0008EAD9FAD219720813181428153810E9407
:103EF0007099F201EE54FE4F20813181428153814D
:103F00000E948797F201E654FE4F20813181428161
:103F100053810E947099F201EA53FE4F2081318152
:103F2000428153810E947099F10120813181428147
:103F300053810E94A3963B014C01F1016083718380
:103F4000828393839F7720E030E040E85FE30E9424
:103F50008097882324F4F2011582148233C0C401AF
:103F6000B3010E94EF977B018C01B701882777FD91
:103F70008095982F0E9422985B016C01C401B301C7
:103F8000A60195010E94A296F1016083718382834C
:103F90009383F201E050FE4F80819181E80EF91E7B
:103FA000F182E082F201EA52FE4FC601B5012081A2
:103FB0003181428153810E9470990E94EF97F201F2
:103FC000758364835EE0252E52E0352E240C351C6B
:103FD000F201E253FE4F25966CAD7DAD8EAD9FADE7
:103FE000259720813181428153810E947099F2018D
:103FF000EE54FE4F20813181428153810E94879788
:10400000F201E254FE4F20813181428153810E94AE
:104010007099F201E653FE4F208131814281538134
:104020000E947099F10120813181428153810E9467
:10403000A3963B014C01F1016083718382839383DA
:104040009F7720E030E040E85FE30E94809788237C
:1040500024F4F2011782168233C0C401B3010E9416
:10406000EF977B018C01B701882777FD8095982F0A
:104070000E9422985B016C01C401B301A601950165
:104080000E94A296F1016083718382839383F2017F
:10409000EE5FFD4F80819181E80EF91EF182E08292
:1040A000F201E652FE4FC601B50120813181428105
:1040B00053810E9470990E94EF97F2017783668383
:1040C00042E1842E42E0942E840C951CF201E253CE
:1040D000FE4F29966CAD7DAD8EAD9FAD29972081A9
:1040E0003181428153810E947099F201EE54FE4F5A
:1040F00020813181428153810E948797F401208180
:104100003181428153810E94A3965B016C01F401CD
:1041100060837183828393839F7720E030E040E85F
:104120005FE30E948097882324F4F20111861086B1
:1041300028C0C601B5010E94EF977B018C01B70131
:10414000882777FD8095982F0E9422989B01AC01CB
:10415000C601B5010E94A296F40160837183828337
:104160009383F201EC5FFD4F808191818E0D9F1D45
:1041700091838083F094E194F108F394F201F18645
:10418000E0863EEEE32E31E0F32EE40CF51C2EEF3C
:1041900031E0420E531EF2016081718122E03EEF58
:1041A000420E531E882777FD8095982F0E942298F3
:1041B000F201EA54FE4F20813181428153810E94F5
:1041C0008797F201EE53FE4F208131814281538166
:1041D0000E94879782010E541E4FF8012081318181
:1041E000428153810E947099F701608371838283B9
:1041F000938322EFE22E21E0F22EE40CF51C20E066
:1042000032E0420E531EF2016081718120E03EEFE8
:10421000420E531E882777FD8095982F0E94229882
:10422000F201E654FE4F20813181428153810E9488
:104230008797F201EA53FE4F2081318142815381F9
:104240000E948797F80120813181428153810E9429
:104250007099F701608371838283938396EFE92ECF
:1042600091E0F92EE40CF51C22E032E0420E531EE0
:10427000F20160817181882777FD8095982F0E94D7
:1042800022982CEB3FEF420E531EF2012081318128
:10429000428153810E9487972CE030E0420E531EEA
:1042A000F20120813181428153810E948797F80178
:1042B00020813181428153810E947099F70160838E
:1042C0007183828393832AE330E0420E531EF2010E
:1042D00060817181882777FD8095982F0E942298B0
:1042E000F80120813181428153810E94709926EF2B
:1042F0003FEF420E531EF2016083718382839383EA
:10430000C85BDF4F0FB6F894DEBF0FBECDBFCF91B5
:10431000DF911F910F91FF90EF90DF90CF90BF90B2
:10432000AF909F908F907F906F905F904F903F9055
:104330002F9008958F929F92AF92BF92CF92DF926B
:10434000EF92FF920F931F93CF93DF93EC01C45D25
:10435000DC4FE880F9800A811B81CC52D340C80130
:10436000B70120E030E040E050E00E9480978823D1
:1043700019F481E0888319C1C85CDC4F8881998178
:10438000C853D3408130910561F08330910549F0E5
:104390008530910531F08730910519F08B3091050A
:1043A00041F5C801B70120E030E040E050E00E9454
:1043B0006599FCE2CF2EF3E0DF2ECC0EDD1E181641
:1043C0000CF051C0FE01EC5CFC4FDE01A253BE4F6D
:1043D00060817181828193812D913D914D915C919C
:1043E0000E9470999B01AC01C801B7010E94A2967E
:1043F00034C08230910559F08430910541F0863007
:10440000910529F08830910511F00C97A9F5C801A4
:10441000B70120E030E040E050E00E948097ECE2FD
:10442000CE2EE3E0DE2ECC0EDD1E8823E4F4FE016A
:10443000EC5CFC4FDE01A253BE4F60817181828132
:1044400093812D913D914D915C910E9470999B01BA
:10445000AC01C801B7010E94A396F6016083718385
:10446000828393830BC080E090E0A0E0B0E0F6018F
:1044700080839183A283B38381E08883C85CDC4F0F
:1044800088819981C853D3408530910509F44CC087
:10449000863091058CF48230910521F183309105AD
:1044A00024F4019709F081C01DC08330910551F1BA
:1044B000049709F07AC026C08830910509F446C0F7
:1044C000893091053CF48630910571F1079709F028
:1044D0006CC03CC08B30910509F44BC00C9709F0BF
:1044E00064C047C0C45DDC4F488159816A817B81CB
:1044F000CC52D340CE0100E010E020E030E0680173
:1045000079010FC0C45DDC4F088119812A813B818C
:10451000CC52D340CE0140E050E060E070E06A0150
:104520007B014601570123C0C45DDC4FC880D980A0
:10453000EA80FB80CC52D340CE0140E050E060E006
:1045400070E08A019B014A015B0111C0C45DDC4F30
:1045500088809980AA80BB80CC52D340CE0140E0B5
:1045600050E060E070E08A019B016A017B01F3D9B1
:104570001CC0FE01E45DFC4FDE01A253BE4F608112
:104580007181828193812D913D914D915C910E9429
:1045900070999B01AC016A8D7B8D8C8D9D8D0E94E5
:1045A000A3966A8F7B8F8C8F9D8FDF91CF911F9108
:1045B0000F91FF90EF90DF90CF90BF90AF909F90C2
:1045C0008F9008954F925F926F927F928F929F92F9
:1045D000AF92BF92CF92DF92EF92FF920F931F9311
:1045E000CF93DF93EC016530710509F4F0C16630BB
:1045F0007105CCF46230710509F499C0633071051E
:104600004CF46115710509F493C46130710509F02A
:1046100090C422C06330710509F4FBC06430710599
:1046200009F087C461C16830710509F41BC36930A2
:1046300071054CF46630710509F435C267307105B7
:1046400009F077C4A3C26B30710509F47EC36C30E6
:10465000710509F06EC4EEC38C01005D1C4FFC01B6
:10466000EA5AFF4FCA56DF4F608171818281938180
:10467000288139814A815B810E9470996B017C019C
:10468000F8016083718382839383E0974880598027
:104690006A807B80C253DD4F488259826A827B8266
:1046A000C453D3408E01045D1C4FF801808091807B
:1046B000A280B380C501B401A70196010E94809732
:1046C0008823BCF4FE01E253FE4FC301B2012081F6
:1046D0003181428153810E9470999B01AC01C501D7
:1046E000B4010E94A396F80160837183828393834F
:1046F00005C0F801C082D182E282F38281E0888322
:10470000C45DDC4F488159816A817B81CC52D340A2
:10471000CE0100E010E020E030E0680179014801BE
:10472000590119D9C85CDC4F81E090E0FEC38C01CF
:10473000005D1C4FFC01EA5AFF4FCA56DF4F6081F3
:10474000718182819381288139814A815B810E94B4
:104750007099F8016083718382839383E097688006
:1047600079808A809B80C253DD4F688279828A82F9
:104770009B82C453D3402CE2422E23E0522E4C0E97
:104780005D1EF201A080B180C280D3807B018C01CC
:1047900017FB109517F91095C601B501A8019701EF
:1047A0000E9465991816BCF4FE01E253FE4FC40145
:1047B000B30120813181428153810E9470999B0114
:1047C000AC01C601B5010E94A296F201608371831B
:1047D0008283938305C0F201E082F1820283138316
:1047E00081E08883C45DDC4F488159816A817B8187
:1047F000CC52D340CE0100E010E020E030E0680170
:10480000790148015901A7D8C85CDC4F82E090E0EB
:104810008CC38C01005D1C4FFC01E65AFF4FCA5649
:10482000DF4F6081718182819381288139814A8142
:104830005B810E9470996B017C01F8016083718338
:1048400082839383AC97488059806A807B80C6536B
:10485000DD4F488259826A827B82C453D3408E01E5
:10486000045D1C4FF80180809180A280B380C50157
:10487000B401A70196010E9480978823BCF4FE0131
:10488000E253FE4FC301B201208131814281538145
:104890000E9470999B01AC01C501B4010E94A396CE
:1048A000F801608371838283938305C0F801C0821D
:1048B000D182E282F38281E08883C45DDC4F08818B
:1048C00019812A813B81CC52D340CE0140E050E097
:1048D00060E070E06A017B014A015B013CD8C85C82
:1048E000DC4F83E090E021C38C01005D1C4FFC0194
:1048F000E65AFF4FCA56DF4F6081718182819381F2
:10490000288139814A815B810E947099F801608316
:10491000718382839383AC97688079808A809B803F
:10492000C653DD4F688279828A829B82C453D3400A
:104930000CE2402E03E0502E4C0E5D1EF201A080D2
:10494000B180C280D3807B018C0117FB109517F9D1
:104950001095C601B501A80197010E946599181626
:10496000BCF4FE01E253FE4FC401B301208131814A
:10497000428153810E9470999B01AC01C601B5012F
:104980000E94A296F201608371838283938305C0A3
:10499000F201E082F1820283138381E08883C45DA7
:1049A000DC4F088119812A813B81CC52D340CE0152
:1049B00040E050E060E070E06A017B014A015B0189
:1049C0000E94AB1CC85CDC4F84E090E0AEC28C015E
:1049D000005D1C4FFC01E25AFF4FCA56DF4F608159
:1049E000718182819381288139814A815B810E9412
:1049F00070996B017C01F8016083718382839383DA
:104A0000A897488059806A807B80CA53DD4F4882CE
:104A100059826A827B82C453D3408E01045D1C4F4D
:104A2000F80180809180A280B380C501B401A70104
:104A300096010E9480978823BCF4FE01E253FE4F4A
:104A4000C301B20120813181428153810E9470995A
:104A50009B01AC01C501B4010E94A396F8016083DB
:104A600071838283938305C0F801C082D182E28280
:104A7000F38281E08883C45DDC4FC880D980EA80FE
:104A8000FB80CC52D340CE0140E050E060E070E0CB
:104A90008A019B014A015B010E94AB1CC85CDC4F90
:104AA00085E090E042C28C01005D1C4FFC01E25A9F
:104AB000FF4FCA56DF4F60817181828193812881C7
:104AC00039814A815B810E947099F801608371830A
:104AD00082839383A897688079808A809B80CA5359
:104AE000DD4F688279828A829B82C453D3401CE264
:104AF000412E13E0512E4C0E5D1EF201A080B180BC
:104B0000C280D3807B018C0117FB109517F910959B
:104B1000C601B501A80197010E9465991816BCF459
:104B2000FE01E253FE4FC401B30120813181428175
:104B300053810E9470999B01AC01C601B5010E948E
:104B4000A296F201608371838283938305C0F20190
:104B5000E082F1820283138381E08883C45DDC4FAD
:104B6000C880D980EA80FB80CC52D340CE0140E09F
:104B700050E060E070E08A019B014A015B010E9405
:104B8000AB1CC85CDC4F86E090E0CFC18C01005DBF
:104B90001C4FFC01EE59FF4FCA56DF4F60817181F7
:104BA00082819381288139814A815B810E94709939
:104BB0006B017C01F8016083718382839383A497E6
:104BC000488059806A807B80CE53DD4F488259826D
:104BD0006A827B82C453D3408E01045D1C4FF8016E
:104BE00080809180A280B380C501B401A7019601A5
:104BF0000E9480978823BCF4FE01E253FE4FC3015C
:104C0000B20120813181428153810E9470999B01C0
:104C1000AC01C501B4010E94A396F80160837183C1
:104C20008283938305C0F801C082D182E282F3823D
:104C300081E08883C45DDC4F88809980AA80BB8036
:104C4000CC52D340CE0140E050E060E070E08A01F9
:104C50009B016A017B010E94AB1CC85CDC4F87E0B2
:104C600090E063C18C01005D1C4FFC01EE59FF4FC9
:104C7000CA56DF4F60817181828193812881398199
:104C80004A815B810E947099F801608371838283FD
:104C90009383A497688079808A809B80CE53DD4F70
:104CA000688279828A829B82C453D340BCE24B2EB5
:104CB000B3E05B2E4C0E5D1EF201A080B180C2807D
:104CC000D3807B018C0117FB109517F91095C60155
:104CD000B501A80197010E9465991816BCF4FE0160
:104CE000E253FE4FC401B3012081318142815381DF
:104CF0000E9470999B01AC01C601B5010E94A29669
:104D0000F201608371838283938305C0F201E082A4
:104D1000F1820283138381E08883C45DDC4F888045
:104D20009980AA80BB80CC52D340CE0140E050E0B5
:104D300060E070E08A019B016A017B010E94AB1C6C
:104D4000C85CDC4F88E090E0F0C08C01005D1C4F37
:104D5000FC01EE59FF4FCA56DF4F6081718182819D
:104D60009381288139814A815B810E9470996B010E
:104D70007C01F8016083718382839383A4974880C8
:104D800059806A807B80CE53DD4F488259826A8287
:104D90007B82C453D3408E01045D1C4FF801808098
:104DA0009180A280B380C501B401A70196010E9441
:104DB00080978823BCF4FE01E253FE4FC301B20189
:104DC00020813181428153810E9470999B01AC0105
:104DD000C501B4010E94A396F801608371838283A8
:104DE000938305C0F801C082D182E282F38281E020
:104DF0008883FE01E45DFC4FDE01A253BE4F60815B
:104E00007181828193812D913D914D915C910E94A0
:104E100070999B01AC016A8D7B8D8C8D9D8D0E945C
:104E2000A3966A8F7B8F8C8F9D8FC85CDC4F8BE045
:104E300090E07BC08C01005D1C4FFC01EE59FF4FE0
:104E4000CA56DF4F608171818281938128813981C7
:104E50004A815B810E947099F8016083718382832B
:104E60009383A497688079808A809B80CE53DD4F9E
:104E7000688279828A829B82C453D340ACE24A2EF4
:104E8000A3E05A2E4C0E5D1EF201A080B180C280BC
:104E9000D3807B018C0117FB109517F91095C60183
:104EA000B501A80197010E9465991816BCF4FE018E
:104EB000E253FE4FC401B30120813181428153810D
:104EC0000E9470999B01AC01C601B5010E94A29697
:104ED000F201608371838283938305C0F201E082D3
:104EE000F1820283138381E08883FE01E45DFC4F3D
:104EF000DE01A253BE4F60817181828193812D9129
:104F00003D914D915C910E9470999B01AC016A8D1D
:104F10007B8D8C8D9D8D0E94A3966A8F7B8F8C8F4D
:104F20009D8FC85CDC4F8CE090E09983888301C042
:104F300001DADF91CF911F910F91FF90EF90DF90F9
:104F4000CF90BF90AF909F908F907F906F905F9029
:104F50004F9008952F923F924F925F926F927F925F
:104F60008F929F92AF92BF92CF92DF92EF92FF9279
:104F70000F931F93CF93DF93EC01FC01E251FD4FA0
:104F8000608171816F5F7F4F71836083882777FDB8
:104F90008095982F0E942298C253DE4F2881398134
:104FA0004A815B810E9470995B016C01C65DDE4F96
:104FB000688379838A839B83C85FD240FE01E05176
:104FC000FD4FC25EDD4FE990F99009911991E082A1
:104FD000F18202831383688079808A809B80CE521D
:104FE000DF4F688279828A829B82C45FD240A801A7
:104FF00097010E94809718169CF0C65DDD4F68816E
:1050000079818A819B81A60195010E947099C3567E
:10501000DF4F688379838A839B83C75CD24047C014
:10502000C801B701A40193010E94A3969B01AC01A2
:10503000C601B5010E94809797EC292E92E0392E87
:105040002C0E3D1EBAE14B2EB2E05B2E4C0E5D1EC7
:1050500018165CF0F20180819181A281B381F10187
:1050600080839183A283B38322C0C65DDD4FC601D6
:10507000B501A80197010E94A296A40193010E9484
:10508000A296288139814A815B81CA52D2400E940E
:1050900070999B01AC01F2016081718182819381E1
:1050A0000E94A296F1016083718382839383FE0143
:1050B000E051FD4FC95CDD4FA990B990C990D990DE
:1050C000A082B182C282D382688079808A809B80EC
:1050D000C754DF4F6992799289929992E880F9805A
:1050E0000A811B81C85FD240C801B701A6019501A2
:1050F0000E94809718169CF0CD5BDD4F6881798106
:105100008A819B81A80197010E947099C458DF4F42
:10511000688379838A839B83CF5BD24047C0C60173
:10512000B501A40193010E94A3969B01AC01C801A3
:10513000B7010E948097AFEB4A2EA2E05A2E4C0E88
:105140005D1EF3E32F2EF2E03F2E2C0E3D1E1816AF
:105150005CF0F10180819181A281B381F2018083B1
:105160009183A283B38322C0CD5BDD4FC801B70119
:10517000A60195010E94A296A40193010E94A29605
:10518000288139814A815B81C354D2400E94709941
:105190009B01AC01F10160817181828193810E9448
:1051A000A296F2016083718382839383FE01E051B2
:1051B000FD4FC05BDD4FA990B990C990D990A082F6
:1051C000B182C282D382688079808A809B80C056F7
:1051D000DF4F6992799289929992E880F9800A81E9
:1051E0001B81C85FD240C801B701A60195010E948A
:1051F000809718169CF0C45ADD4F688179818A81A6
:105200009B81A80197010E947099C959DF4F68835B
:1052100079838A839B83C35CD24047C0C601B501B2
:10522000A40193010E94A3969B01AC01C801B701A0
:105230000E948097E3EC4E2EE2E05E2E4C0E5D1E47
:105240007CE4272E72E0372E2C0E3D1E18165CF0E3
:10525000F10180819181A281B381F20180839183E8
:10526000A283B38322C0C45ADD4FC801B701A6018F
:1052700095010E94A296A40193010E94A296288102
:1052800039814A815B81CC55D2400E9470999B0143
:10529000AC01F10160817181828193810E94A296AB
:1052A000F2016083718382839383FE01E051FD4F9D
:1052B000C759DD4FA990B990C990D990A082B18209
:1052C000C282D382688079808A809B80C957DF4FF1
:1052D0006992799289929992E880F9800A811B817A
:1052E000C85FD240C801B701A60195010E9480970E
:1052F00018169CF0CB58DD4F688179818A819B819B
:10530000A80197010E947099CA5ADF4F6883798378
:105310008A839B83CB5CD24047C0C601B501A40100
:1053200093010E94A3969B01AC01C801B7010E94A2
:1053300080976BEC462E62E0562E4C0E5D1E55E6B5
:10534000252E52E0352E2C0E3D1E18165CF0F10174
:1053500080819181A281B381F20180839183A283B4
:10536000B38322C0CB58DD4FC801B701A601950118
:105370000E94A296A40193010E94A29628813981DD
:105380004A815B81C557D2400E9470999B01AC0154
:10539000F10160817181828193810E94A296F20164
:1053A000608371838283938347ECA42E42E0B42E02
:1053B000AC0EBD1ECD55DD4F68817981C35AD240F8
:1053C000882777FD8095982F0E9422989B01AC0139
:1053D000F50160817181828193810E9470992B0116
:1053E0003C01F50160837183828393838E010154B4
:1053F0001D4FCB55DD4F68817981C55AD240882732
:1054000077FD8095982F0E9422989B01AC01F801AE
:1054100060817181828193810E947099F80160831B
:105420007183828393838E010D531D4FC955DD4FC8
:1054300068817981C75AD240882777FD8095982F57
:105440000E9422989B01AC01F801608171818281E8
:1054500093810E947099F8016083718382839383A2
:105460008E0105531D4FC755DD4F68817981C95A9B
:10547000D240882777FD8095982F0E9422989B0123
:10548000AC01F80160817181828193810E947099E1
:10549000F80160837183828393833EE2832E32E03E
:1054A000932E8C0E9D1EF4018081882309F05FC02D
:1054B000FE01E850FD4FDE01A651BD4F60817181B4
:1054C000828193812D913D914D915C910E946599CE
:1054D0002EECE22E21E0F22EEC0EFD1E9BEAC92EF0
:1054E00092E0D92ECC0EDD1E88234CF18E010D5694
:1054F0001D4FF8016081718182819381F6012081C5
:105500003181428153810E94A296F701208131812D
:10551000428153810E948797F50160837183828362
:105520009383F80180819181A281B381F601808308
:105530009183A283B38381E0F401808321C0C301FE
:10554000B201F70120813181428153810E9470991B
:105550009B01AC01F60160817181828193810E947F
:10556000A396F601608371838283938309C080E0F0
:1055700090E0A0E0B0E0F50180839183A283B38343
:1055800087E4A82E82E0B82EAC0EBD1EF501808106
:10559000882309F068C0FE01E850FD4FDE01A651E6
:1055A000BD4F60817181828193812D913D914D919B
:1055B0005C910E9465990EECE02E01E0F02EEC0E5D
:1055C000FD1E1FEB412E12E0512E4C0E5D1EBFEA58
:1055D000CB2EB2E0DB2ECC0EDD1E88234CF18E01EB
:1055E00009561D4FF8016081718182819381F60116
:1055F00020813181428153810E94A296F70120814E
:105600003181428153810E948797F20160837183C7
:1056100082839383F80180819181A281B381F60115
:1056200080839183A283B38381E0F501808327C0C7
:10563000F2016081718182819381F7012081318142
:10564000428153810E9470999B01AC01F6016081F7
:105650007181828193810E94A396F6016083718398
:10566000828393830CC0C154DD4F80E090E0A0E0C2
:10567000B0E088839983AA83BB83CF5BD240A0E646
:10568000AA2EA2E0BA2EAC0EBD1EF50180818823A1
:1056900009F068C0FE01E850FD4FDE01A651BD4F84
:1056A00060817181828193812D913D914D915C91B9
:1056B0000E946599FEECEF2EF1E0FF2EEC0EFD1E30
:1056C000E3EC4E2EE2E05E2E4C0E5D1E73EBC72E19
:1056D00072E0D72ECC0EDD1E88234CF18E010556CC
:1056E0001D4FF8016081718182819381F6012081D3
:1056F0003181428153810E94A296F701208131813C
:10570000428153810E948797F20160837183828373
:105710009383F80180819181A281B381F601808316
:105720009183A283B38381E0F501808327C0F201D6
:105730006081718182819381F70120813181428171
:1057400053810E9470999B01AC01F60160817181C7
:10575000828193810E94A396F60160837183828384
:1057600093830CC0CD53DD4F80E090E0A0E0B0E02B
:1057700088839983AA83BB83C35CD24069E7A62E42
:1057800062E0B62EAC0EBD1EF5018081882309F0C3
:1057900068C0FE01E850FD4FDE01A651BD4F60819B
:1057A0007181828193812D913D914D915C910E94F7
:1057B00065995EECE52E51E0F52EEC0EFD1E4BECEE
:1057C000442E42E0542E4C0E5D1E37EBC32E32E0C9
:1057D000D32ECC0EDD1E88234CF18E0101561D4FB9
:1057E000F8016081718182819381F601208131818C
:1057F000428153810E94A296F7012081318142812A
:1058000053810E948797F20160837183828393831F
:10581000F80180819181A281B381F6018083918317
:10582000A283B38381E0F501808327C0F201608108
:10583000718182819381F70120813181428153817D
:105840000E9470999B01AC01F60160817181828197
:1058500093810E94A396F601608371838283938370
:105860000CC0C553DD4F80E090E0A0E0B0E088833D
:105870009983AA83BB83CB5CD240C953DD4F488157
:1058800059816A817B8128970991199129913991D0
:10589000C880D980EA80FB80289688809980AA8079
:1058A000BB80CB5CD240CE010E94AB1CDF91CF917C
:1058B0001F910F91FF90EF90DF90CF90BF90AF902E
:1058C0009F908F907F906F905F904F903F902F9020
:1058D00008952F923F924F925F926F927F928F9294
:1058E0009F92AF92BF92CF92DF92EF92FF920F936F
:1058F0001F93DF93CF93CDB7DEB7C454D0400FB61C
:10590000F894DEBF0FBECDBF3C011A012B01098BFD
:105910001A8B2B8B3C8BCD8ADE8AEF8AF88E898E90
:105920009A8EAB8EBC8EDC018C91882311F00C9486
:10593000B035E6EEF2E06E0E7F1ED3018C91EAE107
:10594000FDEF6E0E7F1E882311F00C94B035D3014D
:1059500011968C911197882311F00C945035EAE43C
:10596000CE2ED12CC60CD71CD6966D917D918D91E3
:105970009C91D997F60120813181428153810E9407
:1059800070992AE232E0620E731ED3016D937D930B
:105990008D939C931397E6EDFDEF6E0E7F1ED30162
:1059A000DA966D917D918D919C91DD97F601208124
:1059B0003181428153810E9470997B018C0123E4E3
:1059C00032E0620E731ED3016D937D938D939C9391
:1059D0001397EDEBFDEF6E0E7F1E7CE5A72E72E0B8
:1059E000B72EA60CB71C2EE330E0620E731ED30157
:1059F0006D917D918D919C91F60120813181428143
:105A000053810E947099D5016D937D938D939C93E2
:105A10001397E7E3F2E06E0E7F1ED301ED92FD9245
:105A20000D931C931397EBE8FDEF6E0E7F1E830121
:105A30000A5B1F4FD30196966D917D918D919C913C
:105A40009997F80120813181428153810E94709998
:105A50002AE132E0620E731ED3016D937D938D9324
:105A60009C931397E6EEFDEF6E0E7F1ED3019A9680
:105A70006D917D918D919C919D97F801208131814F
:105A8000428153810E94709923E332E0620E731EBB
:105A9000D3016D937D938D939C931397EDECFDEF64
:105AA0006E0E7F1ED3019E966D917D918D919C917E
:105AB000D197F80120813181428153810E947099F0
:105AC0002CE432E0620E731ED3016D937D938D93AF
:105AD0009C931397E4EBFDEF6E0E7F1ED301D296DD
